:10206D007EE87F031EBEFF011FEE4F70F7224389EE
:10207D0001758C4B758AFCD28CD2AFD2A92290F20D
:10208D0000E0FEA3E0EE20E7F52212206D90F000B7
:10209D007430F0E4A3F012206D90F0007430F0E491
:1020AD00A3F012206D90F0007430F0E4A3F0122034
:1020BD008B90F0007438F0E4A3F012208B90F000B8
:1020CD007408F0E4A3F012208B90F000740CF0E48F
:1020DD00A3F012208B90F0007406F0E4A3F0122010
:1020ED008B90F0007401F0E4A3F022E582900001E2
:1020FD00F012208B900001E090F100F0E4A3F022AB
:10210D0012208B90F0007401F0E4A3F022E5829090
:10211D000002F012208B900002E0FF7E0090F00094
:10212D0074804FF0EEA3F022E582900004F01220AF
:10213D008B900004E075F010A4247FFE744235F0FE
:10214D00FF900003E02EF582E43FF583E493F582E2
:10215D0002211A7F00C00712208BD0078F057E0049
:10216D0074282DFDE43EFE43054090F000EDF0EEA9
:10217D00A3F090F000E0FBA3E0FCC007C005C00693
:10218D00C003C00474BFC0E07442C0E07480C0E0FE
:10219D00123649E58124F9F58112208BD0078F067F
:1021AD008E047D000CBC00010DC006C004C005747A
:1021BD00C7C0E07442C0E01232BFE58124FCF58156
:1021CD0090000575F00012237590000575F0001252
:1021DD002B46AD82D006ED24E040C590F100EDF028
:1021ED00E4A3F0C00612208B9000A6E4F09000A7A7
:1021FD007408F0E4A3F090000575F00012315CD086
:10220D0006EE04FFBF0800500302216290F0007437
:10221D0091F0E4A3F012208B90F1007405F0E4A38B
:10222D00F02212208B90F300E0FEA3E08E8222AF0D
:10223D00F0AE83E58290000DF0EEA3F0EFA3F090E9
:10224D000010E4F0A3F090000DE0F50AA3E0F50B0B
:10225D00A3E0F50CAA0AAB0BAC0C7800790088064C
:10226D00E9C454F0CEC4CE6ECE54F0CE6EFF9000C5
:10227D0010E0F508A3E0F509EE2508FEEF3509FF9E
:10228D00EE2AFEEF3BFF8C058E828F838DF0124080
:10229D006B700122C004C003C002C001C000122037
:1022AD008BD000D001D002D003D004C3740F950899
:1022BD0074808509F063F08095F0500C08B800012A
:1022CD0009900010E4F0A3F0C002C003C00488031D
:1022DD00E9C454F0CBC4CB6BCB54F0CB6BFCEB24EB
:1022ED007FFAEC3442FF900010E0FDA3E0FEED2AF2
:1022FD00F582EE3FF583E493F582C006C005C00478
:10230D00C003C002C001C00012211AD000D001D0FC
:10231D0002D003D004D005D006EB2DFBEC3EFCEB38
:10232D00250AFBEC350BFCAF0C8B828C838FF012E6
:10233D00406BFBF582C006C005C004C003C002C0DF
:10234D0001C0001220F8D000D001D002D003D0047B
:10235D00D005D00690001074012DF0E43EA3F0D00E
:10236D0004D003D00202226BAFF0AE83E582900061
:10237D0012F0EEA3F0EFA3F0900015E4F0A3F0122D
:10238D003088AE82AF83BE0802800DBE0A02806225
:10239D00BE0D02805D022427900015E0FDA3E0FF35
:1023AD00900015E0F5F0A3E045F0700302245F9076
:1023BD000008C007C005123057900020123057900A
:1023CD000008123057D005D007900012E024FFFA14
:1023DD00A3E034FFFBA3E0FC900012EAF0EBA3F0C6
:1023ED00ECA3F01DBDFF011F900015EDF0EFA3F064
:1023FD00806090000D12305790000A1230579000F7
:10240D0012E0FCA3E0FDA3E0FF8C828D838FF0E44E
:10241D001232A48C828D838FF022900012E0FCA3E7
:10242D00E0FDA3E0FF8C828D838FF0EE1232A4903D
:10243D00001274012CF0E43DA3F0EFA3F090001511
:10244D00E02401F0A3E03400F07F008E828F831230
:10245D003057900015E0FEA3E0FFBE3005BF00022F
:10246D00800302238C74E2C0E07442C0E07480C02B
:10247D00E012364915811581158122740EC0E07464
:10248D0043C0E01232BF15811581900017E4F09022
:10249D000017E0FFFD7E0090F00074804DF0EEA37C
:1024AD00F0C007C006C00512222FAC82D005D006A1
:1024BD00C006C005C004C005C0067421C0E0744349
:1024CD00C0E07480C0E0123649E58124FBF581D06F
:1024DD0004D005D006D0078F027B0074102AFAE4D1
:1024ED003BFBC3ED9AEE64808BF063F08095F0506A
:1024FD003FC3ED9480EE6480948050348C027B0059
:10250D00C007C006C005C004C002C0037427C0E0E8
:10251D007443C0E07480C0E0123649E58124FBF5B8
:10252D0081D004D005D006D0070DBD00AA0E80A71E
:10253D00742CC0E07443C0E01232BF158115819038
:10254D000017E02410F0E0FFBF8000500302249C30
:10255D00742FC0E07443C0E01232BF158115819015
:10256D000017E4F0900017E0FFFD7E0090F000747E
:10257D00404DF0EEA3F0C007C006C00512222FACEF
:10258D0082D005D006C006C005C004C005C00674C3
:10259D0021C0E07443C0E07480C0E0123649E5818B
:1025AD0024FBF581D004D005D006D0078F027B0027
:1025BD0074102AFAE43BFBC3ED9AEE64808BF06352
:1025CD00F08095F0503FC3ED9440EE6480948050C0
:1025DD00348C027B00C007C006C005C004C002C019
:1025ED00037427C0E07443C0E07480C0E012364924
:1025FD00E58124FBF581D004D005D006D0070DBDB3
:10260D0000AA0E80A7742CC0E07443C0E01232BF44
:10261D0015811581900017E02410F0E0FFBF4000F8
:10262D0050030225712212210D9000187401F0E45F
:10263D00A3F090001AF0A3F012294C122A32904206
:10264D0083E493F58212211A75822A1220F89042A2
:10265D0084E493F58212211A75822A1220F8904291
:10266D0087E493F58212211A75822A1220F890427E
:10267D0088E493F58212211A75822A1220F890426D
:10268D008BE493F58212211A75822A1220F890425A
:10269D008CE493F58212211A75822A1220F8904249
:1026AD008DE493F58212211A75822A1220F8904238
:1026BD0090E493F58212211A75822A1220F8904225
:1026CD0091E493F58212211A75822A1220F8904214
:1026DD0092E493F58212211A75822A1220F8904203
:1026ED009BE493F58212211A75822A1220F89042EA
:1026FD009CE493F58212211A75822A1220F87442F5
:10270D00C0E07443C0E01232BF1581158190001AEC
:10271D00E0FEA3E0FFBE0C12BF000F12210D90438F
:10272D009375F08012223C022CF2C007C0061230C5
:10273D0088AC82AD83D006D007BC6402800302282A
:10274D0031900018E0FBA3E0FD8B02EA1490427F6C
:10275D0093F582C007C006C005C004C00312211A3C
:10276D0012208B7582201220F812208BD003D004FA
:10277D00D005EB247FF582ED3442F583E493F582A9
:10278D00C00412211A12208B12222FAD82D004D038
:10279D0006D007BD2A1590001A74012EF0E43FA350
:1027AD00F0900007C004123057D004C00412208BE3
:1027BD00D004900018E0FEA3E0FFEE247FF582EF39
:1027CD003442F583E493FD7B0090F00074804DF06E
:1027DD00EBA3F0C007C006C00412208B90F100E4FB
:1027ED00F0A3F012208BD004D006D007C3EE942FA7
:1027FD00EF6480948040219042AEE493F582C00452
:10280D0012211A12208B7582201220F812208BD0E3
:10281D0004900018E4F0A3F0900018E02401F0A358
:10282D00E03400F0900018E024FFFEA3E034FFFF39
:10283D00900018EEF0EFA3F0BC610280030229387E
:10284D00900018E0FEA3E0FF8E05ED0490427F930B
:10285D00F582C007C006C00412211A12208B7582A2
:10286D00201220F812208BD004D006D007EE247F42
:10287D00F582EF3442F583E493F582C00412211AF8
:10288D0012208B12222FAF82D004BF2A1690001A6D
:10289D00E02401F0A3E03400F0900007C0041230F2
:1028AD0057D004C00412208BD004900018E0FEA372
:1028BD00E0FFEE247FF582EF3442F583E493FD7B58
:1028CD000090F00074804DF0EBA3F0C007C006C07F
:1028DD000412208B90F1007403F0E4A3F012208B0E
:1028ED00D004D006D007C3E49E74808FF063F080CF
:1028FD0095F0402390427FE493F582C00412211A93
:10290D0012208B7582201220F812208BD00490009B
:10291D0018742FF0E4A3F0900018E024FFFEA3E05C
:10292D0034FFFF900018EEF0EFA3F0900018E024B4
:10293D0001F0A3E03400F0BC71012202271A22122B
:10294D00208B90F0007440F0E4A3F012208B90F1F6
:10295D00007406F0E4A3F012208B90F0007441F0A7
:10296D00E4A3F012208B90F1007409F0E4A3F012AF
:10297D00208B90F0007442F0E4A3F012208B90F1C4
:10298D00007412F0E4A3F012208B90F0007443F069
:10299D00E4A3F012208B90F1007414F0E4A3F01274
:1029AD00208B90F0007444F0E4A3F012208B90F192
:1029BD00007414F0E4A3F012208B90F0007445F035
:1029CD00E4A3F012208B90F1007412F0E4A3F01246
:1029DD00208B90F0007446F0E4A3F012208B90F160
:1029ED00007409F0E4A3F012208B90F0007447F00E
:1029FD00E4A3F012208B90F1007406F0E4A3F01222
:102A0D00208B9000037401F0758203122135122082
:102A1D008B90F0007480F0E4A3F012208B90F10005
:102A2D00E4F0A3F02212208B90F0007458F0E4A390
:102A3D00F012208B90F100740CF0E4A3F012208BB7
:102A4D0090F0007459F0E4A3F012208B90F1007413
:102A5D0012F0E4A3F012208B90F000745AF0E4A36E
:102A6D00F012208B90F1007409F0E4A3F012208B8A
:102A7D0090F000745BF0E4A3F012208B90F10074E1
:102A8D0005F0E4A3F012208B90F000745CF0E4A349
:102A9D00F012208B90F1007405F0E4A3F012208B5E
:102AAD0090F000745DF0E4A3F012208B90F10074AF
:102ABD0009F0E4A3F012208B90F000745EF0E4A313
:102ACD00F012208B90F1007412F0E4A3F012208B21
:102ADD0090F000745FF0E4A3F012208B90F100747D
:102AED000CF0E4A3F002208BAF83E58290001CF084
:102AFD00EFA3F090001CE0FEA3E0FF4E603A9000C3
:102B0D00B27402F0E4A3F08E828F83C007C0061268
:102B1D0033E8123057D006D0079000BB7402F0E4B2
:102B2D00A3F08E828F831234FCE5828583F09000B2
:102B3D001CF0E5F0A3F080BB22AFF0AE83E58290F0
:102B4D00001EF0EEA3F0EFA3F090001EE0FDA3E059
:102B5D00FEA3E0FF900026E4F08D828E838FF012AD
:102B6D00406BFCBC20028003BC09070DBD00EA0EC2
:102B7D0080E7900021EDF0EEA3F0EFA3F0BC30293B
:102B8D0074012DFAE43EFB8F048A828B838CF01244
:102B9D00406BFCBC78028003BC580E90002174027F
:102BAD002DF0E43EA3F0EFA3F0900021E0FDA3E0B3
:102BBD00FEA3E0FF8D828E838FF012406BFFBF303E
:102BCD00004005EF24C650047F0080027F01EFFD19
:102BDD003395E0FEEF705C900021E0FBA3E0FCA3D9
:102BED00E0FF8B828C838FF012406BFFBF61004042
:102BFD0005EF249950047F0080027F01EFFC33958F
:102C0D00E0FF900024ECF0EFA3F0EC4F7025900066
:102C1D0021E0FBA3E0FCA3E0FF8B828C838FF012FD
:102C2D00406BFFBF41005003022CEBEF24B9500362
:102C3D00022CEB900026E0C454F0F0ED4E60319084
:102C4D000021E0FDA3E0FEA3E0FF8D828E838FF0D7
:102C5D0012406BFC90002174012DF0E43EA3F0EFC7
:102C6D00A3F0EC24D0FC900026E0FF2CF0022BB654
:102C7D00900024E0F5F0A3E045F06031900021E0F4
:102C8D00FDA3E0FEA3E0FF8D828E838FF012406BDB
:102C9D00FC90002174012DF0E43EA3F0EFA3F0743D
:102CAD00A92CFC900026E0FF2CF0022BB690002101
:102CBD00E0FDA3E0FEA3E0FF8D828E838FF0124036
:102CCD006BFC90002174012DF0E43EA3F0EFA3F016
:102CDD0074C92CFC900026E0FF2CF0022BB690005E
:102CED0026E0F58222748BC0E07440C0E07480C091
:102CFD00E074B1C0E07443C0E07480C0E0123649A6
:102D0D00E58124FAF581742CC0E07443C0E0748031
:102D1D00C0E01236491581158115817E007F009026
:102D2D0000B0EEF0EFA3F0900028C007C0061233FC
:102D3D00C8AC82AD83EC24C7FCED3440FD7B80C074
:102D4D0004C005C00374B1C0E07443C0E0EBC0E043
:102D5D00123649E58124FAF581742CC0E07443C024
:102D6D00E01232BF15811581D006D0070EBE0001CD
:102D7D000FC3EE940AEF6480948040A3748BC0E07F
:102D8D007440C0E07480C0E074B1C0E07443C0E032
:102D9D007480C0E0123649E58124FAF581742CC0A7
:102DAD00E07443C0E07480C0E0123649158115818E
:032DBD001581225B
:10408B000A0D2D2D2D2D2D2D2D2D2D2D2D2D2D2D98
:10409B002D2D2D2D2D2D2D2D2D2D2D2D2D2D2D2D45
:1040AB002D2D2D2D2D2D2D2D2D2D2D2D2D2D2D2D35
:1040BB002D2D2D0A0D0000000000000020456E7410
:1040CB006572207720746F20777269746520612088
:1040DB006368617261637465722000000000000008
:1040EB000000000020456E746572207320746F20F1
:1040FB007772697465206120737472696E67000052
:10410B0000000000000000000000000020456E745D
:10411B006572207020746F20706C61792070616300
:10412B006D616E2000000000000000000000000028
:10413B000000000020456E746572206420746F20AF
:10414B00706572666F726D2052414D2064756D7093
:10415B0020000000000000000000000020456E74ED
:10416B006572206720666F7220637573746F6D20A4
:10417B006368617261637465720000000000000087
:10418B000000000020456E746572207820746F204B
:10419B0072657365742074696D65720000000000B0
:1041AB0000000000000000000000000020456E74BD
:1041BB006572207920746F20706175736520746946
:1041CB006D657200000000000000000000000000A0
:1041DB000000000020456E746572207A20746F20F9
:1041EB00726573756D652074696D657200000000F2
:1041FB0000000000000000000000000020456E746D
:10420B006572207320746F20636C65617220736319
:10421B007265656E000000000000000000000000E9
:10422B000000000020456E746572206D20666F7271
:10423B00206D61696E206D656E75200000000000B9
:10424B000000000000000000000000000000000063
:10425B000000000000000000000000000000000053
:10426B000000000000000000000000000000000043
:10427B0000000000000102030405060708090A0BF1
:10428B000C0D0E0F404142434445464748494A4BAB
:10429B004C4D4E4F101112131415161718191A1BDB
:1042AB001C1D1E1F505152535455565758595A5B8B
:1042BB005C5D5E5F25782025780A0D000A0D456E42
:1042CB007465722076616C756520666F7220526F13
:1042DB00772025640A0D000A0D506C65617365200B
:1042EB00496E7075742061206D6178696D756D20F4
:1042FB006F66203438206368617261637465727312
:10430B000A0D000A0D444452414D20436F6E7465F3
:10431B006E74730A0D002532783A2000253278200E
:10432B00000A0D000A0D434752414D20436F6E7436
:10433B00656E74730A0D000A0D456E7465722077F5
:10434B0020746F20676F2075702C207320746F2082
:10435B00676F20646F776E2C206120746F20676FFE
:10436B00206C65667420616E64206420746F206716
:10437B006F20726967687420616E64207120746F9E
:10438B0020717569740A0D0047414D45204F564504
:10439B005221205052455353207020746F20726568
:0943AB0073746172740025730043
:042000000220113277
:03200B00022FD9C8
:03206A0002200E43
:03200E00022DC0E0
:102DC00090002CE4F0900027F0900028F09000296B
:102DD000F090002AF090002BF09000A6F09000A751
:102DE000743CF0E4A3F090002E75F00012315C12F8
:102DF000209712210D122CF212207B123088AE8205
:102E000090002DEEF090002CE0FFBF010890002C08
:102E1000E4F01230AA90002DE0FFBF770280030299
:102E20002F3C9000A6E4F09000A7740AF0E4A3F011
:102E300090006A75F00012315C74F4C0E07443C015
:102E4000E01232BF15811581123088AE828E057F67
:102E5000008D828F83C006123057D006EE24D0FF3B
:102E600024FD50147419C0E07444C0E01232BF1540
:102E7000811581122CF28083C0077436C0E074443F
:102E8000C0E01232BF1581158190006A75F0001202
:102E9000237590006A75F000123184AD82D007ED81
:102EA00024F05015745FC0E07444C0E01232BF15C6
:102EB000811581122CF2022DFBEF75F010A424B4C1
:102EC000FC744335F0FEED2CF582E43EF583E4938B
:102ED000FEFB7C007A008F017F00C006C003C004A7
:102EE000C005C002C001C007747FC0E07444C0E0E8
:102EF0007480C0E0123649E58124F7F581D0068E52
:102F000082C00612211A12208B7488C0E07444C05B
:102F1000E01232BF15811581123088AD828D047F99
:102F2000008C828F83C005123057D005D0068E8268
:102F3000C00512211AD0058D821220F890002DE0D4
:102F4000FFBF6D03122CF290002DE0FFBF70031243
:102F5000263390002DE0FFBF781990002CE4F0900C
:102F60000027F0900028F0900029F090002AF090BF
:102F7000002BF090002DE0FFBF7902C28C90002D55
:102F8000E0FFBF7A02D28C90002DE0FFBF630312F6
:102F9000210D90002DE0FFBF732174A0C0E07444A8
:102FA000C0E01232BF1581158190007475F00012D7
:102FB000237590007475F00012223C90002DE0FF04
:102FC000BF640312248890002DE0FFBF67028003D6
:102FD000022DFB122160022DFBC0E0C082C083C025
:102FE00007C0D075D000758C4B758AFC90002BE023
:102FF0002401F0E0FFBF0254900027E0FF24F650C8
:103000003A900028E02401F0E0FF24C4502890000A
:1030100029E02401F0E0FFBF3B1790002AE02401E3
:10302000F0E0FF24E8500590002AE4F0900029E445
:10303000F0900028E4F0900027E4F0900027E024CE
:1030400001F090002BE4F090002C04F0D0D0D007D9
:10305000D083D082D0E032AF83E5829000A4F0EF3D
:10306000A3F0E59820E11290002CE0FFBF01F3905F
:10307000002CE4F01230AA80E99000A4E0FEA3E066
:103080008E99C29990000022E59820E01290002CC1
:10309000E0FFBF01F390002CE4F01230AA80E9C2F7
:1030A00098AE997F008E828F832275825712211AE3
:1030B00090002AE02430F5821220F875823A12201E
:1030C000F8900029E0FF7E009000BB740AF0E4A3B2
:1030D000F08F828E831234FCAE8274302EF5821211
:1030E00020F8900029E0FF7E009000B2740AF0E41E
:1030F000A3F08F828E831233E8AE8274302EF58275
:103100001220F875823A1220F8900028E0FF7E0025
:103110009000BB740AF0E4A3F08F828E831234FC1B
:10312000AE8274302EF5821220F8900028E0FF7EE7
:10313000009000B2740AF0E4A3F08F828E83123301
:10314000E8AE8274302EF5821220F875822E12209D
:0C315000F8900027E02430F5820220F8FF
:1043B400000102030405060708090A0B0C0D0E0F81
:1043C400404142434445464748494A4B4C4D4E4F71
:1043D400101112131415161718191A1B1C1D1E1F61
:1043E400505152535455565758595A5B5C5D5E5F51
:1043F4000A0D456E7465722074686520726F7720AB
:104404006E756D6265722066726F6D203020746FF8
:1044140020320A0D000A0D456E74657265642052DF
:104424006F7720697320696E636F72726563740AB3
:104434000D000A0D456E7465722074686520636F03
:104444006C756D6E206E756D6265722066726F6D2F
:10445400203020746F2031350A0D000A0D456E742A
:104464006572656420436F6C756D6E206973206995
:104474006E636F72726563740A0D0025642025648F
:10448400202564000A0D456E7465722074686520E9
:104494006368617261637465720A0D000A0D456E8A
:1044A4007465722074686520737472696E670A0D8E
:0144B4000007
:06204000E478FFF6D8FD74
:10315C00AC82AD839000A7E0FEA3E0FFBE0003604D
:10316C00121F0F9000A6E08C828D831232A4A3DE76
:10317C00FADFF88C828D8322AFF0AE83E58290006B
:10318C00A9F0EEA3F0EFA3F09000ACE4F0A3F09064
:10319C0000A9E0FDA3E0FEA3E0FF8D828E838FF0FB
:1031AC0012406BFCBC20028003BC09120DBD000157
:1031BC000E9000A9EDF0EEA3F0EFA3F080DC9000F0
:1031CC00A9EDF0EEA3F0EFA3F08D828E838FF012B9
:1031DC00406BFC9000AEE4BC2D0104F0BC2D0280D1
:1031EC0003BC2B0E9000A974012DF0E43EA3F0EF6C
:1031FC00A3F09000A9E0FDA3E0FEA3E0FF8D828E7A
:10320C00838FF012406BFCBC3000405DEC24C64058
:10321C00589000ACE0FBA3E0FC9000B0EBF0ECA30A
:10322C00F090000AC007C006C0051233C8AB82ACD0
:10323C0083D005D006D0078D828E838FF012406B21
:10324C00FAA3AD82AE839000A9EDF0EEA3F0EFA34C
:10325C00F08A017A00E924D0F9EA34FFFA9000AC44
:10326C00E92BF0EA3CA3F080949000A9EDF0EEA3DA
:10327C00F0EFA3F09000AEE060119000ACE0FEA384
:10328C00E0FFC3E49EFEE49FFF80089000ACE0FEEC
:08329C00A3E0FF8E828F832264
:10201E007900E94400601B7A009044C078FD75A0F9
:10202E0000E493F2A308B8000205A0D9F4DAF27521
:02203E00A0FF01
:1032A40020F71130F6138883A88220F509F6A88345
:1032B4007583002280FEF280F5F022C00D85810D19
:1032C400E50D24FDF8868318868218E493A324DB95
:1032D400600C242560051233AD80F00233C5D2D5CD
:1032E400E493A3C083C082B4731486F01886831851
:1032F40086821812406B6054A31233AD80F5B46318
:103304000818E6181233AD8043B46417E630E74674
:1033140018E6F42401F608E6F43400F6742D1233AA
:10332400AD8033B4782D868318868218E412339ED8
:10333400E58312339DE58312339EE58212339DE5C6
:103344008212339E30D50574301233ADD082D083CF
:103354000232CFB475F6E6FA18E6F9187C107D2728
:10336400123388FF7CE87D03123388C4F5837C64C0
:103374007D001233884283E975F00A84C445F0F570
:1033840082EF80A97B000BC3E99CF9EA9DFA50F611
:103394001BE92CF9EA3DFAEB22C4540F700320D543
:1033A4001FC2D52490D43440D4C083C082C0F0F569
:1033B40082E8C0E0123057D0E0F8D0F0D082D08359
:1033C40022D00D22AA83AB828BF09000B0E0A4F847
:1033D400A9F08AF0E0A429F98BF0A3E0A429F583ED
:1033E40088822222AF83E5829000B4F0EFA3F090AC
:1033F40000B4E0FEA3E0FF30E709C3E49EFCE49FD1
:10340400FD80048E048F059000B2E0FEA3E0FF303F
:10341400E709C3E49EFAE49FFB80048E028F0390C5
:1034240000B6EAF0EBA3F08C828D83123450AE82A6
:10343400AF839000B4E0A3E030E70CC3E49EFCE467
:103444009FFD8C828D83228E828F8322AF83E582BF
:103454009000B8F0EFA3F09000BAE4F09000B8E068
:10346400FEA3E0FF7D009000B6E0FBA3E0FC235444
:1034740001FA7036EB2BFBEC33FC9000B6EBF0EC6E
:10348400A3F09000B6E0FBA3E0FCC3EE9BEF9C50DE
:1034940011ECC313CB13CBFC9000B6EBF0ECA3F010
:1034A40080080D9000BAEDF080BC9000BAE0FF9067
:1034B40000B8E0FDA3E0FE9000B6E0FBA3E0FCC38F
:1034C400ED9BEE9C400B9000B8EDC39BF0EE9CA3EB
:1034D400F09000B6E0FDA3E0C313CD13CDFE900041
:1034E400B6EDF0EEA3F08F061FEE70C39000B8E0C7
:0834F400FEA3E08E82F58322A5
:102046007800E84400600A790175A000E4F309D835
:10205600FC78FCE84400600C7901900001E4F0A3F0
:04206600D8FCD9FACF
:1034FC00AF83E5829000BDF0EFA3F09000BDE0FE3D
:10350C00A3E0FF30E709C3E49EFCE49FFD80048E3A
:10351C00048F059000BBE0FEA3E0FF33E433FB60B7
:10352C0009C3E49EF9E49FFA80048E018F02900097
:10353C00BFE9F0EAA3F08C828D83C00312356EAE26
:10354C0082AF83D0039000BDE0A3E033E4336B6023
:10355C000CC3E49EFCE49FFD8C828D83228E828FB3
:10356C008322AF83E5829000C1F0EFA3F09000C3FB
:10357C00E4F0A3F09000BFE0FEA3E0FF7D1090000C
:10358C00C1E0FBA3E0FC9000C5235401F0EB2BFB46
:10359C00EC33FC9000C1EBF0ECA3F09000C3E0FB2B
:1035AC00A3E0FCEB2BFBEC33FC9000C3EBF0ECA3A7
:1035BC00F09000C5E060089000C3E043E001F0909B
:1035CC0000C3E0FBA3E0FCC3EB9EEC9F4013900018
:1035DC00C3EBC39EF0EC9FA3F09000C1E043E0016D
:1035EC00F0DD9B9000C1E0FEA3E08E82F58322C04B
:1035FC000D85810D7E008E83123057D00D22AFF0D9
:10360C00AE83E5829000C7F0EEA3F0EFA3F090003C
:10361C00C7E0FDA3E0FEA3E0FF9000C6E0FC900035
:10362C00DBE4F0A3F0A3F09000DEEDF0EEA3F0EFFE
:10363C00A3F09000E1ECF09035FB023752C00DE5A1
:10364C0081F50D24FBFF9000DBE4F0A3F0A3F0E583
:10365C000D24FBF89000DEE6F008E6A3F008E6A3E4
:10366C00F09000E1EFF09035FB123752D00D22E5CF
:10367C00829000D7F0E0FF9000CDE0C0E0A3E0C066
:10368C00E0A3E0C0E0123696800D9000CBE0C0E0E5
:10369C00A3E0C0E08F82221581158115819000D5A1
:1036AC00E02401F0A3E03400F022E5829000D8F091
:1036BC00E02430FF24C6500D74072FFF9000CAE0A1
:1036CC0060034307208F8202367BE5829000D9F09D
:1036DC00E0FFC4540FF582C0071236B6D00753076B
:1036EC000F8F820236B6E5829000DAF09000D0E0BF
:1036FC00FCA3E0FDA3E0FEA3E0FF9000D4E0FB758B
:10370C0018209000DAE0F98B00E828F8EF23540138
:10371C0048FBEC2CFCED33FDEE33FEEF33FFC3EB3B
:10372C00994007EBC399FB430401E51814FA8A1876
:10373C0070D59000D0ECF0EDA3F0EEA3F0EFA3F079
:10374C009000D4EBF022AF83E5829000E2F0EFA37F
:10375C00F09000E2E0FEA3E0FF9000CBEEF0EFA3D0
:10376C00F09000DBE0FDA3E0FEA3E0FF9000CDEDC8
:10377C00F0EEA3F0EFA3F09000D5E4F0A3F09000EE
:10378C00DEE0FDA3E0FEA3E0FF8D828E838FF012BE
:10379C00406BFC9000DE74012DF0E43EA3F0EFA32F
:1037AC00F0EC7003024047BC2502800302403F90BE
:1037BC0000E4E4F09000E5F09000E6F09000E7F013
:1037CC009000E8F09000E9F09000EAF09000EBF047
:1037DC009000EDF09000EEF0A3F09000F014F0A348
:1037EC00F09000DEE0FDA3E0FEA3E0FF8D828E836F
:1037FC008FF012406BFBA3AD82AE839000DEEDF038
:10380C00EEA3F0EFA3F09000F4EBF0BB25088B8255
:10381C0012367B02378ABB300050030238EBEB24A4
:10382C00C650030238EB9000F0E0F50EA3E0F50F64
:10383C0074FFB50E63B50F60C005C006C0079000DD
:10384C00EEE0FAA3E0FF9000B0EAF0EFA3F09000F6
:10385C000AC005C0031233C8AE82AF83D003D005B3
:10386C008B027D00EA2EFEED3FFFEE24D0FEEF34FE
:10387C00FFFF9000EEEEF0EFA3F0D007D006D005DE
:10388C009000EEE0F5F0A3E045F060030237F8900D
:10389C0000E57401F00237F8C005C006C0079000BF
:1038AC00B0E50EF0E50FA3F090000AC006C005C00D
:1038BC00031233C8AA82AF83D003D005D0067E0092
:1038CC00EB2AFAEE3FFFEA24D0FAEF34FFFF900028
:1038DC00F0EAF0EFA3F0D007D006D0050237F8904D
:1038EC0000F4E0FBBB2E2FC005C006C0079000F013
:1038FC00E0FAA3E0FFBAFF05BFFF028009D007D0B2
:10390C0006D0050237F8D007D006D0059000F0E4B9
:10391C00F0A3F00237F8BB61004014EB2485400F94
:10392C009000F474DF5BF09000CA7401F080059095
:10393C0000CAE4F09000F4E0FBBB20028075BB2BC6
:10394C00028067BB2D028059BB4202806FBB4302D1
:10395C00807CBB4403023BE2BB4603023C08BB48F1
:10396C00030237F8BB4903023BE2BB4A030237F8B8
:10397C00BB4C028050BB4F03023BF0BB5003023BDD
:10398C0050BB53028077BB54030237F8BB5503027C
:10399C003BF8BB5803023C00BB5A030237F8023C0D
:1039AC00109000E47401F00237F89000E67401F016
:1039BC000237F89000E77401F00237F89000E974D0
:1039CC0001F00237F89000EA7401F00237F8900029
:1039DC00E9E0600E9000E1E014F9F09000F4E7F0FB
:1039EC00800F9000E1E024FEFFF08F019000F4E7DF
:1039FC00F09000F4E0F58212367B023C1F9000E15F
:103A0C00E024FDFFF08F0187050987060987071958
:103A1C00199000D0EDF0EEA3F0EFA3F08D828E8321
:103A2C008FF012405385820E85830F9000F0E0FAE0
:103A3C00A3E0FDBAFF0DBDFF0A9000F0E50EF0E526
:103A4C000FA3F09000E4E0704B9000EEE0FAA3E0DE
:103A5C00FDC3E50E9AE50F9D503A9000EEEAC39532
:103A6C000EF0ED950FA3F09000EEE0FAA3E0FD8AC6
:103A7C00068D071ABAFF011DEE4F6010758220C02B
:103A8C0005C00212367BD002D00580E39000EEEA2E
:103A9C00F0EDA3F09000F0E0F511A3E0F51290002A
:103AAC00D0E0FAA3E0FDA3E0FF8A828D838FF012B1
:103ABC00406BF510603CC3E4951174808512F06383
:103ACC00F08095F0502C151174FFB511021512856C
:103ADC00108212367B9000D0E0FAA3E0FDA3E0FF49
:103AEC000ABA00010D9000D0EAF0EDA3F0EFA3F0BC
:103AFC0080AC9000E4E07003023C1F9000EEE0FE0E
:103B0C00A3E0FFC3E50E9EE50F9F4003023C1F9010
:103B1C0000EEEEC3950EF0EF950FA3F09000EEE0E3
:103B2C00FEA3E0FF8E028F051EBEFF011FEA4D7043
:103B3C0003023C17758220C007C00612367BD006E4
:103B4C00D00780E09000E1E024FDFDF08D018713AB
:103B5C0009871409871519199000D0E513F0E5149D
:103B6C00A3F0E515A3F09000D2E0FDBD8000400865
:103B7C009000F47443F08020BD600040089000F485
:103B8C007450F08013BD400040089000F47449F06C
:103B9C0080069000F47458F09000F4E0FDF582C0BB
:103BAC000512367B75823A12367B75823012367B63
:103BBC0075827812367BD005BD4902800EBD50024D
:103BCC0080099000D1E0F5821236D69000D0E0F555
:103BDC00821236D6803D9000E87401F09000ED74AE
:103BEC000AF0802F9000ED7408F080279000ED749F
:103BFC000AF0801F9000ED7410F080179000EB74A9
:103C0C0001F0800F8B8212367B80089000EEEEF074
:103C1C00EFA3F09000EBE060719000E1E024FCFF7A
:103C2C00F08F01870309870509870609870719198A
:103C3C00199000D0EBF0EDA3F0EEA3F0EFA3F09011
:103C4C0000D074B5F07444A3F07480A3F09000D04D
:103C5C00E0F513A3E0F514A3E0F51574012513FAB0
:103C6C00E43514FBAF159000D0EAF0EBA3F0EFA312
:103C7C00F08513828514838515F012406BFF700359
:103C8C0002378A8F8212367B80C39000EDE070037E
:103C9C0002378A9000E9E060479000E1E014F9F007
:103CAC0087077E007D007B009000D0EFF0EEA3F044
:103CBC00EDA3F0EBA3F09000E8E06003023D62900E
:103CCC0000D0E0FBA3E0A3E0A3E07D007E007F003A
:103CDC009000D0EBF0EDA3F0EEA3F0EFA3F0807624
:103CEC009000EAE060289000E1E024FCFFF08F01F6
:103CFC008703098705098706098707191919900091
:103D0C00D0EBF0EDA3F0EEA3F0EFA3F08048900021
:103D1C00E1E024FEFFF08F01870609870719EF33D6
:103D2C0095E0FDFB9000D0EEF0EFA3F0EDA3F0EBEF
:103D3C00A3F09000E8E0701E9000D0E0FBA3E0FD43
:103D4C00A3E0A3E07E007F009000D0EBF0EDA3F0A9
:103D5C00EEA3F0EFA3F09000E8E060419000D0E01B
:103D6C00FBA3E0FDA3E0FEA3E0FF30E72B9000D027
:103D7C00E0FBA3E0FDA3E0FEA3E0FFC3E49BFBE4B8
:103D8C009DFDE49EFEE49FFF9000D0EBF0EDA3F0D0
:103D9C00EEA3F0EFA3F080059000E8E4F09000ECC7
:103DAC007401F09000EDE0F5117516FA751700E44A
:103DBC00F50EF50F9000D4E4F08511821236F290D6
:103DCC0000ECE070269000D4E0C4F51385168285D3
:103DDC001783E0FFE5134207851682851783EFF002
:103DEC00151674FFB516021517800C9000D4E0FF61
:103DFC00851682851783F0050EE4B50E02050F902B
:103E0C0000ECE0B40100E433F09000D0E0FAA3E061
:103E1C00FBA3E0FEA3E0FFEA4B4E4F70979000FB34
:103E2C00E516F0E517A3F09000F2E50EF0E50FA310
:103E3C00F09000EEE0F5F0A3E045F070099000EE94
:103E4C007401F0E4A3F09000E5E0FFE0704790000F
:103E5C00E4E07041850E16850F179000EEE0FAA392
:103E6C00E0FBC007AF160F8F067F00C3EE9AEF9BE7
:103E7C00D0075019758220C007C003C00212367BD0
:103E8C00D002D003D0071ABAFF011B80D59000EEE8
:103E9C00EAF0EBA3F09000E8E0602075822DC007FB
:103EAC0012367BD0079000EEE024FFFDA3E034FF38
:103EBC00FE9000EEEDF0EEA3F080569000F2E0F5EF
:103ECC00F0A3E045F0604A9000E6E0602075822B9C
:103EDC00C00712367BD0079000EEE024FFFDA3E074
:103EEC0034FFFE9000EEEDF0EEA3F080249000E79E
:103EFC00E0601E758220C00712367BD0079000EE62
:103F0C00E024FFFDA3E034FFFE9000EEEDF0EEA305
:103F1C00F09000E4E070489000F2E0F516A3E0F5B4
:103F2C00179000EEE0FAA3E0FBC0078A068B071A95
:103F3C00BAFF011BC3E5169EE5179FD0075053EF40
:103F4C0060067D307E0080047D207E008D82C0075F
:103F5C00C003C00212367BD002D003D00780CA90B7
:103F6C0000EEE0FEA3E0FF9000F2E0F516A3E0F512
:103F7C0017C3E5169EE5179F500F9000EEEEC39504
:103F8C0016F0EF9517A3F080119000EEE4F0A3F07B
:103F9C0080089000EEEAF0EBA3F09000FBE0FEA3AB
:103FAC00E0FF9000F2E0F516A3E0F517AA16AD17A6
:103FBC00151674FFB516021517EA4D60459000EC06
:103FCC00E0B40100E433F09000ECE070140EBE009D
:103FDC00010F8E828F83E0C4540FFD9000D4F080CB
:103FEC000E8E828F83E0FD53050F9000D4EDF09080
:103FFC0000D4E0F582C007C0061236B6D006D00752
:10400C0080AA9000E4E0700302378A9000EEE0FE94
:10401C00A3E0FF8E038F051EBEFF011FEB4D700347
:10402C0002378A758220C007C00612367BD006D0B4
:10403C000780E08C8212367B02378A9000D5E0FE36
:07404C00A3E08E82F5832240
:0B44B5003C4E4F20464C4F41543E004F
:10405300AA82AB8312406B6003A380F8C3E5829A04
:08406300F582E5839BF5832241
:0D201100758118124087E582600302200EE1
:10406B0020F71430F6148883A88220F507E6A8837E
:10407B0075830022E280F7E49322E022758200220E
:00000001FF
