:20206D007EE87F031EBEFF011FEE4F70F722438901758C4B758AFCD28CD2AFD2A92290F298
:20208D0000E0FEA3E0EE20E7F52212206D90F0007430F0E4A3F012206D90F0007430F0E405
:2020AD00A3F012206D90F0007430F0E4A3F012208B90F0007438F0E4A3F012208B90F000C9
:2020CD007408F0E4A3F012208B90F000740CF0E4A3F012208B90F0007406F0E4A3F012209C
:2020ED008B90F0007401F0E4A3F022E582900001F012208B900001E090F100F0E4A3F022AA
:20210D0012208B90F0007401F0E4A3F022E582900002F012208B900002E0FF7E0090F00062
:20212D0074804FF0EEA3F022E582900004F012208B900004E075F010A4246DFE744235F01D
:20214D00FF900003E02EF582E43FF583E493F58202211A7F00C00712208BD0078F057E00A9
:20216D0074282DFBE43EFC90F00074404BF0ECA3F074302DFDE43EFE43054090F000E0FBB1
:20218D00A3E0FCC007C005C006C003C00474ADC0E07442C0E07480C0E0123637E58124F92D
:2021AD00F58112208BD0078F068E047D000CBC00010DC006C004C00574B5C0E07442C0E020
:2021CD001232ADE58124FCF58190000575F00012238590000575F000122B2AAD82D006EDFE
:2021ED0024E040C590F100EDF0E4A3F0C00612208B9000A5E4F09000A67408F0E4A3F090BF
:20220D00000575F00012314AD006EE04FFBF0800500302216290F0007491F0E4A3F0122036
:20222D008B90F1007406F0E4A3F02212208B90F300E0FEA3E0C00612208BD0068E8222AFA7
:20224D00F0AE83E58290000DF0EEA3F0EFA3F0900010E4F0A3F090000DE0F50AA3E0F50B53
:20226D00A3E0F50CAA0AAB0BAC0C780079008806E9C454F0CEC4CE6ECE54F0CE6EFF900090
:20228D0010E0F508A3E0F509EE2508FEEF3509FFEE2AFEEF3BFF8C058E828F838DF01240BD
:2022AD0059700122C004C003C002C001C00012208BD000D001D002D003D004C3740F9508A1
:2022CD0074808509F063F08095F0500C08B8000109900010E4F0A3F0C002C003C004880326
:2022ED00E9C454F0CBC4CB6BCB54F0CB6BFCEB246DFAEC3442FF900010E0FDA3E0FEED2AEE
:20230D00F582EE3FF583E493F582C006C005C004C003C002C001C00012211AD000D001D093
:20232D0002D003D004D005D006EB2DFBEC3EFCEB250AFBEC350BFCAF0C8B828C838FF0125E
:20234D004059FBF582C006C005C004C003C002C001C0001220F8D000D001D002D003D004CC
:20236D00D005D00690001074012DF0E43EA3F0D004D003D00202227BAFF0AE83E5829000DF
:20238D0012F0EEA3F0EFA3F0900015E4F0A3F0123076AE82AF83BE0802800DBE0A02806204
:2023AD00BE0D02805D022437900015E0FDA3E0FF900015E0F5F0A3E045F0700302246F904B
:2023CD000008C007C005123045900020123045900008123045D005D007900012E024FFFA34
:2023ED00A3E034FFFBA3E0FC900012EAF0EBA3F0ECA3F01DBDFF011F900015EDF0EFA3F02A
:20240D00806090000D12304590000A123045900012E0FCA3E0FDA3E0FF8C828D838FF0E489
:20242D001232928C828D838FF022900012E0FCA3E0FDA3E0FF8C828D838FF0EE1232929089
:20244D00001274012CF0E43DA3F0EFA3F0900015E02401F0A3E03400F07F008E828F8312A2
:20246D003045900015E0FEA3E0FFBE3005BF0002800302239C74D0C0E07442C0E07480C0EF
:20248D00E01236371581158115812212210D74FCC0E07442C0E01232AD1581158190001782
:2024AD00E4F0900017E0FFFD7E00C007C005C006740FC0E07443C0E07480C0E0123637E576
:2024CD008124FBF581D0078F068E047D0074102CFCE43DFD8F027B00C3EA9CEB64808DF0F3
:2024ED0063F08095F0503AEF24A0403590F00074804AF0EBA3F0C007C006122238AD827CF5
:20250D0000C005C0047415C0E07443C0E07480C0E0123637E58124FBF581D006D0070F805B
:20252D00A8741AC0E07443C0E01232AD15811581900017E0FF2410F0E0FF24A0400302248E
:20254D00AF741DC0E07443C0E01232AD158115817F008F057E00C007C005C0067430C0E0F3
:20256D007443C0E01232ADE58124FCF581D0078F067D008D037C00C006C005C004C003C043
:20258D0003C0047441C0E07443C0E07480C0E0123637E58124FBF581D003D004D005D0065B
:2025AD004303408E01E40354F8C9C403C969C954F8C969FA90F000E94BF0EA4CA3F0C00690
:2025CD00C005122238AC827B00C004C0037415C0E07443C0E07480C0E0123637E58124FB75
:2025ED00F581741AC0E07443C0E01232AD15811581D005D0060DED24F84003022580C00645
:20260D00741AC0E07443C0E01232AD15811581D006EE04FF24F8400302255F2212210D906D
:20262D00434B75F08012224C123076AE828E057F008D828F83C006123045D006BE67E990BE
:20264D0000187401F0E4A3F090001AF012210D122930122A16904271E493F58212211A75EF
:20266D00822A1220F8904272E493F58212211A75822A1220F8904275E493F58212211A75B6
:20268D00822A1220F8904279E493F58212211A75822A1220F890427AE493F58212211A758A
:2026AD00822A1220F890427BE493F58212211A75822A1220F890427FE493F58212211A7563
:2026CD00822A1220F8904280E493F58212211A75822A1220F8904289E493F58212211A7534
:2026ED00822A1220F8746CC0E07443C0E01232AD1581158190429DE493F58212211A9000C9
:20270D001AE0FF2430F582C0071220F8D007BF090F12210D9043BD75F08012224C022CD610
:20272D00C007123076AD82AE83D007BD6402800302281A900018E0FCA3E0FE8C03EB1490C9
:20274D00426D93F582C007C006C005C00412211A12208B7582201220F812208BD004D005EC
:20276D00D006EC246DF582EE3442F583E493F582C00512211A12208B122238AE82D005D0A8
:20278D0007BE2A1090001AEF04F0900007C005123045D005C00512208BD005900018E0FE0B
:2027AD00A3E0FFEE246DF582EF3442F583E493FC7B0090F00074804CF0EBA3F0C007C0060E
:2027CD00C00512208B90F100E4F0A3F012208BD005D006D007C3EE942FEF64809480402187
:2027ED0090429CE493F582C00512211A12208B7582201220F812208BD005900018E4F0A3AF
:20280D00F0900018E02401F0A3E03400F0900018E024FFFEA3E034FFFF900018EEF0EFA301
:20282D00F0BD6102800302291C900018E0FEA3E0FF8E04EC0490426D93F582C007C006C091
:20284D000512211A12208B7582201220F812208BD005D006D007EE246DF582EF3442F58309
:20286D00E493F582C00512211A12208B122238AF82D005BF2A1190001AE02401F0900007EC
:20288D00C005123045D005C00512208BD005900018E0FEA3E0FFEE246DF582EF3442F583D8
:2028AD00E493FC7B0090F00074804CF0EBA3F0C007C006C00512208B90F1007403F0E4A371
:2028CD00F012208BD005D006D007C3E49E74808FF063F08095F0402390426DE493F582C05C
:2028ED000512211A12208B7582201220F812208BD005900018742FF0E4A3F0900018E0248B
:20290D00FFFEA3E034FFFF900018EEF0EFA3F0900018E02401F0A3E03400F0BD7101220259
:20292D0027012212208B90F0007440F0E4A3F012208B90F1007406F0E4A3F012208B90F08C
:20294D00007441F0E4A3F012208B90F1007409F0E4A3F012208B90F0007442F0E4A3F012C0
:20296D00208B90F1007412F0E4A3F012208B90F0007443F0E4A3F012208B90F1007414F020
:20298D00E4A3F012208B90F0007444F0E4A3F012208B90F1007414F0E4A3F012208B90F0ED
:2029AD00007445F0E4A3F012208B90F1007412F0E4A3F012208B90F0007446F0E4A3F0124F
:2029CD00208B90F1007409F0E4A3F012208B90F0007447F0E4A3F012208B90F1007406F0D3
:2029ED00E4A3F012208B9000037401F075820312213512208B90F0007480F0E4A3F0122072
:202A0D008B90F100E4F0A3F02212208B90F0007458F0E4A3F012208B90F100740CF0E4A36F
:202A2D00F012208B90F0007459F0E4A3F012208B90F1007412F0E4A3F012208B90F000744C
:202A4D005AF0E4A3F012208B90F1007409F0E4A3F012208B90F000745BF0E4A3F012208B56
:202A6D0090F1007405F0E4A3F012208B90F000745CF0E4A3F012208B90F1007405F0E4A346
:202A8D00F012208B90F000745DF0E4A3F012208B90F1007409F0E4A3F012208B90F00074F1
:202AAD005EF0E4A3F012208B90F1007412F0E4A3F012208B90F000745FF0E4A3F012208BE5
:202ACD0090F100740CF0E4A3F002208BAF83E58290001BF0EFA3F090001BE0FEA3E0FF4EC5
:202AED00603A9000B17402F0E4A3F08E828F83C007C0061233D6123045D006D0079000BAC9
:202B0D007402F0E4A3F08E828F831234EAE5828583F090001BF0E5F0A3F080BB22AFF0AE6D
:202B2D0083E58290001DF0EEA3F0EFA3F090001DE0FDA3E0FEA3E0FF900025E4F08D828E4B
:202B4D00838FF0124059FCBC20028003BC09070DBD00EA0E80E7900020EDF0EEA3F0EFA3C9
:202B6D00F0BC302974012DFAE43EFB8F048A828B838CF0124059FCBC78028003BC580E904F
:202B8D00002074022DF0E43EA3F0EFA3F0900020E0FDA3E0FEA3E0FF8D828E838FF01240BD
:202BAD0059FFBF30004005EF24C650047F0080027F01EFFD3395E0FEEF705C900020E0FBF6
:202BCD00A3E0FCA3E0FF8B828C838FF0124059FFBF61004005EF249950047F0080027F01BC
:202BED00EFFC3395E0FF900023ECF0EFA3F0EC4F7025900020E0FBA3E0FCA3E0FF8B828C30
:202C0D00838FF0124059FFBF41005003022CCFEF24B95003022CCF900025E0C454F0F0ED15
:202C2D004E6031900020E0FDA3E0FEA3E0FF8D828E838FF0124059FC90002074012DF0E4AC
:202C4D003EA3F0EFA3F0EC24D0FC900025E0FF2CF0022B9A900023E0F5F0A3E045F0603100
:202C6D00900020E0FDA3E0FEA3E0FF8D828E838FF0124059FC90002074012DF0E43EA3F07A
:202C8D00EFA3F074A92CFC900025E0FF2CF0022B9A900020E0FDA3E0FEA3E0FF8D828E8339
:202CAD008FF0124059FC90002074012DF0E43EA3F0EFA3F074C92CFC900025E0FF2CF00251
:202CCD002B9A900025E0F582227479C0E07440C0E07480C0E074DBC0E07443C0E07480C085
:202CED00E0123637E58124FAF581741AC0E07443C0E07480C0E01236371581158115817E96
:202D0D00007F009000AFEEF0EFA3F0900028C007C0061233B6AC82AD83EC24B5FCED3440C8
:202D2D00FD7B80C004C005C00374DBC0E07443C0E0EBC0E0123637E58124FAF581741AC0AA
:202D4D00E07443C0E01232AD15811581D006D0070EBE00010FC3EE940AEF6480948040A370
:202D6D007479C0E07440C0E07480C0E074DBC0E07443C0E07480C0E0123637E58124FAF5FF
:172D8D0081741AC0E07443C0E07480C0E01236371581158115812232
:204079000A0D2D2D2D2D2D2D2D2D2D2D2D2D2D2D2D2D2D2D2D2D2D2D2D2D2D2D2D2D2D2DCA
:204099002D2D2D2D2D2D2D2D2D2D2D2D2D2D2D2D2D2D2D0A0D0000000000000020456E7452
:2040B9006572207720746F20777269746520612063686172616374657220000000000000BD
:2040D9000000000020456E746572207320746F207772697465206120737472696E67000090
:2040F90000000000000000000000000020456E746572207020746F20706C617920706163CC
:204119006D616E200000000000000000000000000000000020456E746572206420746F2065
:20413900706572666F726D2052414D2064756D7020000000000000000000000020456E742E
:204159006572206720666F7220637573746F6D2063686172616374657200000000000000F9
:204179000000000020456E746572207820746F2072657365742074696D65720000000000E9
:2041990000000000000000000000000020456E746572207920746F20706175736520746911
:2041B9006D6572000000000000000000000000000000000020456E746572207A20746F20C7
:2041D900726573756D652074696D65720000000000000000000000000000000020456E74AD
:2041F9006572206320746F20636C6561722073637265656E00000000000000000000000082
:204219000000000020456E746572206D20666F72206D61696E206D656E75200000000000B9
:20423900000000000000000000000000000000000000000000000000000000000000000065
:204259000000000000000000000000000000000000000000000102030405060708090A0B03
:204279000C0D0E0F404142434445464748494A4B4C4D4E4F101112131415161718191A1B75
:204299001C1D1E1F505152535455565758595A5B5C5D5E5F25782025780A0D000A0D456EDC
:2042B9007465722076616C756520666F7220526F772025640A0D000A0D506C65617365204D
:2042D900496E7075742061206D6178696D756D206F66203438206368617261637465727355
:2042F9000A0D000A0D444452414D20436F6E74656E74730A0D002532783A20002532782072
:20431900000A0D000A0D434752414D20436F6E74656E74730A0D000A0D436861726163749A
:2043390065722025640A0D00526F77202532783A200057454C434F4D452032205041434DAD
:20435900414E5052455353204720544F205354415254000A0D456E746572207720746F2081
:20437900676F2075702C207320746F20676F20646F776E2C206120746F20676F206C6566BC
:204399007420616E64206420746F20676F20726967687420616E64207120746F207175692C
:2043B900740A0D0047414D45204F56455221205052455353207020746F20726573746172D1
:0543D9007400257300D3
:042000000220113277
:03200B00022FC7DA
:03206A0002200E43
:03200E00022DA4FC
:202DA40090002BE4F0900026F0900027F0900028F0900029F090002AF09000A5F09000A6DD
:202DC400743CF0E4A3F090002D75F00012314A12209712210D122CD612207B123076AE8277
:202DE40090002CEEF07F008E828F8312304590002BE0FFBF010890002BE4F01230989000B2
:202E04002CE0FFBF77028003022F2A9000A5E4F09000A6740AF0E4A3F090006975F00012F9
:202E2400314A741EC0E07444C0E01232AD15811581123076AE828E057F008D828F83C0068B
:202E4400123045D006EE24D0FF24FD50157443C0E07444C0E01232AD15811581122CD602C8
:202E64002DDFC0077460C0E07444C0E01232AD1581158190006975F000122385900069750C
:202E8400F000123172AD82D007ED24F050157489C0E07444C0E01232AD15811581122CD6F7
:202EA400022DDFEF75F010A424DEFC744335F0FEED2CF582E43EF583E493FEFB7C007A0090
:202EC4008F017F00C006C003C004C005C002C001C00774A9C0E07444C0E07480C0E0123692
:202EE40037E58124F7F581D0068E82C00612211A12208B74B2C0E07444C0E01232AD158145
:202F04001581123076AD828D047F008C828F83C005123045D005D0068E82C00512211AD017
:202F2400058D821220F890002CE0FFBF6D03122CD690002CE0FFBF700312262990002CE0A7
:202F4400FFBF781990002BE4F0900026F0900027F0900028F0900029F090002AF090002C8B
:202F6400E0FFBF7902C28C90002CE0FFBF7A02D28C90002CE0FFBF630312210D90002CE016
:202F8400FFBF732174CAC0E07444C0E01232AD1581158190007375F00012238590007375EE
:202FA400F00012224C90002CE0FFBF640312249890002CE0FFBF67028003022DDF12216027
:202FC400022DDFC0E0C082C083C007C0D075D000758C4B758AFC90002AE02401F0E0FFBF8A
:202FE4000254900026E0FF24F6503A900027E02401F0E0FF24C45028900028E02401F0E0C6
:20300400FFBF3B17900029E02401F0E0FF24E85005900029E4F0900028E4F0900027E4F00A
:20302400900026E4F0900026E02401F090002AE4F090002B04F0D0D0D007D083D082D0E04E
:2030440032AF83E5829000A3F0EFA3F0E59820E11290002BE0FFBF01F390002BE4F012304E
:203064009880E99000A3E0FEA3E08E99C29990000022E59820E01290002BE0FFBF01F39017
:20308400002BE4F012309880E9C298AE997F008E828F832275825712211A900029E02430FE
:2030A400F5821220F875823A1220F8900028E0FF7E009000BA740AF0E4A3F08F828E831298
:2030C40034EAAE8274302EF5821220F8900028E0FF7E009000B1740AF0E4A3F08F828E83CE
:2030E4001233D6AE8274302EF5821220F875823A1220F8900027E0FF7E009000BA740AF0E7
:20310400E4A3F08F828E831234EAAE8274302EF5821220F8900027E0FF7E009000B1740A6C
:20312400F0E4A3F08F828E831233D6AE8274302EF5821220F875822E1220F8900026E0243B
:0631440030F5820220F8C4
:2043DE00000102030405060708090A0B0C0D0E0F404142434445464748494A4B4C4D4E4FCF
:2043FE00101112131415161718191A1B1C1D1E1F505152535455565758595A5B5C5D5E5FAF
:20441E000A0D456E7465722074686520726F77206E756D6265722066726F6D203020746FC0
:20443E0020320A0D000A0D456E746572656420526F7720697320696E636F72726563740AD0
:20445E000D000A0D456E7465722074686520636F6C756D6E206E756D6265722066726F6D90
:20447E00203020746F2031350A0D000A0D456E746572656420436F6C756D6E20697320693D
:20449E006E636F72726563740A0D002564202564202564000A0D456E746572207468652016
:2044BE006368617261637465720A0D000A0D456E7465722074686520737472696E670A0DD6
:0144DE0000DD
:06204000E478FFF6D8FD74
:20314A00AC82AD839000A6E0FEA3E0FFBE000360121F0F9000A5E08C828D83123292A3DE86
:08316A00FADFF88C828D83224C
:20317200AFF0AE83E5829000A8F0EEA3F0EFA3F09000ABE4F0A3F09000A8E0FDA3E0FEA300
:20319200E0FF8D828E838FF0124059FCBC20028003BC09120DBD00010E9000A8EDF0EEA341
:2031B200F0EFA3F080DC9000A8EDF0EEA3F0EFA3F08D828E838FF0124059FC9000ADE4BCF4
:2031D2002D0104F0BC2D028003BC2B0E9000A874012DF0E43EA3F0EFA3F09000A8E0FDA39F
:2031F200E0FEA3E0FF8D828E838FF0124059FCBC3000405DEC24C640589000ABE0FBA3E087
:20321200FC9000AFEBF0ECA3F090000AC007C006C0051233B6AB82AC83D005D006D0078DB5
:20323200828E838FF0124059FAA3AD82AE839000A8EDF0EEA3F0EFA3F08A017A00E924D0C8
:20325200F9EA34FFFA9000ABE92BF0EA3CA3F080949000A8EDF0EEA3F0EFA3F09000ADE00B
:2032720060119000ABE0FEA3E0FFC3E49EFEE49FFF80089000ABE0FEA3E0FF8E828F832204
:20201E007900E94400601B7A009044EA78FC75A000E493F2A308B8000205A0D9F4DAF2753F
:02203E00A0FF01
:1B32920020F71130F6138883A88220F509F6A8837583002280FEF280F5F0223B
:2032AD00C00D85810DE50D24FDF8868318868218E493A324DB600C2425600512339B80F052
:2032CD000233B3D2D5E493A3C083C082B4731486F0188683188682181240596054A3123362
:2032ED009B80F5B4630818E61812339B8043B46417E630E74618E6F42401F608E6F4340044
:20330D00F6742D12339B8033B4782D868318868218E412338CE58312338BE58312338CE5D1
:20332D008212338BE58212338C30D505743012339BD082D0830232BDB475F6E6FA18E6F9DC
:20334D00187C107D27123376FF7CE87D03123376C4F5837C647D001233764283E975F00A4E
:20336D0084C445F0F582EF80A97B000BC3E99CF9EA9DFA50F61BE92CF9EA3DFAEB22C45437
:20338D000F700320D51FC2D52490D43440D4C083C082C0F0F582E8C0E0123045D0E0F8D0F0
:0933AD00F0D082D08322D00D2261
:2033B600AA83AB828BF09000AFE0A4F8A9F08AF0E0A429F98BF0A3E0A429F583888222221D
:2033D600AF83E5829000B3F0EFA3F09000B3E0FEA3E0FF30E709C3E49EFCE49FFD80048EF3
:2033F600048F059000B1E0FEA3E0FF30E709C3E49EFAE49FFB80048E028F039000B5EAF0DC
:20341600EBA3F08C828D8312343EAE82AF839000B3E0A3E030E70CC3E49EFCE49FFD8C827C
:083436008D83228E828F832218
:20343E00AF83E5829000B7F0EFA3F09000B9E4F09000B7E0FEA3E0FF7D009000B5E0FBA318
:20345E00E0FC235401FA7036EB2BFBEC33FC9000B5EBF0ECA3F09000B5E0FBA3E0FCC3EE3F
:20347E009BEF9C5011ECC313CB13CBFC9000B5EBF0ECA3F080080D9000B9EDF080BC90001A
:20349E00B9E0FF9000B7E0FDA3E0FE9000B5E0FBA3E0FCC3ED9BEE9C400B9000B7EDC39B80
:2034BE00F0EE9CA3F09000B5E0FDA3E0C313CD13CDFE9000B5EDF0EEA3F08F061FEE70C343
:0C34DE009000B7E0FEA3E08E82F5832290
:202046007800E84400600A790175A000E4F309D8FC78FBE84400600C7901900001E4F0A39C
:04206600D8FCD9FACF
:2034EA00AF83E5829000BCF0EFA3F09000BCE0FEA3E0FF30E709C3E49EFCE49FFD80048ECC
:20350A00048F059000BAE0FEA3E0FF33E433FB6009C3E49EF9E49FFA80048E018F029000C2
:20352A00BEE9F0EAA3F08C828D83C00312355CAE82AF83D0039000BCE0A3E033E4336B60F0
:12354A000CC3E49EFCE49FFD8C828D83228E828F83221E
:20355C00AF83E5829000C0F0EFA3F09000C2E4F0A3F09000BEE0FEA3E0FF7D109000C0E0D0
:20357C00FBA3E0FC9000C4235401F0EB2BFBEC33FC9000C0EBF0ECA3F09000C2E0FBA3E073
:20359C00FCEB2BFBEC33FC9000C2EBF0ECA3F09000C4E060089000C2E043E001F09000C207
:2035BC00E0FBA3E0FCC3EB9EEC9F40139000C2EBC39EF0EC9FA3F09000C0E043E001F0DD9E
:0D35DC009B9000C0E0FEA3E08E82F58322EC
:2035E900C00D85810D7E008E83123045D00D22AFF0AE83E5829000C6F0EEA3F0EFA3F090BD
:2036090000C6E0FDA3E0FEA3E0FF9000C5E0FC9000DAE4F0A3F0A3F09000DDEDF0EEA3F09B
:20362900EFA3F09000E0ECF09035E9023740C00DE581F50D24FBFF9000DAE4F0A3F0A3F0D5
:20364900E50D24FBF89000DDE6F008E6A3F008E6A3F09000E0EFF09035E9123740D00D228E
:20366900E5829000D6F0E0FF9000CCE0C0E0A3E0C0E0A3E0C0E0123684800D9000CAE0C030
:20368900E0A3E0C0E08F82221581158115819000D4E02401F0A3E03400F022E5829000D739
:2036A900F0E02430FF24C6500D74072FFF9000C9E060034307208F82023669E5829000D867
:2036C900F0E0FFC4540FF582C0071236A4D00753070F8F820236A4E5829000D9F09000CF75
:2036E900E0FCA3E0FDA3E0FEA3E0FF9000D3E0FB7518209000D9E0F98B00E828F8EF23543C
:203709000148FBEC2CFCED33FDEE33FEEF33FFC3EB994007EBC399FB430401E51814FA8A3E
:203729001870D59000CFECF0EDA3F0EEA3F0EFA3F09000D3EBF022AF83E5829000E1F0EF1C
:20374900A3F09000E1E0FEA3E0FF9000CAEEF0EFA3F09000DAE0FDA3E0FEA3E0FF9000CC9C
:20376900EDF0EEA3F0EFA3F09000D4E4F0A3F09000DDE0FDA3E0FEA3E0FF8D828E838FF0A9
:20378900124059FC9000DD74012DF0E43EA3F0EFA3F0EC7003024035BC2502800302402D98
:2037A9009000E3E4F09000E4F09000E5F09000E6F09000E7F09000E8F09000E9F09000EAD8
:2037C900F09000ECF09000EDF0A3F09000EF14F0A3F09000DDE0FDA3E0FEA3E0FF8D828E84
:2037E900838FF0124059FBA3AD82AE839000DDEDF0EEA3F0EFA3F09000F3EBF0BB25088BF7
:2038090082123669023778BB300050030238D9EB24C650030238D99000EFE0F50EA3E0F555
:203829000F74FFB50E63B50F60C005C006C0079000EDE0FAA3E0FF9000AFEAF0EFA3F0905D
:20384900000AC005C0031233B6AE82AF83D003D0058B027D00EA2EFEED3FFFEE24D0FEEFAE
:2038690034FFFF9000EDEEF0EFA3F0D007D006D0059000EDE0F5F0A3E045F060030237E632
:203889009000E47401F00237E6C005C006C0079000AFE50EF0E50FA3F090000AC006C00507
:2038A900C0031233B6AA82AF83D003D005D0067E00EB2AFAEE3FFFEA24D0FAEF34FFFF9023
:2038C90000EFEAF0EFA3F0D007D006D0050237E69000F3E0FBBB2E2FC005C006C00790009B
:2038E900EFE0FAA3E0FFBAFF05BFFF028009D007D006D0050237E6D007D006D0059000EFCB
:20390900E4F0A3F00237E6BB61004014EB2485400F9000F374DF5BF09000C97401F0800561
:203929009000C9E4F09000F3E0FBBB20028075BB2B028067BB2D028059BB4202806FBB43A3
:2039490002807CBB4403023BD0BB4603023BF6BB48030237E6BB4903023BD0BB4A030237A0
:20396900E6BB4C028050BB4F03023BDEBB5003023B3EBB53028077BB54030237E6BB550383
:20398900023BE6BB5803023BEEBB5A030237E6023BFE9000E37401F00237E69000E5740167
:2039A900F00237E69000E67401F00237E69000E87401F00237E69000E97401F00237E6906C
:2039C90000E8E0600E9000E0E014F9F09000F3E7F0800F9000E0E024FEFFF08F019000F3FE
:2039E900E7F09000F3E0F582123669023C0D9000E0E024FDFFF08F01870509870609870768
:203A090019199000CFEDF0EEA3F0EFA3F08D828E838FF012404185820E85830F9000EFE06F
:203A2900FAA3E0FDBAFF0DBDFF0A9000EFE50EF0E50FA3F09000E3E0704B9000EDE0FAA386
:203A4900E0FDC3E50E9AE50F9D503A9000EDEAC3950EF0ED950FA3F09000EDE0FAA3E0FD5D
:203A69008A068D071ABAFF011DEE4F6010758220C005C002123669D002D00580E39000EDA5
:203A8900EAF0EDA3F09000EFE0F511A3E0F5129000CFE0FAA3E0FDA3E0FF8A828D838FF0FE
:203AA900124059F510603CC3E4951174808512F063F08095F0502C151174FFB5110215128D
:203AC9008510821236699000CFE0FAA3E0FDA3E0FF0ABA00010D9000CFEAF0EDA3F0EFA3BD
:203AE900F080AC9000E3E07003023C0D9000EDE0FEA3E0FFC3E50E9EE50F9F4003023C0D3E
:203B09009000EDEEC3950EF0EF950FA3F09000EDE0FEA3E0FF8E028F051EBEFF011FEA4D82
:203B29007003023C05758220C007C006123669D006D00780E09000E0E024FDFDF08D0187F1
:203B49001309871409871519199000CFE513F0E514A3F0E515A3F09000D1E0FDBD800040B3
:203B6900089000F37443F08020BD600040089000F37450F08013BD400040089000F37449B6
:203B8900F080069000F37458F09000F3E0FDF582C00512366975823A1236697582301236C9
:203BA90069758278123669D005BD4902800EBD500280099000D0E0F5821236C49000CFE06E
:203BC900F5821236C4803D9000E77401F09000EC740AF0802F9000EC7408F080279000EC1C
:203BE900740AF0801F9000EC7410F080179000EA7401F0800F8B8212366980089000EDEE09
:203C0900F0EFA3F09000EAE060719000E0E024FCFFF08F01870309870509870609870719AA
:203C290019199000CFEBF0EDA3F0EEA3F0EFA3F09000CF74DFF07444A3F07480A3F0900088
:203C4900CFE0F513A3E0F514A3E0F51574012513FAE43514FBAF159000CFEAF0EBA3F0EF52
:203C6900A3F08513828514838515F0124059FF70030237788F8212366980C39000ECE07049
:203C8900030237789000E8E060479000E0E014F9F087077E007D007B009000CFEFF0EEA348
:203CA900F0EDA3F0EBA3F09000E7E06003023D509000CFE0FBA3E0A3E0A3E07D007E007F87
:203CC900009000CFEBF0EDA3F0EEA3F0EFA3F080769000E9E060289000E0E024FCFFF08F59
:203CE9000187030987050987060987071919199000CFEBF0EDA3F0EEA3F0EFA3F08048900E
:203D090000E0E024FEFFF08F01870609870719EF3395E0FDFB9000CFEEF0EFA3F0EDA3F02E
:203D2900EBA3F09000E7E0701E9000CFE0FBA3E0FDA3E0A3E07E007F009000CFEBF0EDA390
:203D4900F0EEA3F0EFA3F09000E7E060419000CFE0FBA3E0FDA3E0FEA3E0FF30E72B9000E0
:203D6900CFE0FBA3E0FDA3E0FEA3E0FFC3E49BFBE49DFDE49EFEE49FFF9000CFEBF0EDA386
:203D8900F0EEA3F0EFA3F080059000E7E4F09000EB7401F09000ECE0F5117516F975170005
:203DA900E4F50EF50F9000D3E4F08511821236E09000EBE070269000D3E0C4F5138516827B
:203DC900851783E0FFE5134207851682851783EFF0151674FFB516021517800C9000D3E01A
:203DE900FF851682851783F0050EE4B50E02050F9000EBE0B40100E433F09000CFE0FAA3CC
:203E0900E0FBA3E0FEA3E0FFEA4B4E4F70979000FAE516F0E517A3F09000F1E50EF0E50F86
:203E2900A3F09000EDE0F5F0A3E045F070099000ED7401F0E4A3F09000E4E0FFE0704790A0
:203E490000E3E07041850E16850F179000EDE0FAA3E0FBC007AF160F8F067F00C3EE9AEFD3
:203E69009BD0075019758220C007C003C002123669D002D003D0071ABAFF011B80D59000FA
:203E8900EDEAF0EBA3F09000E7E0602075822DC007123669D0079000EDE024FFFDA3E03456
:203EA900FFFE9000EDEDF0EEA3F080569000F1E0F5F0A3E045F0604A9000E5E060207582D7
:203EC9002BC007123669D0079000EDE024FFFDA3E034FFFE9000EDEDF0EEA3F0802490001F
:203EE900E6E0601E758220C007123669D0079000EDE024FFFDA3E034FFFE9000EDEDF0EE96
:203F0900A3F09000E3E070489000F1E0F516A3E0F5179000EDE0FAA3E0FBC0078A068B0741
:203F29001ABAFF011BC3E5169EE5179FD0075053EF60067D307E0080047D207E008D82C02A
:203F490007C003C002123669D002D003D00780CA9000EDE0FEA3E0FF9000F1E0F516A3E089
:203F6900F517C3E5169EE5179F500F9000EDEEC39516F0EF9517A3F080119000EDE4F0A35A
:203F8900F080089000EDEAF0EBA3F09000FAE0FEA3E0FF9000F1E0F516A3E0F517AA16AD79
:203FA90017151674FFB516021517EA4D60459000EBE0B40100E433F09000EBE070140EBEAC
:203FC90000010F8E828F83E0C4540FFD9000D3F0800E8E828F83E0FD53050F9000D3EDF01B
:203FE9009000D3E0F582C007C0061236A4D006D00780AA9000E3E070030237789000EDE0DA
:20400900FEA3E0FF8E038F051EBEFF011FEB4D7003023778758220C007C006123669D00670
:18402900D00780E08C821236690237789000D4E0FEA3E08E82F5832269
:0B44DF003C4E4F20464C4F41543E0025
:18404100AA82AB831240596003A380F8C3E5829AF582E5839BF583220C
:0D201100758118124075E582600302200EF3
:1C40590020F71430F6148883A88220F507E6A88375830022E280F7E49322E02276
:04407500758200222E
:00000001FF
