:20206D007EE87F031EBEFF011FEE4F70F722438901758C4B758AFCD28CD2AFD2A92290F298
:20208D0000E0FEA3E0EE20E7F52212206D90F0007430F0E4A3F012206D90F0007430F0E405
:2020AD00A3F012206D90F0007430F0E4A3F012208B90F0007438F0E4A3F012208B90F000C9
:2020CD007408F0E4A3F012208B90F000740CF0E4A3F012208B90F0007406F0E4A3F012209C
:2020ED008B90F0007401F0E4A3F022E582900001F012208B900001E090F100F0E4A3F022AA
:20210D0012208B90F0007401F0E4A3F022E582900002F012208B900002E0FF7E0090F00062
:20212D0074804FF0EEA3F022E582900004F012208B900004E075F010A42497FE744435F0F1
:20214D00FF900003E02EF582E43FF583E493F58202211A12208B90F0007450F0E4A3F0121B
:20216D00208B74D7C0E07444C0E01234D71581158190000575F0001225F090000575F00000
:20218D00122D26AE82AF839000A5E4F09000A67408F0E4A3F090000575F000C007C00612B0
:2021AD003374D006D00790F100EEF0E4A3F012208B90F0007451F0E4A3F012208B74F1C09D
:2021CD00E07444C0E01234D71581158190000575F0001225F090000575F00012339C122C37
:2021ED00D590000575F000122D26AE82AF839000A5E4F09000A67408F0E4A3F09000057510
:20220D00F000C007C006123374D006D00790F100EEF0E4A3F012208B90F0007452F0E4A37E
:20222D00F012208B740BC0E07445C0E01234D71581158190000575F0001225F090000575F8
:20224D00F00012339C122CD590000575F000122D26AE82AF839000A5E4F09000A67408F021
:20226D00E4A3F090000575F000C007C006123374D006D00790F100EEF0E4A3F012208B90CA
:20228D00F0007453F0E4A3F012208B7425C0E07445C0E01234D71581158190000575F00081
:2022AD001225F090000575F000122D26AE82AF839000A5E4F09000A67408F0E4A3F0900077
:2022CD000575F000C007C006123374D006D00790F100EEF0E4A3F012208B90F0007454F0C9
:2022ED00E4A3F012208B743FC0E07445C0E01234D71581158190000575F0001225F09000F7
:20230D000575F000122D26AE82AF839000A5E4F09000A67408F0E4A3F090000575F000C0A3
:20232D0007C006123374D006D00790F100EEF0E4A3F012208B90F0007455F0E4A3F01220E8
:20234D008B7459C0E07445C0E01234D71581158190000575F0001225F090000575F00012A9
:20236D002D26AE82AF839000A5E4F09000A67408F0E4A3F090000575F000C007C0061233AD
:20238D0074D006D00790F100EEF0E4A3F012208B90F0007456F0E4A3F012208B7473C0E087
:2023AD007445C0E01234D71581158190000575F0001225F090000575F000122D26AE82AF0F
:2023CD00839000A5E4F09000A67408F0E4A3F090000575F000C007C006123374D006D0075E
:2023ED0090F100EEF0E4A3F012208B90F0007457F0E4A3F012208B748DC0E07445C0E012C2
:20240D0034D71581158190000575F0001225F090000575F000122D26AE82AF839000A5E47D
:20242D00F09000A67408F0E4A3F090000575F000C007C006123374D006D00790F100EEF03A
:20244D00E4A3F012208B9000037401F075820312213512208B90F0007481F0E4A3F0122016
:20246D008B90F1007401F0E4A3F02212208B90F300E0FEA3E08E8222AFF0AE83E5829000AB
:20248D000DF0EEA3F0EFA3F0900010E4F0A3F090000DE0F50AA3E0F50BA3E0F50CAA0AAB46
:2024AD000BAC0C780079008806E9C454F0CEC4CE6ECE54F0CE6EFF900010E0F508A3E0F5CC
:2024CD0009EE2508FEEF3509FFEE2AFEEF3BFF8C058E828F838DF0124283700122C004C044
:2024ED0003C002C001C00012208BD000D001D002D003D004C3740F950874808509F063F00A
:20250D008095F0500C08B8000109900010E4F0A3F0C002C003C0048803E9C454F0CBC4CB5D
:20252D006BCB54F0CB6BFCEB2497FAEC3444FF900010E0FDA3E0FEED2AF508EE3FF509851D
:20254D000882850983E493F582C006C005C004C003C002C001C00012211AD000D001D002D0
:20256D00850882850983E493FF7A00C002C001C000C007C00274A7C0E07445C0E01234D741
:20258D00E58124FCF581D000D001D002D003D004D005D006EB2DFBEC3EFCEB250AFBEC35FE
:2025AD000BFCAF0C8B828C838FF0124283FBF582C006C005C004C003C002C001C0001220E1
:2025CD00F8D000D001D002D003D004D005D00690001074012DF0E43EA3F0D004D003D002D1
:2025ED000224B4AFF0AE83E582900012F0EEA3F0EFA3F0900015E4F0A3F01232A0AE82AF59
:20260D0083BE0802800DBE0A028062BE0D02805D0226A2900015E0FDA3E0FF900015E0F537
:20262D00F0A3E045F070030226DA900008C007C00512326F90002012326F90000812326FEB
:20264D00D005D007900012E024FFFAA3E034FFFBA3E0FC900012EAF0EBA3F0ECA3F01DBD9F
:20266D00FF011F900015EDF0EFA3F0806090000D12326F90000A12326F900012E0FCA3E0AC
:20268D00FDA3E0FF8C828D838FF0E41234BC8C828D838FF022900012E0FCA3E0FDA3E0FFEC
:2026AD008C828D838FF0EE1234BC90001274012CF0E43DA3F0EFA3F0900015E02401F0A3DA
:2026CD00E03400F07F008E828F8312326F900015E0FEA3E0FFBE3005BF000280030226072A
:2026ED0074ACC0E07445C0E07480C0E01238611581158115812274D8C0E07445C0E0123406
:20270D00D715811581900017E4F0900017E0FFFD7E0090F00074804DF0EEA3F0C007C0066E
:20272D00C005122478AC82D005D006C006C005C004C005C00674EBC0E07445C0E07480C05A
:20274D00E0123861E58124FBF581D004D005D006D0078F027B0074102AFAE43BFBC3ED9A78
:20276D00EE64808BF063F08095F0503FC3ED9480EE6480948050348C027B00C007C006C094
:20278D0005C004C002C00374F1C0E07445C0E07480C0E0123861E58124FBF581D004D0059D
:2027AD00D006D0070DBD00AA0E80A774F6C0E07445C0E01234D715811581900017E024104F
:2027CD00F0E0FFBF8000500302271774F9C0E07445C0E01234D715811581900017E4F09091
:2027ED000017E0FFFD7E0090F00074404DF0EEA3F0C007C006C005122478AC82D005D00690
:20280D00C006C005C004C005C00674EBC0E07445C0E07480C0E0123861E58124FBF581D06F
:20282D0004D005D006D0078F027B0074102AFAE43BFBC3ED9AEE64808BF063F08095F050F8
:20284D003FC3ED9440EE6480948050348C027B00C007C006C005C004C002C00374F1C0E095
:20286D007445C0E07480C0E0123861E58124FBF581D004D005D006D0070DBD00AA0E80A7B9
:20288D0074F6C0E07445C0E01234D715811581900017E02410F0E0FFBF400050030227EC8E
:2028AD00229000187401F0E4A3F0122B1A122C0090449BE493F58212211A75822A1220F8DB
:2028CD0090449CE493F58212211A75822A1220F890449FE493F58212211A75822A1220F8FC
:2028ED009044A0E493F58212211A75822A1220F89044A3E493F58212211A75822A1220F8D4
:20290D009044A4E493F58212211A75822A1220F89044A5E493F58212211A75822A1220F8AD
:20292D009044A8E493F58212211A75822A1220F89044A9E493F58212211A75822A1220F885
:20294D009044AAE493F58212211A75822A1220F89044B3E493F58212211A75822A1220F859
:20296D009044B4E493F58212211A75822A1220F8740CC0E07446C0E01234D7158115811267
:20298D0032A0AE82AF83BE64028003022A3C900007C00612326FD006900018E0FDA3E0FFFA
:2029AD008D04EC1490449793F582C007C006C00512211A12208B7582201220F812208BD0DA
:2029CD0005D006D007ED2497F582EF3444F583E493FC7B0090F00074804CF0EBA3F0C00757
:2029ED00C006C00512208B90F100E4F0A3F012208BD005D006D007C3ED942FEF6480948001
:202A0D0040219044C6E493F582C00612211A12208B7582201220F812208BD006900018E490
:202A2D00F0A3F0900018E02401F0A3E03400F0900018E024FFFDA3E034FFFF900018EDF0E0
:202A4D00EFA3F0BE61028003022B06900007C00612326FD006900018E0FDA3E0FF8D04ECA6
:202A6D000490449793F582C007C006C00512211A12208B7582201220F812208BD005D006CB
:202A8D00D007ED2497F582EF3444F583E493FC7B0090F00074804CF0EBA3F0C007C006C0EB
:202AAD000512208B90F100E4F0A3F012208BD005D006D007C3E49D74808FF063F08095F011
:202ACD004023904497E493F582C00612211A12208B7582201220F812208BD006900018746D
:202AED002FF0E4A3F0900018E024FFFDA3E034FFFF900018EDF0EFA3F0900018E02401F032
:202B0D00A3E03400F0BE71012202298C2212208B90F0007440F0E4A3F012208B90F10074CC
:202B2D0006F0E4A3F012208B90F0007441F0E4A3F012208B90F1007409F0E4A3F012208BE3
:202B4D0090F0007442F0E4A3F012208B90F1007412F0E4A3F012208B90F0007443F0E4A335
:202B6D00F012208B90F1007414F0E4A3F012208B90F0007444F0E4A3F012208B90F100741D
:202B8D0014F0E4A3F012208B90F0007445F0E4A3F012208B90F1007412F0E4A3F012208B68
:202BAD0090F0007446F0E4A3F012208B90F1007409F0E4A3F012208B90F0007447F0E4A3D6
:202BCD00F012208B90F1007406F0E4A3F012208B9000037401F075820312213512208B9075
:202BED00F0007480F0E4A3F012208B90F100E4F0A3F02212208B90F0007470F0E4A3F0121C
:202C0D00208B90F100740CF0E4A3F012208B90F0007471F0E4A3F012208B90F1007412F057
:202C2D00E4A3F012208B90F0007472F0E4A3F012208B90F1007409F0E4A3F012208B90F027
:202C4D00007473F0E4A3F012208B90F1007405F0E4A3F012208B90F0007474F0E4A3F0125D
:202C6D00208B90F1007405F0E4A3F012208B90F0007475F0E4A3F012208B90F1007409F003
:202C8D00E4A3F012208B90F0007476F0E4A3F012208B90F1007412F0E4A3F012208B90F0BA
:202CAD00007477F0E4A3F012208B90F100740CF0E4A3F012208B9000037401F075820312CF
:202CCD00213512208B02208BAF83E58290001AF0EFA3F090001AE0FEA3E0FF4E603A9000F0
:202CED00B17402F0E4A3F08E828F83C007C00612360012326FD006D0079000BA7402F0E44E
:202D0D00A3F08E828F83123714E5828583F090001AF0E5F0A3F080BB22AFF0AE83E582900F
:202D2D00001CF0EEA3F0EFA3F090001CE0FDA3E0FEA3E0FF900022E4F0A3F08D828E838F23
:202D4D00F0124283FCBC20028003BC09070DBD00EA0E80E790001FEDF0EEA3F0EFA3F0BC02
:202D6D00302974012DFAE43EFB8F048A828B838CF0124283FCBC78028003BC580E90001FAE
:202D8D0074022DF0E43EA3F0EFA3F090001FE0FDA3E0FEA3E0FF8D828E838FF0124283FF58
:202DAD00BF30004005EF24C650047F0080027F01EFFD3395E0FEEF705C90001FE0FBA3E0CA
:202DCD00FCA3E0FF8B828C838FF0124283FFBF61004005EF249950047F0080027F01EFFC26
:202DED003395E0FF900024ECF0EFA3F0EC4F702590001FE0FBA3E0FCA3E0FF8B828C838F07
:202E0D00F0124283FFBF41005003022F14EF24B95003022F14900022E0FCA3E0C454F0CCFE
:202E2D00C4CC6CCC54F0CC6CFF900022ECF0EFA3F0ED4E604290001FE0FDA3E0FEA3E0FFC6
:202E4D008D828E838FF0124283FC90001F74012DF0E43EA3F0EFA3F07F00EC24D0FCEF34FD
:202E6D00FFFF900022E0FDA3E0FE900022EC2DF0EF3EA3F0022D98900024E0F5F0A3E045B4
:202E8D00F0604290001FE0FDA3E0FEA3E0FF8D828E838FF0124283FC90001F74012DF0E46D
:202EAD003EA3F0EFA3F07F0074A92CFC74FF3FFF900022E0FDA3E0FE900022EC2DF0EF3E45
:202ECD00A3F0022D9890001FE0FDA3E0FEA3E0FF8D828E838FF0124283FC90001F74012D39
:202EED00F0E43EA3F0EFA3F07F0074C92CFC74FF3FFF900022E0FDA3E0FE900022EC2DF03E
:202F0D00EF3EA3F0022D98900022E0FEA3E08E82F5832274A3C0E07442C0E07480C0E0744B
:202F2D005DC0E07446C0E07480C0E0123861E58124FAF58174F6C0E07445C0E07480C0E0FD
:202F4D001238611581158115817E007F009000AFEEF0EFA3F0900028C007C0061235E0AC43
:202F6D0082AD83EC24DFFCED3442FD7B80C004C005C003745DC0E07446C0E0EBC0E0123860
:202F8D0061E58124FAF58174F6C0E07445C0E01234D715811581D006D0070EBE00010FC3D1
:202FAD00EE940AEF6480948040A374A3C0E07442C0E07480C0E0745DC0E07446C0E074804E
:202FCD00C0E0123861E58124FAF58174F6C0E07445C0E07480C0E01238611581158115813B
:012FED0022C1
:2042A3000A0D2D2D2D2D2D2D2D2D2D2D2D2D2D2D2D2D2D2D2D2D2D2D2D2D2D2D2D2D2D2D9E
:2042C3002D2D2D2D2D2D2D2D2D2D2D2D2D2D2D2D2D2D2D0A0D0000000000000020456E7426
:2042E3006572207720746F2077726974652061206368617261637465722000000000000091
:204303000000000020456E746572207320746F207772697465206120737472696E67000063
:2043230000000000000000000000000020456E746572207020746F20706C6179207061639F
:204343006D616E200000000000000000000000000000000020456E746572206420746F2039
:20436300706572666F726D2052414D2064756D7020000000000000000000000020456E7402
:204383006572206720666F7220637573746F6D2063686172616374657200000000000000CD
:2043A3000000000020456E746572207820746F2072657365742074696D65720000000000BD
:2043C30000000000000000000000000020456E746572207920746F207061757365207469E5
:2043E3006D6572000000000000000000000000000000000020456E746572207A20746F209B
:20440300726573756D652074696D65720000000000000000000000000000000020456E7480
:204423006572207320746F20636C6561722073637265656E00000000000000000000000045
:204443000000000020456E746572206D20666F72206D61696E206D656E752000000000008D
:20446300000000000000000000000000000000000000000000000000000000000000000039
:204483000000000000000000000000000000000000000000000102030405060708090A0BD7
:2044A3000C0D0E0F404142434445464748494A4B4C4D4E4F101112131415161718191A1B49
:2044C3001C1D1E1F505152535455565758595A5B5C5D5E5F0A0D456E7465722076616C75FE
:2044E3006520666F7220526F7720310A0D000A0D456E7465722076616C756520666F722054
:20450300526F7720320A0D000A0D456E7465722076616C756520666F7220526F7720330A89
:204523000D000A0D456E7465722076616C756520666F7220526F7720340A0D000A0D456E25
:204543007465722076616C756520666F7220526F7720350A0D000A0D456E74657220766199
:204563006C756520666F7220526F7720360A0D000A0D456E7465722076616C756520666F7F
:204583007220526F7720370A0D000A0D456E7465722076616C756520666F7220526F7720AF
:2045A300380A0D0025640A0D000A0D506C6561736520496E7075742061206D6178696D7536
:2045C3006D206F6620343820636861726163746572730A0D000A0D444452414D20436F6ED4
:2045E30074656E74730A0D002532783A200025327820000A0D000A0D434752414D20436FF1
:204603006E74656E74730A0D000A0D456E746572207720746F20676F2075702C20732074E7
:204623006F20676F20646F776E2C206120746F20676F206C65667420616E64206420746FEF
:1D46430020676F20726967687420616E64207120746F20717569740A0D00257300AD
:042000000220113277
:03200B000231F1AE
:03206A0002200E43
:03200E00022FEEB0
:202FEE0090002BE4F0900026F0900027F0900028F0900029F090002AF09000A5F09000A691
:20300E00743CF0E4A3F090002D75F00012337412209712210D122F2012207B1232A0AE8285
:20302E0090002CEEF090002BE0FFBF010890002BE4F01232C290002CE0FFBF770280030299
:20304E0031549000A5E4F09000A6740AF0E4A3F090006975F00012337474A0C0E07446C074
:20306E00E01234D7158115811232A0AE828E057F008D828F83C00612326FD006EE24D0FFA2
:20308E0024FD501474C5C0E07446C0E01234D715811581122F208083C00774E2C0E0744646
:2030AE00C0E01234D71581158190006975F0001225F090006975F00012339CAD82D007ED62
:2030CE0024F05015740BC0E07447C0E01234D715811581122F20023029EF75F010A424605E
:2030EE00FC744635F0FEED2CF582E43EF583E493FEFB7C007A008F017F00C006C003C004FD
:20310E00C005C002C001C007742BC0E07447C0E07480C0E0123861E58124F7F581D0068E5E
:20312E008212211A12208B7434C0E07447C0E01234D7158115811232A07F008F8312326FE1
:20314E007582301220F890002CE0FFBF6D03122F2090002CE0FFBF70031228AE90002CE094
:20316E00FFBF781990002BE4F0900026F0900027F0900028F0900029F090002AF090002C5F
:20318E00E0FFBF7902C28C90002CE0FFBF7A02D28C90002CE0FFBF630312210D90002CE0EA
:2031AE00FFBF7321744CC0E07447C0E01234D71581158190007375F0001225F090007375A4
:2031CE00F00012248590002CE0FFBF640312270390002CE0FFBF6702800302302912216005
:2031EE00023029C0E0C082C083C007C0D075D000758C4B758AFC90002AE02401F0E0FFBF11
:20320E000254900026E0FF24F6503A900027E02401F0E0FF24C45028900028E02401F0E099
:20322E00FFBF3B17900029E02401F0E0FF24E85005900029E4F0900028E4F0900027E4F0DE
:20324E00900026E4F0900026E02401F090002AE4F090002B04F0D0D0D007D083D082D0E022
:20326E0032AF83E5829000A3F0EFA3F0E59820E11290002BE0FFBF01F390002BE4F0123220
:20328E00C280E99000A3E0FEA3E08E99C29990000022E59820E01290002BE0FFBF01F390C1
:2032AE00002BE4F01232C280E9C298AE997F008E828F832275825712211A900029E02430A6
:2032CE00F5821220F875823A1220F8900028E0FF7E009000BA740AF0E4A3F08F828E83126C
:2032EE003714AE8274302EF5821220F8900028E0FF7E009000B1740AF0E4A3F08F828E8375
:20330E00123600AE8274302EF5821220F875823A1220F8900027E0FF7E009000BA740AF08D
:20332E00E4A3F08F828E83123714AE8274302EF5821220F8900027E0FF7E009000B1740A13
:20334E00F0E4A3F08F828E83123600AE8274302EF5821220F875822E1220F8900026E024E2
:06336E0030F5820220F898
:20466000000102030405060708090A0B0C0D0E0F404142434445464748494A4B4C4D4E4F4A
:20468000101112131415161718191A1B1C1D1E1F505152535455565758595A5B5C5D5E5F2A
:2046A0000A0D456E7465722074686520726F77206E756D6265722066726F6D203020746F3C
:2046C00020320A0D000A0D456E746572656420526F7720697320696E636F72726563740A4C
:2046E0000D000A0D456E7465722074686520636F6C756D6E206E756D6265722066726F6D0C
:20470000203020746F2031350A0D000A0D456E746572656420436F6C756D6E2069732069B8
:204720006E636F72726563740A0D002564202564202564000A0D456E746572207468652091
:204740006368617261637465720A0D000A0D456E7465722074686520737472696E670A0D51
:014760000058
:06204000E478FFF6D8FD74
:20337400AC82AD839000A6E0FEA3E0FFBE000360121F0F9000A5E08C828D831234BCA3DE2E
:08339400FADFF88C828D832220
:20201E007900E94400601B7A0090476C78FC75A000E493F2A308B8000205A0D9F4DAF275BA
:02203E00A0FF01
:20339C00AFF0AE83E5829000A8F0EEA3F0EFA3F09000ABE4F0A3F09000A8E0FDA3E0FEA3D4
:2033BC00E0FF8D828E838FF0124283FCBC20028003BC09120DBD00010E9000A8EDF0EEA3E9
:2033DC00F0EFA3F080DC9000A8EDF0EEA3F0EFA3F08D828E838FF0124283FC9000ADE4BC9C
:2033FC002D0104F0BC2D028003BC2B0E9000A874012DF0E43EA3F0EFA3F09000A8E0FDA373
:20341C00E0FEA3E0FF8D828E838FF0124283FCBC3000405DEC24C640589000ABE0FBA3E02E
:20343C00FC9000AFEBF0ECA3F090000AC007C006C0051235E0AB82AC83D005D006D0078D5D
:20345C00828E838FF0124283FAA3AD82AE839000A8EDF0EEA3F0EFA3F08A017A00E924D070
:20347C00F9EA34FFFA9000ABE92BF0EA3CA3F080949000A8EDF0EEA3F0EFA3F09000ADE0DF
:20349C0060119000ABE0FEA3E0FFC3E49EFEE49FFF80089000ABE0FEA3E0FF8E828F8322D8
:1B34BC0020F71130F6138883A88220F509F6A8837583002280FEF280F5F0220F
:2034D700C00D85810DE50D24FDF8868318868218E493A324DB600C242560051235C580F0FA
:2034F7000235DDD2D5E493A3C083C082B4731486F0188683188682181242836054A31235DC
:20351700C580F5B4630818E6181235C58043B46417E630E74618E6F42401F608E6F43400C1
:20353700F6742D1235C58033B4782D868318868218E41235B6E5831235B5E5831235B6E5F5
:20355700821235B5E5821235B630D50574301235C5D082D0830234E7B475F6E6FA18E6F900
:20357700187C107D271235A0FF7CE87D031235A0C4F5837C647D001235A04283E975F00A9E
:2035970084C445F0F582EF80A97B000BC3E99CF9EA9DFA50F61BE92CF9EA3DFAEB22C4540B
:2035B7000F700320D51FC2D52490D43440D4C083C082C0F0F582E8C0E012326FD0E0F8D098
:0935D700F0D082D08322D00D2235
:2035E000AA83AB828BF09000AFE0A4F8A9F08AF0E0A429F98BF0A3E0A429F58388822222F1
:20360000AF83E5829000B3F0EFA3F09000B3E0FEA3E0FF30E709C3E49EFCE49FFD80048EC6
:20362000048F059000B1E0FEA3E0FF30E709C3E49EFAE49FFB80048E028F039000B5EAF0AF
:20364000EBA3F08C828D83123668AE82AF839000B3E0A3E030E70CC3E49EFCE49FFD8C8224
:083660008D83228E828F8322EC
:20366800AF83E5829000B7F0EFA3F09000B9E4F09000B7E0FEA3E0FF7D009000B5E0FBA3EC
:20368800E0FC235401FA7036EB2BFBEC33FC9000B5EBF0ECA3F09000B5E0FBA3E0FCC3EE13
:2036A8009BEF9C5011ECC313CB13CBFC9000B5EBF0ECA3F080080D9000B9EDF080BC9000EE
:2036C800B9E0FF9000B7E0FDA3E0FE9000B5E0FBA3E0FCC3ED9BEE9C400B9000B7EDC39B54
:2036E800F0EE9CA3F09000B5E0FDA3E0C313CD13CDFE9000B5EDF0EEA3F08F061FEE70C317
:0C3708009000B7E0FEA3E08E82F5832263
:202046007800E84400600A790175A000E4F309D8FC78FBE84400600C7901900001E4F0A39C
:04206600D8FCD9FACF
:20371400AF83E5829000BCF0EFA3F09000BCE0FEA3E0FF30E709C3E49EFCE49FFD80048E9F
:20373400048F059000BAE0FEA3E0FF33E433FB6009C3E49EF9E49FFA80048E018F02900096
:20375400BEE9F0EAA3F08C828D83C003123786AE82AF83D0039000BCE0A3E033E4336B6098
:123774000CC3E49EFCE49FFD8C828D83228E828F8322F2
:20378600AF83E5829000C0F0EFA3F09000C2E4F0A3F09000BEE0FEA3E0FF7D109000C0E0A4
:2037A600FBA3E0FC9000C4235401F0EB2BFBEC33FC9000C0EBF0ECA3F09000C2E0FBA3E047
:2037C600FCEB2BFBEC33FC9000C2EBF0ECA3F09000C4E060089000C2E043E001F09000C2DB
:2037E600E0FBA3E0FCC3EB9EEC9F40139000C2EBC39EF0EC9FA3F09000C0E043E001F0DD72
:0D3806009B9000C0E0FEA3E08E82F58322BF
:20381300C00D85810D7E008E8312326FD00D22AFF0AE83E5829000C6F0EEA3F0EFA3F09064
:2038330000C6E0FDA3E0FEA3E0FF9000C5E0FC9000DAE4F0A3F0A3F09000DDEDF0EEA3F06F
:20385300EFA3F09000E0ECF090381302396AC00DE581F50D24FBFF9000DAE4F0A3F0A3F050
:20387300E50D24FBF89000DDE6F008E6A3F008E6A3F09000E0EFF090381312396AD00D2209
:20389300E5829000D6F0E0FF9000CCE0C0E0A3E0C0E0A3E0C0E01238AE800D9000CAE0C0D8
:2038B300E0A3E0C0E08F82221581158115819000D4E02401F0A3E03400F022E5829000D70D
:2038D300F0E02430FF24C6500D74072FFF9000C9E060034307208F82023893E5829000D80F
:2038F300F0E0FFC4540FF582C0071238CED00753070F8F820238CEE5829000D9F09000CFF1
:20391300E0FCA3E0FDA3E0FEA3E0FF9000D3E0FB7518209000D9E0F98B00E828F8EF23540F
:203933000148FBEC2CFCED33FDEE33FEEF33FFC3EB994007EBC399FB430401E51814FA8A12
:203953001870D59000CFECF0EDA3F0EEA3F0EFA3F09000D3EBF022AF83E5829000E1F0EFF0
:20397300A3F09000E1E0FEA3E0FF9000CAEEF0EFA3F09000DAE0FDA3E0FEA3E0FF9000CC70
:20399300EDF0EEA3F0EFA3F09000D4E4F0A3F09000DDE0FDA3E0FEA3E0FF8D828E838FF07D
:2039B300124283FC9000DD74012DF0E43EA3F0EFA3F0EC700302425FBC25028003024257E8
:2039D3009000E3E4F09000E4F09000E5F09000E6F09000E7F09000E8F09000E9F09000EAAC
:2039F300F09000ECF09000EDF0A3F09000EF14F0A3F09000DDE0FDA3E0FEA3E0FF8D828E58
:203A1300838FF0124283FBA3AD82AE839000DDEDF0EEA3F0EFA3F09000F3EBF0BB25088B9E
:203A3300821238930239A2BB30005003023B03EB24C65003023B039000EFE0F50EA3E0F577
:203A53000F74FFB50E63B50F60C005C006C0079000EDE0FAA3E0FF9000AFEAF0EFA3F09031
:203A7300000AC005C0031235E0AE82AF83D003D0058B027D00EA2EFEED3FFFEE24D0FEEF56
:203A930034FFFF9000EDEEF0EFA3F0D007D006D0059000EDE0F5F0A3E045F06003023A10D9
:203AB3009000E47401F0023A10C005C006C0079000AFE50EF0E50FA3F090000AC006C005AE
:203AD300C0031235E0AA82AF83D003D005D0067E00EB2AFAEE3FFFEA24D0FAEF34FFFF90CB
:203AF30000EFEAF0EFA3F0D007D006D005023A109000F3E0FBBB2E2FC005C006C007900042
:203B1300EFE0FAA3E0FFBAFF05BFFF028009D007D006D005023A10D007D006D0059000EF71
:203B3300E4F0A3F0023A10BB61004014EB2485400F9000F374DF5BF09000C97401F0800508
:203B53009000C9E4F09000F3E0FBBB20028075BB2B028067BB2D028059BB4202806FBB4377
:203B730002807CBB4403023DFABB4603023E20BB4803023A10BB4903023DFABB4A03023ABF
:203B930010BB4C028050BB4F03023E08BB5003023D68BB53028077BB5403023A10BB5503A7
:203BB300023E10BB5803023E18BB5A03023A10023E289000E37401F0023A109000E574015A
:203BD300F0023A109000E67401F0023A109000E87401F0023A109000E97401F0023A10908C
:203BF30000E8E0600E9000E0E014F9F09000F3E7F0800F9000E0E024FEFFF08F019000F3D2
:203C1300E7F09000F3E0F582123893023E379000E0E024FDFFF08F018705098706098707E3
:203C330019199000CFEDF0EEA3F0EFA3F08D828E838FF012426B85820E85830F9000EFE017
:203C5300FAA3E0FDBAFF0DBDFF0A9000EFE50EF0E50FA3F09000E3E0704B9000EDE0FAA35A
:203C7300E0FDC3E50E9AE50F9D503A9000EDEAC3950EF0ED950FA3F09000EDE0FAA3E0FD31
:203C93008A068D071ABAFF011DEE4F6010758220C005C002123893D002D00580E39000ED4D
:203CB300EAF0EDA3F09000EFE0F511A3E0F5129000CFE0FAA3E0FDA3E0FF8A828D838FF0D2
:203CD300124283F510603CC3E4951174808512F063F08095F0502C151174FFB51102151235
:203CF3008510821238939000CFE0FAA3E0FDA3E0FF0ABA00010D9000CFEAF0EDA3F0EFA365
:203D1300F080AC9000E3E07003023E379000EDE0FEA3E0FFC3E50E9EE50F9F4003023E37B9
:203D33009000EDEEC3950EF0EF950FA3F09000EDE0FEA3E0FF8E028F051EBEFF011FEA4D56
:203D53007003023E2F758220C007C006123893D006D00780E09000E0E024FDFDF08D01876D
:203D73001309871409871519199000CFE513F0E514A3F0E515A3F09000D1E0FDBD80004087
:203D9300089000F37443F08020BD600040089000F37450F08013BD400040089000F374498A
:203DB300F080069000F37458F09000F3E0FDF582C00512389375823A123893758230123843
:203DD30093758278123893D005BD4902800EBD500280099000D0E0F5821238EE9000CFE0C0
:203DF300F5821238EE803D9000E77401F09000EC740AF0802F9000EC7408F080279000ECC4
:203E1300740AF0801F9000EC7410F080179000EA7401F0800F8B8212389380089000EDEEB0
:203E3300F0EFA3F09000EAE060719000E0E024FCFFF08F018703098705098706098707197E
:203E530019199000CFEBF0EDA3F0EEA3F0EFA3F09000CF7461F07447A3F07480A3F09000D7
:203E7300CFE0F513A3E0F514A3E0F51574012513FAE43514FBAF159000CFEAF0EBA3F0EF26
:203E9300A3F08513828514838515F0124283FF70030239A28F8212389380C39000ECE07099
:203EB300030239A29000E8E060479000E0E014F9F087077E007D007B009000CFEFF0EEA3F0
:203ED300F0EDA3F0EBA3F09000E7E06003023F7A9000CFE0FBA3E0A3E0A3E07D007E007F2F
:203EF300009000CFEBF0EDA3F0EEA3F0EFA3F080769000E9E060289000E0E024FCFFF08F2D
:203F13000187030987050987060987071919199000CFEBF0EDA3F0EEA3F0EFA3F0804890E1
:203F330000E0E024FEFFF08F01870609870719EF3395E0FDFB9000CFEEF0EFA3F0EDA3F002
:203F5300EBA3F09000E7E0701E9000CFE0FBA3E0FDA3E0A3E07E007F009000CFEBF0EDA364
:203F7300F0EEA3F0EFA3F09000E7E060419000CFE0FBA3E0FDA3E0FEA3E0FF30E72B9000B4
:203F9300CFE0FBA3E0FDA3E0FEA3E0FFC3E49BFBE49DFDE49EFEE49FFF9000CFEBF0EDA35A
:203FB300F0EEA3F0EFA3F080059000E7E4F09000EB7401F09000ECE0F5117516F9751700D9
:203FD300E4F50EF50F9000D3E4F085118212390A9000EBE070269000D3E0C4F51385168222
:203FF300851783E0FFE5134207851682851783EFF0151674FFB516021517800C9000D3E0EE
:20401300FF851682851783F0050EE4B50E02050F9000EBE0B40100E433F09000CFE0FAA39F
:20403300E0FBA3E0FEA3E0FFEA4B4E4F70979000FAE516F0E517A3F09000F1E50EF0E50F5A
:20405300A3F09000EDE0F5F0A3E045F070099000ED7401F0E4A3F09000E4E0FFE070479074
:2040730000E3E07041850E16850F179000EDE0FAA3E0FBC007AF160F8F067F00C3EE9AEFA7
:204093009BD0075019758220C007C003C002123893D002D003D0071ABAFF011B80D59000A2
:2040B300EDEAF0EBA3F09000E7E0602075822DC007123893D0079000EDE024FFFDA3E034FE
:2040D300FFFE9000EDEDF0EEA3F080569000F1E0F5F0A3E045F0604A9000E5E060207582AB
:2040F3002BC007123893D0079000EDE024FFFDA3E034FFFE9000EDEDF0EEA3F080249000C7
:20411300E6E0601E758220C007123893D0079000EDE024FFFDA3E034FFFE9000EDEDF0EE3D
:20413300A3F09000E3E070489000F1E0F516A3E0F5179000EDE0FAA3E0FBC0078A068B0715
:204153001ABAFF011BC3E5169EE5179FD0075053EF60067D307E0080047D207E008D82C0FE
:2041730007C003C002123893D002D003D00780CA9000EDE0FEA3E0FF9000F1E0F516A3E031
:20419300F517C3E5169EE5179F500F9000EDEEC39516F0EF9517A3F080119000EDE4F0A32E
:2041B300F080089000EDEAF0EBA3F09000FAE0FEA3E0FF9000F1E0F516A3E0F517AA16AD4D
:2041D30017151674FFB516021517EA4D60459000EBE0B40100E433F09000EBE070140EBE80
:2041F30000010F8E828F83E0C4540FFD9000D3F0800E8E828F83E0FD53050F9000D3EDF0EF
:204213009000D3E0F582C007C0061238CED006D00780AA9000E3E070030239A29000EDE055
:20423300FEA3E0FF8E038F051EBEFF011FEB4D70030239A2758220C007C006123893D006EC
:18425300D00780E08C821238930239A29000D4E0FEA3E08E82F58322E5
:0B4761003C4E4F20464C4F41543E00A0
:18426B00AA82AB831242836003A380F8C3E5829AF582E5839BF58322B4
:0D20110075811812429FE582600302200EC7
:1C42830020F71430F6148883A88220F507E6A88375830022E280F7E49322E0224A
:04429F007582002202
:00000001FF
