:10206D007EE87F031EBEFF011FEE4F70F7224389EE
:10207D0001758C4B758AFCD28CD2AFD2A92290F20D
:10208D0000E0FEA3E0EE20E7F52212206D90F000B7
:10209D007430F0E4A3F012206D90F0007430F0E491
:1020AD00A3F012206D90F0007430F0E4A3F0122034
:1020BD008B90F0007438F0E4A3F012208B90F000B8
:1020CD007408F0E4A3F012208B90F000740CF0E48F
:1020DD00A3F012208B90F0007406F0E4A3F0122010
:1020ED008B90F0007401F0E4A3F022E582900001E2
:1020FD00F012208B900001E090F100F0E4A3F022AB
:10210D0012208B90F0007401F0E4A3F022E5829090
:10211D000002F012208B900002E0FF7E0090F00094
:10212D0074804FF0EEA3F022E582900004F01220AF
:10213D008B900004E075F010A424B8FE740035F007
:10214D00FF900003E02EF582E43FF583E0F5820277
:10215D00211A12208B90F0007440F0E4A3F01220AD
:10216D008B7480C0E0743CC0E0122EB415811581D3
:10217D0090000575F0001225C490000575F0001251
:10218D0026D7AE82AF83900067E4F09000687408A4
:10219D00F0E4A3F090000575F000C007C006122E04
:1021AD0071D006D00790F100EEF0E4A3F012208B71
:1021BD0090F0007441F0E4A3F012208B749AC0E00B
:1021CD00743CC0E0122EB41581158190000575F098
:1021DD00001225C490000575F0001226D7AE82AF0F
:1021ED0083900067E4F09000687408F0E4A3F09029
:1021FD00000575F000C007C006122E71D006D0077D
:10220D0090F100EEF0E4A3F012208B90F0007442F8
:10221D00F0E4A3F012208B74B4C0E0743CC0E01263
:10222D002EB41581158190000575F0001225C4900E
:10223D00000575F0001226D7AE82AF83900067E4DB
:10224D00F09000687408F0E4A3F090000575F000BC
:10225D00C007C006122E71D006D00790F100EEF027
:10226D00E4A3F012208B90F0007443F0E4A3F0127D
:10227D00208B74CEC0E0743CC0E0122EB4158115D5
:10228D008190000575F0001225C490000575F000D1
:10229D001226D7AE82AF83900067E4F09000687489
:1022AD0008F0E4A3F090000575F000C007C0061219
:1022BD002E71D006D00790F100EEF0E4A3F01220BD
:1022CD008B90F0007444F0E4A3F012208B74E8C0FE
:1022DD00E0743CC0E0122EB4158115819000057597
:1022ED00F0001225C490000575F0001226D7AE82BD
:1022FD00AF83900067E4F09000687408F0E4A3F0F9
:10230D0090000575F000C007C006122E71D006D0E2
:10231D000790F100EEF0E4A3F012208B90F0007422
:10232D0045F0E4A3F012208B7402C0E0743DC0E0D0
:10233D00122EB41581158190000575F0001225C47B
:10234D0090000575F0001226D7AE82AF839000671E
:10235D00E4F09000687408F0E4A3F090000575F0C7
:10236D0000C007C006122E71D006D00790F100EE06
:10237D00F0E4A3F012208B90F0007446F0E4A3F08B
:10238D0012208B741CC0E0743DC0E0122EB4158178
:10239D00158190000575F0001225C490000575F0AB
:1023AD00001226D7AE82AF83900067E4F0900068EC
:1023BD007408F0E4A3F090000575F000C007C006A6
:1023CD00122E71D006D00790F100EEF0E4A3F012BA
:1023DD00208B90F0007447F0E4A3F012208B74363C
:1023ED00C0E0743DC0E0122EB4158115819000053A
:1023FD0075F0001225C490000575F0001226D7AEB9
:10240D0082AF83900067E4F09000687408F0E4A355
:10241D00F090000575F000C007C006122E71D006B1
:10242D00D00790F100EEF0E4A3F012208B900003A2
:10243D007401F075820312213512208B90F0007417
:10244D0080F0E4A3F012208B90F100E4F0A3F022D1
:10245D00AFF0AE83E58290000DF0EEA3F0EFA3F0A8
:10246D00900010E4F0A3F090000DE0F50AA3E0F564
:10247D000BA3E0F50CAA0AAB0BAC0C780079008825
:10248D0006E9C454F0CEC4CE6ECE54F0CE6EFF909D
:10249D000010E0F508A3E0F509EE2508FEEF35097B
:1024AD00FFEE2AFEEF3BFF8C058E828F838DF0129F
:1024BD003C60700122C004C003C002C001C0001204
:1024CD00208BD000D001D002D003D004C3740F955F
:1024DD000874808509F063F08095F0500C08B80001
:1024ED000109900010E4F0A3F0C002C003C00488FD
:1024FD0003E9C454F0CBC4CB6BCB54F0CB6BFCEBEA
:10250D0024B8FAEC3400FF900010E0FDA3E0FEEDDE
:10251D002AF582EE3FF583E0F582C006C005C004C2
:10252D00C003C002C001C00012211AD000D001D0DA
:10253D0002D003D004D005D006EB2DFBEC3EFCEB16
:10254D00250AFBEC350BFCAF0C8B828C838FF012C4
:10255D003C60FBF582C006C005C004C003C002C0CC
:10256D0001C0001220F8D000D001D002D003D00459
:10257D00D005D00690001074012DF0E43EA3F0D0EC
:10258D0004D003D00202248CE59830E0FBC298AE53
:10259D00997F008E828F8322AF83E582900012F0A7
:1025AD00EFA3F0E59830E1FB900012E0FEA3E08E82
:1025BD0099C29990000022AFF0AE83E5829000148D
:1025CD00F0EEA3F0EFA3F0900017E4F0A3F01225C6
:1025DD0095AE82AF83BE0802800DBE0A028062BE38
:1025ED000D02805D022676900017E0FDA3E0FF90BE
:1025FD000017E0F5F0A3E045F070030226AE900061
:10260D0008C007C0051225A59000201225A5900031
:10261D00081225A5D005D007900014E024FFFAA3D9
:10262D00E034FFFBA3E0FC900014EAF0EBA3F0EC28
:10263D00A3F01DBDFF011F900017EDF0EFA3F0807B
:10264D006090000D1225A590000A1225A59000148A
:10265D00E0FCA3E0FDA3E0FF8C828D838FF0E412FC
:10266D002E998C828D838FF022900014E0FCA3E0D4
:10267D00FDA3E0FF8C828D838FF0EE122E999000DA
:10268D001474012CF0E43DA3F0EFA3F0900017E0DB
:10269D002401F0A3E03400F07F008E828F83122599
:1026AD00A5900017E0FEA3E0FFBE3005BF0002803D
:1026BD00030225DB7450C0E0743DC0E07480C0E0BF
:1026CD0012321E15811581158122AFF0AE83E58280
:1026DD00900019F0EEA3F0EFA3F0900019E0FDA328
:1026ED00E0FEA3E0FF90001FE4F0A3F08D828E8347
:1026FD008FF0123C60FCBC20028003BC09070DBDAD
:10270D0000EA0E80E790001CEDF0EEA3F0EFA3F0D1
:10271D00BC302974012DFAE43EFB8F048A828B8331
:10272D008CF0123C60FCBC78028003BC580E90000B
:10273D001C74022DF0E43EA3F0EFA3F090001CE01A
:10274D00FDA3E0FEA3E0FF8D828E838FF0123C602F
:10275D00FFBF30004005EF24C650047F0080027F8C
:10276D0001EFFD3395E0FEEF705C90001CE0FBA3E4
:10277D00E0FCA3E0FF8B828C838FF0123C60FFBFE7
:10278D0061004005EF249950047F0080027F01EF26
:10279D00FC3395E0FF900021ECF0EFA3F0EC4F70CF
:1027AD002590001CE0FBA3E0FCA3E0FF8B828C8353
:1027BD008FF0123C60FFBF410050030228C5EF248B
:1027CD00B950030228C590001FE0FCA3E0C454F0EB
:1027DD00CCC4CC6CCC54F0CC6CFF90001FECF0EF63
:1027ED00A3F0ED4E604290001CE0FDA3E0FEA3E0DF
:1027FD00FF8D828E838FF0123C60FC90001C740163
:10280D002DF0E43EA3F0EFA3F07F00EC24D0FCEF1D
:10281D0034FFFF90001FE0FDA3E0FE90001FEC2DA4
:10282D00F0EF3EA3F0022749900021E0F5F0A3E080
:10283D0045F0604290001CE0FDA3E0FEA3E0FF8D9B
:10284D00828E838FF0123C60FC90001C74012DF081
:10285D00E43EA3F0EFA3F07F0074A92CFC74FF3FBE
:10286D00FF90001FE0FDA3E0FE90001FEC2DF0EFA8
:10287D003EA3F002274990001CE0FDA3E0FEA3E07B
:10288D00FF8D828E838FF0123C60FC90001C7401D2
:10289D002DF0E43EA3F0EFA3F07F0074C92CFC747F
:1028AD00FF3FFF90001FE0FDA3E0FE90001FEC2D09
:1028BD00F0EF3EA3F002274990001FE0FEA3E08E4B
:1028CD0082F583229000237401F0E4A3F0122B39DA
:1028DD00122C1F9000BCE0F58212211A75822A126B
:1028ED0020F89000BDE0F58212211A75822A12207F
:1028FD00F89000C0E0F58212211A75822A1220F894
:10290D009000C1E0F58212211A75822A1220F890EA
:10291D0000C4E0F58212211A75822A1220F8900067
:10292D00C5E0F58212211A75822A1220F89000C690
:10293D00E0F58212211A75822A1220F89000C9E062
:10294D00F58212211A75822A1220F89000CAE0F53C
:10295D008212211A75822A1220F89000CBE0F5829E
:10296D0012211A75822A1220F89000D4E0F58212F5
:10297D00211A75822A1220F89000D5E0F5821221D5
:10298D001A75822A1220F87478C0E0743DC0E012E6
:10299D002EB415811581122595AE82AF83BE6402CA
:1029AD008003022A57900007C0061225A5D0069075
:1029BD000023E0FDA3E0FF8D04EC1424B8F582E4C0
:1029CD003400F583E0F582C007C006C00512211A58
:1029DD0012208B7582201220F812208BD005D00684
:1029ED00D007ED24B8F582EF3400F583E0FC7B00D1
:1029FD0090F00074804CF0EBA3F0C007C006C0054A
:102A0D0012208B90F100E4F0A3F012208BD005D0B2
:102A1D0006D007C3ED942FEF648094804020900082
:102A2D00E7E0F582C00612211A12208B7582201262
:102A3D0020F812208BD006900023E4F0A3F0900034
:102A4D0023E02401F0A3E03400F0900023E024FF04
:102A5D00FDA3E034FFFF900023EDF0EFA3F0BE6186
:102A6D00028003022B25900007C0061225A5D00673
:102A7D00900023E0FDA3E0FF8D04EC0424B8F58263
:102A8D00E43400F583E0F582C007C006C0051221CD
:102A9D001A12208B7582201220F812208BD005D0AF
:102AAD0006D007ED24B8F582EF3400F583E0FC7B0A
:102ABD000090F00074804CF0EBA3F0C007C006C08E
:102ACD000512208B90F100E4F0A3F012208BD005BD
:102ADD00D006D007C3E49D74808FF063F08095F02D
:102AED0040229000B8E0F582C00612211A12208B08
:102AFD007582201220F812208BD006900023742F9F
:102B0D00F0E4A3F0900023E024FFFDA3E034FFFFE9
:102B1D00900023EDF0EFA3F0900023E02401F0A34B
:102B2D00E03400F0BE7101220229A32212208B9005
:102B3D00F0007440F0E4A3F012208B90F1007406C5
:102B4D00F0E4A3F012208B90F0007441F0E4A3F0B8
:102B5D0012208B90F1007409F0E4A3F012208B90F9
:102B6D00F0007442F0E4A3F012208B90F100741287
:102B7D00F0E4A3F012208B90F0007443F0E4A3F086
:102B8D0012208B90F1007414F0E4A3F012208B90BE
:102B9D00F0007444F0E4A3F012208B90F100741453
:102BAD00F0E4A3F012208B90F0007445F0E4A3F054
:102BBD0012208B90F1007412F0E4A3F012208B9090
:102BCD00F0007446F0E4A3F012208B90F10074092C
:102BDD00F0E4A3F012208B90F0007447F0E4A3F022
:102BED0012208B90F1007406F0E4A3F012208B906C
:102BFD0000037401F075820312213512208B90F0C1
:102C0D00007480F0E4A3F012208B90F100E4F0A3A7
:102C1D00F02212208B90F0007470F0E4A3F01220DB
:102C2D008B90F100740CF0E4A3F012208B90F00067
:102C3D007471F0E4A3F012208B90F1007412F0E4A3
:102C4D00A3F012208B90F0007472F0E4A3F0122028
:102C5D008B90F1007409F0E4A3F012208B90F0003A
:102C6D007473F0E4A3F012208B90F1007405F0E47E
:102C7D00A3F012208B90F0007474F0E4A3F01220F6
:102C8D008B90F1007405F0E4A3F012208B90F0000E
:102C9D007475F0E4A3F012208B90F1007409F0E448
:102CAD00A3F012208B90F0007476F0E4A3F01220C4
:102CBD008B90F1007412F0E4A3F012208B90F000D1
:102CCD007477F0E4A3F012208B90F100740CF0E413
:102CDD00A3F012208B9000037401F0758203122172
:072CED003512208B02208B41
:103C80000A0D456E7465722076616C756520666FED
:103C90007220526F7720310A0D000A0D456E74654F
:103CA000722076616C756520666F7220526F772086
:103CB000320A0D000A0D456E7465722076616C75CE
:103CC0006520666F7220526F7720330A0D000A0D4F
:103CD000456E7465722076616C756520666F722022
:103CE000526F7720340A0D000A0D456E74657220FC
:103CF00076616C756520666F7220526F7720350A89
:103D00000D000A0D456E7465722076616C75652034
:103D1000666F7220526F7720360A0D000A0D456ECD
:103D20007465722076616C756520666F7220526FC3
:103D30007720370A0D000A0D456E74657220766192
:103D40006C756520666F7220526F7720380A0D00FF
:103D50000A0D506C6561736520496E707574206141
:103D6000206D6178696D756D206F66203634206432
:103D700069676974730A0D000A0D456E74657220D7
:103D80007720746F20676F2075702C207320746FFC
:103D900020676F20646F776E2C206120746F20671E
:103DA0006F206C65667420616E64206420746F20DF
:103DB000676F20726967687420616E642071207477
:093DC0006F20717569740A0D0091
:103DD400000102030405060708090A0B0C0D0E0F67
:103DE400404142434445464748494A4B4C4D4E4F57
:103DF400101112131415161718191A1B1C1D1E1F47
:103E0400505152535455565758595A5B5C5D5E5F36
:042000000220113277
:03200B00022D4162
:03206A0002200E43
:03200E00022CF4AD
:102CF40090002AE4F0900025F0900026F090002740
:102D0400F0900028F0900029F0900067F09000689F
:102D1400743CF0E4A3F090002B75F000122E7112B5
:102D2400209712210D1228D112207B90002AE0FF57
:102D3400BF01F890002AE4F0122DBF80EEC0E0C07D
:102D440082C083C007C0D075D000758C4B758AFCD7
:102D5400900029E02401F0E0FFBF0254900025E038
:102D6400FF24F6503A900026E02401F0E0FF24C44A
:102D74005028900027E02401F0E0FFBF3B179000AB
:102D840028E02401F0E0FF24E85005900028E4F056
:102D9400900027E4F0900026E4F0900025E4F09001
:102DA4000025E02401F0900029E4F090002A04F0CA
:102DB400D0D0D007D083D082D0E032758257122190
:102DC4001A900028E02430F5821220F875823A1215
:102DD40020F8900027E0FF7E00900074740AF0E46D
:102DE400A3F08F828E831230D1AE8274302EF5829E
:102DF4001220F8900027E0FF7E0090006B740AF028
:102E0400E4A3F08F828E83122FBDAE8274302EF530
:102E1400821220F875823A1220F8900026E0FF7E94
:102E240000900074740AF0E4A3F08F828E83123051
:102E3400D1AE8274302EF5821220F8900026E0FF85
:102E44007E0090006B740AF0E4A3F08F828E8312EC
:102E54002FBDAE8274302EF5821220F875822E12A8
:0D2E640020F8900025E02430F5820220F8CF
:06204000E478FFF6D8FD74
:102E7100AC82AD83900068E0FEA3E0FFBE0003607A
:102E8100121F0F900067E08C828D83122E99A3DEB2
:082E9100FADFF88C828D832228
:10201E007940E94400601B7A01903DD478B875A0F0
:10202E0000E493F2A308B8000205A0D9F4DAF27521
:02203E00A0FF01
:102E990020F71130F6138883A88220F509F6A88354
:102EA9007583002280FEF280F5F022C00D85810D28
:102EB900E50D24FDF8868318868218E493A324DBA4
:102EC900600C24256005122FA280F0022FBAD2D5FA
:102ED900E493A3C083C082B4731486F01886831860
:102EE900868218123C606054A3122FA280F5B46345
:102EF9000818E618122FA28043B46417E630E74693
:102F090018E6F42401F608E6F43400F6742D122FBD
:102F1900A28033B4782D868318868218E4122F9301
:102F2900E583122F92E583122F93E582122F92E502
:102F390082122F9330D5057430122FA2D082D083FC
:102F4900022EC4B475F6E6FA18E6F9187C107D2746
:102F5900122F7DFF7CE87D03122F7DC4F5837C64ED
:102F69007D00122F7D4283E975F00A84C445F0F58E
:102F790082EF80A97B000BC3E99CF9EA9DFA50F620
:102F89001BE92CF9EA3DFAEB22C4540F700320D552
:102F99001FC2D52490D43440D4C083C082C0F0F578
:102FA90082E8C0E01225A5D0E0F8D0F0D082D08325
:102FB90022D00D22AF83E58290006DF0EFA3F0904F
:102FC900006DE0FEA3E0FF30E709C3E49EFCE49F47
:102FD900FD80048E048F0590006BE0FEA3E0FF30B6
:102FE900E709C3E49EFAE49FFB80048E028F0390F5
:102FF900006FEAF0EBA3F08C828D83123025AE824C
:10300900AF8390006DE0A3E030E70CC3E49EFCE4DD
:103019009FFD8C828D83228E828F8322AF83E582EE
:10302900900071F0EFA3F0900073E4F0900071E06C
:10303900FEA3E0FF7D0090006FE0FBA3E0FC2354BA
:1030490001FA7036EB2BFBEC33FC90006FEBF0ECE4
:10305900A3F090006FE0FBA3E0FCC3EE9BEF9C5054
:1030690011ECC313CB13CBFC90006FEBF0ECA3F086
:1030790080080D900073EDF080BC900073E0FF9024
:103089000071E0FDA3E0FE90006FE0FBA3E0FCC34C
:10309900ED9BEE9C400B900071EDC39BF0EE9CA361
:1030A900F090006FE0FDA3E0C313CD13CDFE9000B7
:1030B9006FEDF0EEA3F08F061FEE70C3900071E084
:0830C900FEA3E08E82F58322D4
:102046007800E84400600A790175A000E4F309D835
:10205600FC78B7E84400600C7901900001E4F0A335
:04206600D8FCD9FACF
:1030D100AF83E582900076F0EFA3F0900076E0FEFA
:1030E100A3E0FF30E709C3E49EFCE49FFD80048E6A
:1030F100048F05900074E0FEA3E0FF33E433FB602E
:1031010009C3E49EF9E49FFA80048E018F029000C6
:1031110078E9F0EAA3F08C828D83C003123143AECB
:1031210082AF83D003900076E0A3E033E4336B6099
:103131000CC3E49EFCE49FFD8C828D83228E828FE2
:103141008322AF83E58290007AF0EFA3F090007CB8
:10315100E4F0A3F0900078E0FEA3E0FF7D10900082
:103161007AE0FBA3E0FC90007E235401F0EB2BFB03
:10317100EC33FC90007AEBF0ECA3F090007CE0FBE8
:10318100A3E0FCEB2BFBEC33FC90007CEBF0ECA31D
:10319100F090007EE0600890007CE043E001F09058
:1031A100007CE0FBA3E0FCC3EB9EEC9F401390008E
:1031B1007CEBC39EF0EC9FA3F090007AE043E0012A
:1031C100F0DD9B90007AE0FEA3E08E82F58322C0C1
:1031D1000D85810D7E008E831225A5D00D22AFF0C5
:1031E100AE83E582900080F0EEA3F0EFA3F09000B3
:1031F10080E0FDA3E0FEA3E0FF90007FE0FC9000F3
:1032010094E4F0A3F0A3F0900097EDF0EEA3F0EFBB
:10321100A3F090009AECF09031D0023327C00DE575
:1032210081F50D24FBFF900094E4F0A3F0A3F0E5F9
:103231000D24FBF8900097E6F008E6A3F008E6A35A
:10324100F090009AEFF09031D0123327D00D22E5A3
:1032510082900090F0E0FF900086E0C0E0A3E0C023
:10326100E0A3E0C0E012326B800D900084E0C0E08A
:10327100A3E0C0E08F822215811581158190008E17
:10328100E02401F0A3E03400F022E582900091F007
:10329100E02430FF24C6500D74072FFF900083E017
:1032A10060034307208F82023250E582900092F042
:1032B100E0FFC4540FF582C00712328BD0075307C9
:1032C1000F8F8202328BE582900093F0900089E0AB
:1032D100FCA3E0FDA3E0FEA3E0FF90008DE0FB7501
:1032E1001820900093E0F98B00E828F8EF235401AF
:1032F10048FBEC2CFCED33FDEE33FEEF33FFC3EB6B
:10330100994007EBC399FB430401E51814FA8A18A5
:1033110070D5900089ECF0EDA3F0EEA3F0EFA3F0EF
:1033210090008DEBF022AF83E58290009BF0EFA33C
:10333100F090009BE0FEA3E0FF900084EEF0EFA38D
:10334100F0900094E0FDA3E0FEA3E0FF900086ED85
:10335100F0EEA3F0EFA3F090008EE4F0A3F0900064
:1033610097E0FDA3E0FEA3E0FF8D828E838FF01234
:103371003C60FC90009774012DF0E43EA3F0EFA3B4
:10338100F0EC7003023C1CBC25028003023C14904B
:10339100009DE4F090009EF090009FF09000A0F05E
:1033A1009000A1F09000A2F09000A3F09000A4F092
:1033B1009000A6F09000A7F0A3F09000A914F0A34C
:1033C100F0900097E0FDA3E0FEA3E0FF8D828E83E5
:1033D1008FF0123C60FBA3AD82AE83900097EDF0BD
:1033E100EEA3F0EFA3F09000ADEBF0BB25088B82CC
:1033F10012325002335FBB300050030234C0EB2461
:10340100C650030234C09000A9E0F50EA3E0F50F09
:1034110074FFB50E63B50F60C005C006C00790000C
:10342100A7E0FAA3E0FF9000B6EAF0EFA3F0900066
:103431000AC005C003123C40AE82AF83D003D00561
:103441008B027D00EA2EFEED3FFFEE24D0FEEF342D
:10345100FFFF9000A7EEF0EFA3F0D007D006D00554
:103461009000A7E0F5F0A3E045F060030233CD90B2
:10347100009E7401F00233CDC005C006C007900064
:10348100B6E50EF0E50FA3F090000AC006C005C036
:1034910003123C40AA82AF83D003D005D0067E0040
:1034A100EB2AFAEE3FFFEA24D0FAEF34FFFF900057
:1034B100A9EAF0EFA3F0D007D006D0050233CD90F2
:1034C10000ADE0FBBB2E2FC005C006C0079000A9D0
:1034D100E0FAA3E0FFBAFF05BFFF028009D007D0E1
:1034E10006D0050233CDD007D006D0059000A9E45F
:1034F100F0A3F00233CDBB61004014EB2485400FF3
:103501009000AD74DF5BF09000837401F080059052
:103511000083E4F09000ADE0FBBB20028075BB2B83
:10352100028067BB2D028059BB4202806FBB430200
:10353100807CBB44030237B7BB46030237DDBB487F
:10354100030233CDBB49030237B7BB4A030233CD74
:10355100BB4C028050BB4F030237C5BB500302373F
:1035610025BB53028077BB54030233CDBB55030205
:1035710037CDBB58030237D5BB5A030233CD0237CF
:10358100E590009D7401F00233CD90009F7401F02D
:103591000233CD9000A07401F00233CD9000A274EB
:1035A10001F00233CD9000A37401F00233CD9000FD
:1035B100A2E0600E90009AE014F9F09000ADE7F0FF
:1035C100800F90009AE024FEFFF08F019000ADE79C
:1035D100F09000ADE0F5821232500237F490009A7B
:1035E100E024FDFFF08F0187050987060987071988
:1035F10019900089EDF0EEA3F0EFA3F08D828E8398
:103601008FF0123C2885820E85830F9000A9E0FA85
:10361100A3E0FDBAFF0DBDFF0A9000A9E50EF0E59C
:103621000FA3F090009DE0704B9000A7E0FAA3E09B
:10363100FDC3E50E9AE50F9D503A9000A7EAC395A8
:103641000EF0ED950FA3F09000A7E0FAA3E0FD8A3C
:10365100068D071ABAFF011DEE4F6010758220C05A
:1036610005C002123250D002D00580E39000A7EAD3
:10367100F0EDA3F09000A9E0F511A3E0F5129000A0
:1036810089E0FAA3E0FDA3E0FF8A828D838FF01227
:103691003C60F510603CC3E4951174808512F063C1
:1036A100F08095F0502C151174FFB511021512859B
:1036B1001082123250900089E0FAA3E0FDA3E0FFEE
:1036C1000ABA00010D900089EAF0EDA3F0EFA3F032
:1036D10080AC90009DE070030237F49000A7E0FEFB
:1036E100A3E0FFC3E50E9EE50F9F40030237F49070
:1036F10000A7EEC3950EF0EF950FA3F09000A7E0A1
:10370100FEA3E0FF8E028F051EBEFF011FEA4D7072
:10371100030237EC758220C007C006123250D00672
:10372100D00780E090009AE024FDFDF08D01871321
:103731000987140987151919900089E513F0E51413
:10374100A3F0E515A3F090008BE0FDBD80004008DB
:103751009000AD7443F08020BD600040089000AD42
:103761007450F08013BD400040089000AD7449F0E2
:1037710080069000AD7458F09000ADE0FDF582C078
:103781000512325075823A1232507582301232501F
:10379100758278123250D005BD4902800EBD5002AB
:1037A100800990008AE0F5821232AB900089E0F541
:1037B100821232AB803D9000A17401F09000A6749A
:1037C1000AF0802F9000A67408F080279000A6745C
:1037D1000AF0801F9000A67410F080179000A47466
:1037E10001F0800F8B8212325080089000A7EEF01A
:1037F100EFA3F09000A4E0607190009AE024FCFF38
:10380100F08F0187030987050987060987071919B9
:1038110019900089EBF0EDA3F0EEA3F0EFA3F09087
:10382100008974C9F0743DA3F07480A3F0900089FD
:10383100E0F513A3E0F514A3E0F51574012513FADF
:10384100E43514FBAF15900089EAF0EBA3F0EFA388
:10385100F08513828514838515F0123C60FF700397
:1038610002335F8F8212325080C39000A6E0700352
:1038710002335F9000A2E0604790009AE014F9F0F3
:1038810087077E007D007B00900089EFF0EEA3F0BA
:10389100EDA3F0EBA3F09000A1E0600302393790B3
:1038A1000089E0FBA3E0A3E0A3E07D007E007F00B0
:1038B100900089EBF0EDA3F0EEA3F0EFA3F080769A
:1038C1009000A3E0602890009AE024FCFFF08F01B3
:1038D10087030987050987060987071919199000C0
:1038E10089EBF0EDA3F0EEA3F0EFA3F08048900098
:1038F1009AE024FEFFF08F01870609870719EF334D
:1039010095E0FDFB900089EEF0EFA3F0EDA3F0EB65
:10391100A3F09000A1E0701E900089E0FBA3E0FD00
:10392100A3E0A3E07E007F00900089EBF0EDA3F01F
:10393100EEA3F0EFA3F09000A1E06041900089E0D8
:10394100FBA3E0FDA3E0FEA3E0FF30E72B9000899D
:10395100E0FBA3E0FDA3E0FEA3E0FFC3E49BFBE4E7
:103961009DFDE49EFEE49FFF900089EBF0EDA3F046
:10397100EEA3F0EFA3F080059000A1E4F09000A584
:103981007401F09000A6E0F5117516B3751700E407
:10399100F50EF50F90008DE4F08511821232C7907B
:1039A10000A5E0702690008DE0C4F5138516828590
:1039B1001783E0FFE5134207851682851783EFF031
:1039C100151674FFB516021517800C90008DE0FFD7
:1039D100851682851783F0050EE4B50E02050F905A
:1039E10000A5E0B40100E433F0900089E0FAA3E01F
:1039F100FBA3E0FEA3E0FFEA4B4E4F70979000B4AB
:103A0100E516F0E517A3F09000ABE50EF0E50FA386
:103A1100F09000A7E0F5F0A3E045F070099000A751
:103A21007401F0E4A3F090009EE0FFE07047900085
:103A31009DE07041850E16850F179000A7E0FAA34F
:103A4100E0FBC007AF160F8F067F00C3EE9AEF9B16
:103A5100D0075019758220C007C003C0021232502E
:103A6100D002D003D0071ABAFF011B80D59000A75E
:103A7100EAF0EBA3F09000A1E0602075822DC00771
:103A8100123250D0079000A7E024FFFDA3E034FFDD
:103A9100FE9000A7EDF0EEA3F080569000ABE0F5AC
:103AA100F0A3E045F0604A90009FE0602075822B12
:103AB100C007123250D0079000A7E024FFFDA3E019
:103AC10034FFFE9000A7EDF0EEA3F080249000A05B
:103AD100E0601E758220C007123250D0079000A707
:103AE100E024FFFDA3E034FFFE9000A7EDF0EEA37C
:103AF100F090009DE070489000ABE0F516A3E0F572
:103B0100179000A7E0FAA3E0FBC0078A068B071A0B
:103B1100BAFF011BC3E5169EE5179FD0075053EF6F
:103B210060067D307E0080047D207E008D82C0078E
:103B3100C003C002123250D002D003D00780CA9015
:103B410000A7E0FEA3E0FF9000ABE0F516A3E0F5CF
:103B510017C3E5169EE5179F500F9000A7EEC3957A
:103B610016F0EF9517A3F080119000A7E4F0A3F0F1
:103B710080089000A7EAF0EBA3F09000B4E0FEA368
:103B8100E0FF9000ABE0F516A3E0F517AA16AD171C
:103B9100151674FFB516021517EA4D60459000A57C
:103BA100E0B40100E433F09000A5E070140EBE0013
:103BB100010F8E828F83E0C4540FFD90008DF08041
:103BC1000E8E828F83E0FD53050F90008DEDF090F6
:103BD100008DE0F582C007C00612328BD006D007F7
:103BE10080AA90009DE0700302335F9000A7E0FE81
:103BF100A3E0FF8E038F051EBEFF011FEB4D700377
:103C010002335F758220C007C006123250D006D041
:103C11000780E08C8212325002335F90008EE0FE0A
:073C2100A3E08E82F583226F
:0B3DC9003C4E4F20464C4F41543E0042
:103C2800AA82AB83123C606003A380F8C3E5829A42
:103C3800F582E5839BF58322AA83AB828BF0900003
:103C4800B6E0A4F8A9F08AF0E0A429F98BF0A3E083
:083C5800A429F58388822222D1
:0D201100758118123C7CE582600302200EF0
:103C600020F71430F6148883A88220F507E6A8838D
:103C700075830022E280F7E49322E022758200221D
:00000001FF
