:10206D007EE87F031EBEFF011FEE4F70F7224389EE
:10207D0001758C4B758AFCD28CD2AFD2A92290F20D
:10208D0000E0FEA3E0EE20E7F52212206D90F000B7
:10209D007430F0E4A3F012206D90F0007430F0E491
:1020AD00A3F012206D90F0007430F0E4A3F0122034
:1020BD008B90F0007438F0E4A3F012208B90F000B8
:1020CD007408F0E4A3F012208B90F000740CF0E48F
:1020DD00A3F012208B90F0007406F0E4A3F0122010
:1020ED008B90F0007401F0E4A3F022E582900001E2
:1020FD00F012208B900001E090F100F0E4A3F022AB
:10210D0012208B90F0007401F0E4A3F022E5829090
:10211D000002F012208B900002E0FF7E0090F00094
:10212D0074804FF0EEA3F022AFF0AE83E582900005
:10213D0003F0EEA3F0EFA3F0900006E4F0A3F0900F
:10214D000003E0F50AA3E0F50BA3E0F50CAA0AAB3A
:10215D000BAC0C780079008806E9C454F0CEC4CEDF
:10216D006ECE54F0CE6EFF900006E0F508A3E0F5BC
:10217D0009EE2508FEEF3509FFEE2AFEEF3BFF8C39
:10218D00058E828F838DF012336A700122C004C0D8
:10219D0003C002C001C00012208BD000D001D002BC
:1021AD00D003D004C3740F950874808509F063F0D3
:1021BD008095F0500C08B8000109900006E4F0A3DA
:1021CD00F0C002C003C0048803E9C454F0CBC4CBF3
:1021DD006BCB54F0CB6BFCEB24A2FAEC3400FF90EC
:1021ED000006E0FDA3E0FEED2AF508EE3FF50985BA
:1021FD000882850983E0F582C006C005C004C003CE
:10220D00C002C001C00012211AD000D001D0028539
:10221D000882850983E0FF7A00C002C001C000C0BA
:10222D0007C002748AC0E07433C0E01225BEE58198
:10223D0024FCF581D000D001D002D003D004D0050C
:10224D00D006EB2DFBEC3EFCEB250AFBEC350BFC35
:10225D00AF0C8B828C838FF012336AFBF582C00634
:10226D00C005C004C003C002C001C0001220F8D0D8
:10227D0000D001D002D003D004D005D006900006C6
:10228D0074012DF0E43EA3F0D004D003D00202215E
:10229D0064E59830E0FBC298AE997F008E828F8303
:1022AD0022AF83E582900008F0EFA3F0E59830E1CE
:1022BD00FB900008E0FEA3E08E99C29990000022E9
:1022CD00AFF0AE83E58290000AF0EEA3F0EFA3F03D
:1022DD0090000DE4F0A3F012229EAE82AF83BE08F3
:1022ED0002800DBE0A028062BE0D02805D02237F58
:1022FD0090000DE0FDA3E0FF90000DE0F5F0A3E0F0
:10230D0045F070030223B7900008C007C0051222E4
:10231D00AE9000201222AE9000081222AED005D051
:10232D000790000AE024FFFAA3E034FFFBA3E0FCD2
:10233D0090000AEAF0EBA3F0ECA3F01DBDFF011F26
:10234D0090000DEDF0EFA3F0806090000D1222AE25
:10235D0090000A1222AE90000AE0FCA3E0FDA3E07B
:10236D00FF8C828D838FF0E41225A38C828D838F59
:10237D00F02290000AE0FCA3E0FDA3E0FF8C828D2B
:10238D00838FF0EE1225A390000A74012CF0E43D2A
:10239D00A3F0EFA3F090000DE02401F0A3E03400D2
:1023AD00F07F008E828F831222AE90000DE0FEA38F
:1023BD00E0FFBE3C05BF000280030222E4748DC025
:1023CD00E07433C0E07480C0E012292815811581B6
:0323DD0015812245
:10338A002578000A0D506C6561736520496E707569
:10339A00742061206D6178696D756D206F662036C5
:0B33AA0034206469676974730A0D0029
:1033CF00000102030405060708090A0B0C0D0E0F76
:1033DF00404142434445464748494A4B4C4D4E4F66
:1033EF00101112131415161718191A1B1C1D1E1F56
:1033FF00505152535455565758595A5B5C5D5E5F46
:042000000220113277
:03200B0002244B61
:03206A0002200E43
:03200E000223E0CA
:1023E000900014E4F090000FF0900010F0900011B5
:1023F000F0900012F0900013F0900051F090005215
:10240000743CF0E4A3F090001575F00012257B12E7
:10241000209712210D74B5C0E07433C0E01225BEC0
:102420001581158190001575F0001222CD900015D0
:1024300075F00012213512207B900014E0FFBF01DF
:10244000F8900014E4F01224C980EEC0E0C082C00D
:1024500083C007C0D075D000758C4B758AFC900086
:1024600013E02401F0E0FFBF025490000FE0FF24CE
:10247000F6503A900010E02401F0E0FF24C4502808
:10248000900011E02401F0E0FFBF3B17900012E044
:102490002401F0E0FF24E85005900012E4F09000E1
:1024A00011E4F0900010E4F090000FE4F090000FC1
:1024B000E02401F0900013E4F090001404F0D0D078
:1024C000D007D083D082D0E03275825712211A9083
:1024D0000012E02430F5821220F875823A1220F8BA
:1024E000900011E0FF7E0090005E740AF0E4A3F01B
:1024F0008F828E831227DBAE8274302EF5821220FB
:10250000F8900011E0FF7E00900055740AF0E4A3FB
:10251000F08F828E831226C7AE8274302EF582121F
:1025200020F875823A1220F8900010E0FF7E0090AB
:10253000005E740AF0E4A3F08F828E831227DBAE74
:102540008274302EF5821220F8900010E0FF7E0099
:10255000900055740AF0E4A3F08F828E831226C790
:10256000AE8274302EF5821220F875822E1220F879
:0B25700090000FE02430F5820220F8FC
:0F33B500456E74657220537472696E670A0D005D
:06204000E478FFF6D8FD74
:10257B00AC82AD83900052E0FEA3E0FFBE0003608F
:10258B00121F0F900051E08C828D831225A3A3DEC6
:08259B00FADFF88C828D832227
:10201E007940E94400601B7A019033CF78A275A015
:10202E0000E493F2A308B8000205A0D9F4DAF27521
:02203E00A0FF01
:1025A30020F71130F6138883A88220F509F6A88353
:1025B3007583002280FEF280F5F022C00D85810D27
:1025C300E50D24FDF8868318868218E493A324DBA3
:1025D300600C242560051226AC80F00226C4D2D5F7
:1025E300E493A3C083C082B4731486F0188683185F
:1025F30086821812336A6054A31226AC80F5B46342
:102603000818E6181226AC8043B46417E630E74690
:1026130018E6F42401F608E6F43400F6742D1226C5
:10262300AC8033B4782D868318868218E412269DF5
:10263300E58312269CE58312269DE58212269CE5FE
:102643008212269D30D50574301226ACD082D083F9
:102653000225CEB475F6E6FA18E6F9187C107D2744
:10266300122687FF7CE87D03122687C4F5837C64EA
:102673007D001226874283E975F00A84C445F0F58C
:1026830082EF80A97B000BC3E99CF9EA9DFA50F61F
:102693001BE92CF9EA3DFAEB22C4540F700320D551
:1026A3001FC2D52490D43440D4C083C082C0F0F577
:1026B30082E8C0E01222AED0E0F8D0F0D082D0831E
:1026C30022D00D22AF83E582900057F0EFA3F09064
:1026D3000057E0FEA3E0FF30E709C3E49EFCE49F5C
:1026E300FD80048E048F05900055E0FEA3E0FF30CB
:1026F300E709C3E49EFAE49FFB80048E028F0390F4
:102703000059EAF0EBA3F08C828D8312272FAE825F
:10271300AF83900057E0A3E030E70CC3E49EFCE4F2
:102723009FFD8C828D83228E828F8322AF83E582ED
:1027330090005BF0EFA3F090005DE4F090005BE0AD
:10274300FEA3E0FF7D00900059E0FBA3E0FC2354CF
:1027530001FA7036EB2BFBEC33FC900059EBF0ECF9
:10276300A3F0900059E0FBA3E0FCC3EE9BEF9C5069
:1027730011ECC313CB13CBFC900059EBF0ECA3F09B
:1027830080080D90005DEDF080BC90005DE0FF904F
:10279300005BE0FDA3E0FE900059E0FBA3E0FCC377
:1027A300ED9BEE9C400B90005BEDC39BF0EE9CA376
:1027B300F0900059E0FDA3E0C313CD13CDFE9000CC
:1027C30059EDF0EEA3F08F061FEE70C390005BE0AF
:0827D300FEA3E08E82F58322D3
:102046007800E84400600A790175A000E4F309D835
:10205600FC78A1E84400600C7901900001E4F0A34B
:04206600D8FCD9FACF
:1027DB00AF83E582900060F0EFA3F0900060E0FE25
:1027EB00A3E0FF30E709C3E49EFCE49FFD80048E69
:1027FB00048F0590005EE0FEA3E0FF33E433FB6043
:10280B0009C3E49EF9E49FFA80048E018F029000C5
:10281B0062E9F0EAA3F08C828D83C00312284DAEDF
:10282B0082AF83D003900060E0A3E033E4336B60AE
:10283B000CC3E49EFCE49FFD8C828D83228E828FE1
:10284B008322AF83E582900064F0EFA3F0900066E3
:10285B00E4F0A3F0900062E0FEA3E0FF7D10900097
:10286B0064E0FBA3E0FC900068235401F0EB2BFB2E
:10287B00EC33FC900064EBF0ECA3F0900066E0FB13
:10288B00A3E0FCEB2BFBEC33FC900066EBF0ECA332
:10289B00F0900068E06008900066E043E001F09083
:1028AB000066E0FBA3E0FCC3EB9EEC9F40139000A3
:1028BB0066EBC39EF0EC9FA3F0900064E043E00155
:1028CB00F0DD9B900064E0FEA3E08E82F58322C0D6
:1028DB000D85810D7E008E831222AED00D22AFF0BE
:1028EB00AE83E58290006AF0EEA3F0EFA3F09000C8
:1028FB006AE0FDA3E0FEA3E0FF900069E0FC90001E
:10290B007EE4F0A3F0A3F0900081EDF0EEA3F0EFE6
:10291B00A3F0900084ECF09028DA022A31C00DE588
:10292B0081F50D24FBFF90007EE4F0A3F0A3F0E50E
:10293B000D24FBF8900081E6F008E6A3F008E6A36F
:10294B00F0900084EFF09028DA122A31D00D22E5B6
:10295B008290007AF0E0FF900070E0C0E0A3E0C04E
:10296B00E0A3E0C0E0122975800D90006EE0C0E09E
:10297B00A3E0C0E08F82221581158115819000782C
:10298B00E02401F0A3E03400F022E58290007BF01C
:10299B00E02430FF24C6500D74072FFF90006DE02C
:1029AB0060034307208F8202295AE58290007CF056
:1029BB00E0FFC4540FF582C007122995D0075307C7
:1029CB000F8F82022995E58290007DF0900073E0D5
:1029DB00FCA3E0FDA3E0FEA3E0FF900077E0FB7516
:1029EB00182090007DE0F98B00E828F8EF235401C4
:1029FB0048FBEC2CFCED33FDEE33FEEF33FFC3EB6A
:102A0B00994007EBC399FB430401E51814FA8A18A4
:102A1B0070D5900073ECF0EDA3F0EEA3F0EFA3F004
:102A2B00900077EBF022AF83E582900085F0EFA367
:102A3B00F0900085E0FEA3E0FF90006EEEF0EFA3B8
:102A4B00F090007EE0FDA3E0FEA3E0FF900070EDB0
:102A5B00F0EEA3F0EFA3F0900078E4F0A3F0900079
:102A6B0081E0FDA3E0FEA3E0FF8D828E838FF01249
:102A7B00336AFC90008174012DF0E43EA3F0EFA3C8
:102A8B00F0EC7003023326BC2502800302331E9048
:102A9B000087E4F0900088F0900089F090008AF0B5
:102AAB0090008BF090008CF090008DF090008EF0E9
:102ABB00900090F0900091F0A3F090009314F0A38D
:102ACB00F0900081E0FDA3E0FEA3E0FF8D828E83FA
:102ADB008FF012336AFBA3AD82AE83900081EDF0D1
:102AEB00EEA3F0EFA3F0900097EBF0BB25088B82E1
:102AFB0012295A022A69BB30005003022BCAEB245D
:102B0B00C65003022BCA900093E0F50EA3E0F50F1D
:102B1B0074FFB50E63B50F60C005C006C00790000B
:102B2B0091E0FAA3E0FF9000A0EAF0EFA3F0900091
:102B3B000AC005C00312334AAE82AF83D003D0055F
:102B4B008B027D00EA2EFEED3FFFEE24D0FEEF342C
:102B5B00FFFF900091EEF0EFA3F0D007D006D00569
:102B6B00900091E0F5F0A3E045F06003022AD790C6
:102B7B0000887401F0022AD7C005C006C007900078
:102B8B00A0E50EF0E50FA3F090000AC006C005C04B
:102B9B000312334AAA82AF83D003D005D0067E003E
:102BAB00EB2AFAEE3FFFEA24D0FAEF34FFFF900056
:102BBB0093EAF0EFA3F0D007D006D005022AD79006
:102BCB000097E0FBBB2E2FC005C006C007900093FB
:102BDB00E0FAA3E0FFBAFF05BFFF028009D007D0E0
:102BEB0006D005022AD7D007D006D005900093E473
:102BFB00F0A3F0022AD7BB61004014EB2485400FF1
:102C0B0090009774DF5BF090006D7401F08005907D
:102C1B00006DE4F0900097E0FBBB20028075BB2BAE
:102C2B00028067BB2D028059BB4202806FBB4302FF
:102C3B00807CBB4403022EC1BB4603022EE7BB487C
:102C4B0003022AD7BB4903022EC1BB4A03022AD770
:102C5B00BB4C028050BB4F03022ECFBB5003022E46
:102C6B002FBB53028077BB5403022AD7BB550302F9
:102C7B002ED7BB5803022EDFBB5A03022AD7022ED4
:102C8B00EF9000877401F0022AD79000897401F04D
:102C9B00022AD790008A7401F0022AD790008C7414
:102CAB0001F0022AD790008D7401F0022AD7900010
:102CBB008CE0600E900084E014F9F0900097E7F040
:102CCB00800F900084E024FEFFF08F01900097E7C7
:102CDB00F0900097E0F58212295A022EFE900084A4
:102CEB00E024FDFFF08F0187050987060987071987
:102CFB0019900073EDF0EEA3F0EFA3F08D828E83AD
:102D0B008FF012333285820E85830F900093E0FA99
:102D1B00A3E0FDBAFF0DBDFF0A900093E50EF0E5B1
:102D2B000FA3F0900087E0704B900091E0FAA3E0C6
:102D3B00FDC3E50E9AE50F9D503A900091EAC395BD
:102D4B000EF0ED950FA3F0900091E0FAA3E0FD8A51
:102D5B00068D071ABAFF011DEE4F6010758220C059
:102D6B0005C00212295AD002D00580E3900091EAE7
:102D7B00F0EDA3F0900093E0F511A3E0F5129000B5
:102D8B0073E0FAA3E0FDA3E0FF8A828D838FF0123C
:102D9B00336AF510603CC3E4951174808512F063BF
:102DAB00F08095F0502C151174FFB511021512859A
:102DBB00108212295A900073E0FAA3E0FDA3E0FF02
:102DCB000ABA00010D900073EAF0EDA3F0EFA3F047
:102DDB0080AC900087E07003022EFE900091E0FE25
:102DEB00A3E0FFC3E50E9EE50F9F4003022EFE906E
:102DFB000091EEC3950EF0EF950FA3F0900091E0CC
:102E0B00FEA3E0FF8E028F051EBEFF011FEA4D7071
:102E1B0003022EF6758220C007C00612295AD0066F
:102E2B00D00780E0900084E024FDFDF08D01871336
:102E3B000987140987151919900073E513F0E51428
:102E4B00A3F0E515A3F0900075E0FDBD80004008F0
:102E5B009000977443F08020BD600040089000976D
:102E6B007450F08013BD400040089000977449F0F7
:102E7B0080069000977458F0900097E0FDF582C0A3
:102E8B000512295A75823A12295A75823012295A1B
:102E9B0075827812295AD005BD4902800EBD5002A9
:102EAB008009900074E0F5821229B5900073E0F56B
:102EBB00821229B5803D90008B7401F090009074C4
:102ECB000AF0802F9000907408F080279000907487
:102EDB000AF0801F9000907410F0801790008E7491
:102EEB0001F0800F8B8212295A8008900091EEF02E
:102EFB00EFA3F090008EE06071900084E024FCFF63
:102F0B00F08F0187030987050987060987071919B8
:102F1B0019900073EBF0EDA3F0EEA3F0EFA3F0909C
:102F2B00007374C4F07433A3F07480A3F090007337
:102F3B00E0F513A3E0F514A3E0F51574012513FADE
:102F4B00E43514FBAF15900073EAF0EBA3F0EFA39D
:102F5B00F08513828514838515F012336AFF700395
:102F6B00022A698F8212295A80C3900090E0700365
:102F7B00022A6990008CE06047900084E014F9F01D
:102F8B0087077E007D007B00900073EFF0EEA3F0CF
:102F9B00EDA3F0EBA3F090008BE0600302304190C7
:102FAB000073E0FBA3E0A3E0A3E07D007E007F00C5
:102FBB00900073EBF0EDA3F0EEA3F0EFA3F08076AF
:102FCB0090008DE06028900084E024FCFFF08F01DE
:102FDB0087030987050987060987071919199000BF
:102FEB0073EBF0EDA3F0EEA3F0EFA3F080489000AD
:102FFB0084E024FEFFF08F01870609870719EF3362
:10300B0095E0FDFB900073EEF0EFA3F0EDA3F0EB7A
:10301B00A3F090008BE0701E900073E0FBA3E0FD2B
:10302B00A3E0A3E07E007F00900073EBF0EDA3F034
:10303B00EEA3F0EFA3F090008BE06041900073E003
:10304B00FBA3E0FDA3E0FEA3E0FF30E72B900073B2
:10305B00E0FBA3E0FDA3E0FEA3E0FFC3E49BFBE4E6
:10306B009DFDE49EFEE49FFF900073EBF0EDA3F05B
:10307B00EEA3F0EFA3F0800590008BE4F090008FAF
:10308B007401F0900090E0F51175169D751700E432
:10309B00F50EF50F900077E4F08511821229D1908F
:1030AB00008FE07026900077E0C4F51385168285BB
:1030BB001783E0FFE5134207851682851783EFF030
:1030CB00151674FFB516021517800C900077E0FFEC
:1030DB00851682851783F0050EE4B50E02050F9059
:1030EB00008FE0B40100E433F0900073E0FAA3E04A
:1030FB00FBA3E0FEA3E0FFEA4B4E4F709790009EC0
:10310B00E516F0E517A3F0900095E50EF0E50FA39B
:10311B00F0900091E0F5F0A3E045F070099000917C
:10312B007401F0E4A3F0900088E0FFE0704790009A
:10313B0087E07041850E16850F17900091E0FAA37A
:10314B00E0FBC007AF160F8F067F00C3EE9AEF9B15
:10315B00D0075019758220C007C003C00212295A2C
:10316B00D002D003D0071ABAFF011B80D590009173
:10317B00EAF0EBA3F090008BE0602075822DC00786
:10318B0012295AD007900091E024FFFDA3E034FFF1
:10319B00FE900091EDF0EEA3F08056900095E0F5D7
:1031AB00F0A3E045F0604A900089E0602075822B27
:1031BB00C00712295AD007900091E024FFFDA3E02D
:1031CB0034FFFE900091EDF0EEA3F0802490008A86
:1031DB00E0601E758220C00712295AD0079000911B
:1031EB00E024FFFDA3E034FFFE900091EDF0EEA391
:1031FB00F0900087E07048900095E0F516A3E0F59D
:10320B0017900091E0FAA3E0FBC0078A068B071A20
:10321B00BAFF011BC3E5169EE5179FD0075053EF6E
:10322B0060067D307E0080047D207E008D82C0078D
:10323B00C003C00212295AD002D003D00780CA9013
:10324B000091E0FEA3E0FF900095E0F516A3E0F5FA
:10325B0017C3E5169EE5179F500F900091EEC3958F
:10326B0016F0EF9517A3F08011900091E4F0A3F006
:10327B008008900091EAF0EBA3F090009EE0FEA393
:10328B00E0FF900095E0F516A3E0F517AA16AD1731
:10329B00151674FFB516021517EA4D604590008F91
:1032AB00E0B40100E433F090008FE070140EBE0028
:1032BB00010F8E828F83E0C4540FFD900077F08056
:1032CB000E8E828F83E0FD53050F900077EDF0900B
:1032DB000077E0F582C007C006122995D006D0070B
:1032EB0080AA900087E07003022A69900091E0FEAB
:1032FB00A3E0FF8E038F051EBEFF011FEB4D700376
:10330B00022A69758220C007C00612295AD006D03E
:10331B000780E08C8212295A022A69900078E0FE1D
:07332B00A3E08E82F583226E
:0B33C4003C4E4F20464C4F41543E0051
:10333200AA82AB8312336A6003A380F8C3E5829A40
:10334200F582E5839BF58322AA83AB828BF0900002
:10335200A0E0A4F8A9F08AF0E0A429F98BF0A3E098
:08336200A429F58388822222D0
:0D201100758118123386E582600302200EEF
:10336A0020F71430F6148883A88220F507E6A8838C
:10337A0075830022E280F7E49322E022758200221C
:00000001FF
