:20206D007EE87F031EBEFF011FEE4F70F722438901758C4B758AFCD28CD2AFD2A92290F298
:20208D0000E0FEA3E0EE20E7F52212206D90F0007430F0E4A3F012206D90F0007430F0E405
:2020AD00A3F012206D90F0007430F0E4A3F012208B90F0007438F0E4A3F012208B90F000C9
:2020CD007408F0E4A3F012208B90F000740CF0E4A3F012208B90F0007406F0E4A3F012209C
:2020ED008B90F0007401F0E4A3F022E582900001F012208B900001E090F100F0E4A3F022AA
:20210D0012208B90F0007401F0E4A3F022E582900002F012208B900002E0FF7E0090F00062
:20212D0074804FF0EEA3F022E582900004F012208B900004E075F010A424A4FE740035F028
:20214D00FF900003E02EF582E43FF583E0F58202211AAFF0AE83E582900005F0EEA3F0EF00
:20216D00A3F0900008E4F0A3F0900005E0F50AA3E0F50BA3E0F50CAA0AAB0BAC0C78007932
:20218D00008806E9C454F0CEC4CE6ECE54F0CE6EFF900008E0F508A3E0F509EE2508FEEF9A
:2021AD003509FFEE2AFEEF3BFF8C058E828F838DF012331A700122C004C003C002C001C0AA
:2021CD000012208BD000D001D002D003D004C3740F950874808509F063F08095F0500C080A
:2021ED00B8000109900008E4F0A3F0C002C003C0048803E9C454F0CBC4CB6BCB54F0CB6B42
:20220D00FCEB24A4FAEC3400FF900008E0FDA3E0FEED2AF582EE3FF583E0F582C006C005DE
:20222D00C004C003C002C001C00012211AD000D001D002D003D004D005D006EB2DFBEC3E78
:20224D00FCEB250AFBEC350BFCAF0C8B828C838FF012331AFBF582C006C005C004C003C03F
:20226D0002C001C0001220F8D000D001D002D003D004D005D00690000874012DF0E43EA3F0
:20228D00F0D004D003D00202218EE59830E0FBC298AE997F008E828F8322AF83E582900002
:2022AD000AF0EFA3F0E59830E1FB90000AE0FEA3E08E99C29990000022AFF0AE83E5829016
:2022CD00000CF0EEA3F0EFA3F090000FE4F0A3F0122297AE82AF83BE0802800DBE0A028020
:2022ED0062BE0D02805D02237890000FE0FDA3E0FF90000FE0F5F0A3E045F070030223B0C6
:20230D00900008C007C0051222A79000201222A79000081222A7D005D00790000CE024FF68
:20232D00FAA3E034FFFBA3E0FC90000CEAF0EBA3F0ECA3F01DBDFF011F90000FEDF0EFA3EC
:20234D00F0806090000D1222A790000A1222A790000CE0FCA3E0FDA3E0FF8C828D838FF09C
:20236D00E412265C8C828D838FF02290000CE0FCA3E0FDA3E0FF8C828D838FF0EE12265C80
:20238D0090000C74012CF0E43DA3F0EFA3F090000FE02401F0A3E03400F07F008E828F83F1
:2023AD001222A790000FE0FEA3E0FFBE3005BF000280030222DD743AC0E07433C0E0748075
:0C23CD00C0E01228D8158115811581226E
:20333A000A0D506C6561736520496E7075742061206D6178696D756D206F66203634206430
:08335A0069676974730A0D0034
:20336D00000102030405060708090A0B0C0D0E0F404142434445464748494A4B4C4D4E4F50
:20338D00101112131415161718191A1B1C1D1E1F505152535455565758595A5B5C5D5E5F30
:042000000220113277
:03200B00022504A7
:03206A0002200E43
:03200E000223D9D1
:2023D900900016E4F0900011F0900012F0900013F0900014F0900015F0900053F0900054D4
:2023F900743CF0E4A3F090001775F00012263412209712210D12208B90F0007440F0E4A3C4
:20241900F012208B90F100741BF0E4A3F012208B90F0007441F0E4A3F012208B90F1007474
:202439001BF0E4A3F012208B90F0007442F0E4A3F012208B90F100E4F0A3F012208B90F0C5
:20245900007443F0E4A3F012208B90F1007404F0E4A3F012208B90F0007444F0E4A3F012BA
:20247900208B90F1007404F0E4A3F012208B90F0007445F0E4A3F012208B90F1007411F028
:20249900E4A3F012208B90F0007446F0E4A3F012208B90F100740EF0E4A3F012208B90F0EA
:2024B900007447F0E4A3F012208B90F100E4F0A3F012208B9000037401F075820312213525
:2024D90012208B90F0007480F0E4A3F012208B90F100E4F0A3F012207B900016E0FFBF01B4
:2024F900F8900016E4F012258280EEC0E0C082C083C007C0D075D000758C4B758AFC900092
:2025190015E02401F0E0FFBF0254900011E0FF24F6503A900012E02401F0E0FF24C45028AA
:20253900900013E02401F0E0FFBF3B17900014E02401F0E0FF24E85005900014E4F0900019
:2025590013E4F0900012E4F0900011E4F0900011E02401F0900015E4F090001604F0D0D047
:20257900D007D083D082D0E03275825712211A900014E02430F5821220F875823A1220F875
:20259900900013E0FF7E00900060740AF0E4A3F08F828E8312278BAE8274302EF5821220BC
:2025B900F8900013E0FF7E00900057740AF0E4A3F08F828E83122677AE8274302EF58212E2
:2025D90020F875823A1220F8900012E0FF7E00900060740AF0E4A3F08F828E8312278BAE07
:2025F9008274302EF5821220F8900012E0FF7E00900057740AF0E4A3F08F828E8312267731
:1B261900AE8274302EF5821220F875822E1220F8900011E02430F5820220F84E
:06204000E478FFF6D8FD74
:20263400AC82AD83900054E0FEA3E0FFBE000360121F0F900053E08C828D8312265CA3DE8D
:08265400FADFF88C828D83226D
:20201E007940E94400601B7A0190336D78A475A000E493F2A308B8000205A0D9F4DAF275E4
:02203E00A0FF01
:1B265C0020F71130F6138883A88220F509F6A8837583002280FEF280F5F0227D
:20267700AF83E582900059F0EFA3F0900059E0FEA3E0FF30E709C3E49EFCE49FFD80048E13
:20269700048F05900057E0FEA3E0FF30E709C3E49EFAE49FFB80048E028F0390005BEAF0FC
:2026B700EBA3F08C828D831226DFAE82AF83900059E0A3E030E70CC3E49EFCE49FFD8C82B0
:0826D7008D83228E828F832285
:2026DF00AF83E58290005DF0EFA3F090005FE4F090005DE0FEA3E0FF7D0090005BE0FBA3ED
:2026FF00E0FC235401FA7036EB2BFBEC33FC90005BEBF0ECA3F090005BE0FBA3E0FCC3EE60
:20271F009BEF9C5011ECC313CB13CBFC90005BEBF0ECA3F080080D90005FEDF080BC90003A
:20273F005FE0FF90005DE0FDA3E0FE90005BE0FBA3E0FCC3ED9BEE9C400B90005DEDC39B54
:20275F00F0EE9CA3F090005BE0FDA3E0C313CD13CDFE90005BEDF0EEA3F08F061FEE70C363
:0C277F0090005DE0FEA3E08E82F5832256
:202046007800E84400600A790175A000E4F309D8FC78A3E84400600C7901900001E4F0A3F4
:04206600D8FCD9FACF
:20278B00AF83E582900062F0EFA3F0900062E0FEA3E0FF30E709C3E49EFCE49FFD80048EEC
:2027AB00048F05900060E0FEA3E0FF33E433FB6009C3E49EF9E49FFA80048E018F02900089
:2027CB0064E9F0EAA3F08C828D83C0031227FDAE82AF83D003900062E0A3E033E4336B607E
:1227EB000CC3E49EFCE49FFD8C828D83228E828F83228B
:2027FD00AF83E582900066F0EFA3F0900068E4F0A3F0900064E0FEA3E0FF7D10900066E0A5
:20281D00FBA3E0FC90006A235401F0EB2BFBEC33FC900066EBF0ECA3F0900068E0FBA3E0ED
:20283D00FCEB2BFBEC33FC900068EBF0ECA3F090006AE06008900068E043E001F0900068DB
:20285D00E0FBA3E0FCC3EB9EEC9F4013900068EBC39EF0EC9FA3F0900066E043E001F0DDBE
:0D287D009B900066E0FEA3E08E82F58322B2
:20288A00C0178581177E008E831222A7D01722AFF0AE83E58290006CF0EEA3F0EFA3F09011
:2028AA00006CE0FDA3E0FEA3E0FF90006BE0FC900080E4F0A3F0A3F0900083EDF0EEA3F070
:2028CA00EFA3F0900086ECF090288A0229E1C017E581F51724FBFF900080E4F0A3F0A3F0BB
:2028EA00E51724FBF8900083E6F008E6A3F008E6A3F0900086EFF090288A1229E1D0172274
:20290A00E58290007CF0E0FF900072E0C0E0A3E0C0E0A3E0C0E0122925800D900070E0C016
:20292A00E0A3E0C0E08F822215811581158190007AE02401F0A3E03400F022E58290007D59
:20294A00F0E02430FF24C6500D74072FFF90006FE060034307208F8202290AE58290007EF3
:20296A00F0E0FFC4540FF582C007122945D00753070F8F82022945E58290007FF09000756D
:20298A00E0FCA3E0FDA3E0FEA3E0FF900079E0FB75182090007FE0F98B00E828F8EF23545C
:2029AA000148FBEC2CFCED33FDEE33FEEF33FFC3EB994007EBC399FB430401E51814FA8AAB
:2029CA001870D5900075ECF0EDA3F0EEA3F0EFA3F0900079EBF022AF83E582900087F0EF97
:2029EA00A3F0900087E0FEA3E0FF900070EEF0EFA3F0900080E0FDA3E0FEA3E0FF90007271
:202A0A00EDF0EEA3F0EFA3F090007AE4F0A3F0900083E0FDA3E0FEA3E0FF8D828E838FF0C9
:202A2A0012331AFC90008374012DF0E43EA3F0EFA3F0EC70030232D6BC250280030232CE84
:202A4A00900089E4F090008AF090008BF090008CF090008DF090008EF090008FF090009014
:202A6A00F0900092F0900093F0A3F090009514F0A3F0900083E0FDA3E0FEA3E0FF8D828E58
:202A8A00838FF012331AFBA3AD82AE83900083EDF0EEA3F0EFA3F0900099EBF0BB25088B63
:202AAA008212290A022A19BB30005003022B7AEB24C65003022B7A900095E0F50DA3E0F5CD
:202ACA000E74FFB50D63B50E60C005C006C007900093E0FAA3E0FF9000A2EAF0EFA3F09034
:202AEA00000AC005C0031232FAAE82AF83D003D0058B027D00EA2EFEED3FFFEE24D0FEEFD8
:202B0A0034FFFF900093EEF0EFA3F0D007D006D005900093E0F5F0A3E045F06003022A87BE
:202B2A0090008A7401F0022A87C005C006C0079000A2E50DF0E50EA3F090000AC006C00548
:202B4A00C0031232FAAA82AF83D003D005D0067E00EB2AFAEE3FFFEA24D0FAEF34FFFF904C
:202B6A000095EAF0EFA3F0D007D006D005022A87900099E0FBBB2E2FC005C006C007900027
:202B8A0095E0FAA3E0FFBAFF05BFFF028009D007D006D005022A87D007D006D00590009557
:202BAA00E4F0A3F0022A87BB61004014EB2485400F90009974DF5BF090006F7401F08005EE
:202BCA0090006FE4F0900099E0FBBB20028075BB2B028067BB2D028059BB4202806FBB43C4
:202BEA0002807CBB4403022E71BB4603022E97BB4803022A87BB4903022E71BB4A03022ACA
:202C0A0087BB4C028050BB4F03022E7FBB5003022DDFBB53028077BB5403022A87BB550393
:202C2A00022E87BB5803022E8FBB5A03022A87022E9F9000897401F0022A8790008B7401A3
:202C4A00F0022A8790008C7401F0022A8790008E7401F0022A8790008F7401F0022A879096
:202C6A00008EE0600E900086E014F9F0900099E7F0800F900086E024FEFFF08F019000992C
:202C8A00E7F0900099E0F58212290A022EAE900086E024FDFFF08F01870509870609870761
:202CAA001919900075EDF0EEA3F0EFA3F08D828E838FF01232E285820D85830E900095E0FF
:202CCA00FAA3E0FDBAFF0DBDFF0A900095E50DF0E50EA3F0900089E0704B900093E0FAA303
:202CEA00E0FDC3E50D9AE50E9D503A900093EAC3950DF0ED950EA3F0900093E0FAA3E0FD82
:202D0A008A068D071ABAFF011DEE4F6010758220C005C00212290AD002D00580E3900093D7
:202D2A00EAF0EDA3F0900095E0F510A3E0F511900075E0FAA3E0FDA3E0FF8A828D838FF020
:202D4A0012331AF50F603CC3E4951074808511F063F08095F0502C151074FFB5100215114B
:202D6A00850F8212290A900075E0FAA3E0FDA3E0FF0ABA00010D900075EAF0EDA3F0EFA34A
:202D8A00F080AC900089E07003022EAE900093E0FEA3E0FFC3E50D9EE50E9F4003022EAE3A
:202DAA00900093EEC3950DF0EF950EA3F0900093E0FEA3E0FF8E028F051EBEFF011FEA4DA5
:202DCA007003022EA6758220C007C00612290AD006D00780E0900086E024FDFDF08D018791
:202DEA00120987130987141919900075E512F0E513A3F0E514A3F0900077E0FDBD800040DA
:202E0A00089000997443F08020BD600040089000997450F08013BD40004008900099744930
:202E2A00F080069000997458F0900099E0FDF582C00512290A75823A12290A7582301229CE
:202E4A000A75827812290AD005BD4902800EBD50028009900076E0F582122965900075E0C5
:202E6A00F582122965803D90008D7401F0900092740AF0802F9000927408F080279000925C
:202E8A00740AF0801F9000927410F080179000907401F0800F8B8212290A8008900093EEEF
:202EAA00F0EFA3F0900090E06071900086E024FCFFF08F01870309870509870609870719CB
:202ECA001919900075EBF0EDA3F0EEA3F0EFA3F09000757462F07433A3F07480A3F0900037
:202EEA0075E0F512A3E0F513A3E0F51474012512FAE43513FBAF14900075EAF0EBA3F0EF79
:202F0A00A3F08512828513838514F012331AFF7003022A198F8212290A80C3900092E07036
:202F2A0003022A1990008EE06047900086E014F9F087077E007D007B00900075EFF0EEA32E
:202F4A00F0EDA3F0EBA3F090008DE06003022FF1900075E0FBA3E0A3E0A3E07D007E007F14
:202F6A0000900075EBF0EDA3F0EEA3F0EFA3F0807690008FE06028900086E024FCFFF08FD3
:202F8A00018703098705098706098707191919900075EBF0EDA3F0EEA3F0EFA3F0804890D4
:202FAA000086E024FEFFF08F01870609870719EF3395E0FDFB900075EEF0EFA3F0EDA3F04F
:202FCA00EBA3F090008DE0701E900075E0FBA3E0FDA3E0A3E07E007F00900075EBF0EDA30B
:202FEA00F0EEA3F0EFA3F090008DE06041900075E0FBA3E0FDA3E0FEA3E0FF30E72B900001
:20300A0075E0FBA3E0FDA3E0FEA3E0FFC3E49BFBE49DFDE49EFEE49FFF900075EBF0EDA3A6
:20302A00F0EEA3F0EFA3F0800590008DE4F09000917401F0900092E0F51075159F751600DC
:20304A00E4F50DF50E900079E4F0851082122981900091E07026900079E0C4F51285158266
:20306A00851683E0FFE5124207851582851683EFF0151574FFB515021516800C900079E0E7
:20308A00FF851582851683F0050DE4B50D02050E900091E0B40100E433F0900075E0FAA3F1
:2030AA00E0FBA3E0FEA3E0FFEA4B4E4F70979000A0E515F0E516A3F0900097E50DF0E50EAB
:2030CA00A3F0900093E0F5F0A3E045F070099000937401F0E4A3F090008AE0FFE07047901B
:2030EA000089E07041850D15850E16900093E0FAA3E0FBC007AF150F8F067F00C3EE9AEFF9
:20310A009BD0075019758220C007C003C00212290AD002D003D0071ABAFF011B80D59000D2
:20312A0093EAF0EBA3F090008DE0602075822DC00712290AD007900093E024FFFDA3E0343C
:20314A00FFFE900093EDF0EEA3F08056900097E0F5F0A3E045F0604A90008BE06020758251
:20316A002BC00712290AD007900093E024FFFDA3E034FFFE900093EDF0EEA3F080249000AB
:20318A008CE0601E758220C00712290AD007900093E024FFFDA3E034FFFE900093EDF0EE7C
:2031AA00A3F0900089E07048900097E0F515A3E0F516900093E0FAA3E0FBC0078A068B07BE
:2031CA001ABAFF011BC3E5159EE5169FD0075053EF60067D307E0080047D207E008D82C099
:2031EA0007C003C00212290AD002D003D00780CA900093E0FEA3E0FF900097E0F515A3E017
:20320A00F516C3E5159EE5169F500F900093EEC39515F0EF9516A3F08011900093E4F0A37F
:20322A00F08008900093EAF0EBA3F09000A0E0FEA3E0FF900097E0F515A3E0F516AA15ADF6
:20324A0016151574FFB515021516EA4D6045900091E0B40100E433F0900091E070140EBED0
:20326A0000010F8E828F83E0C4540FFD900079F0800E8E828F83E0FD53050F900079EDF03B
:20328A00900079E0F582C007C006122945D006D00780AA900089E07003022A19900093E02C
:2032AA00FEA3E0FF8E038F051EBEFF011FEB4D7003022A19758220C007C00612290AD006B5
:1832CA00D00780E08C8212290A022A1990007AE0FEA3E08E82F5832208
:0B3362003C4E4F20464C4F41543E00B3
:1832E200AA82AB8312331A6003A380F8C3E5829AF582E5839BF58322C5
:2032FA00AA83AB828BF09000A2E0A4F8A9F08AF0E0A429F98BF0A3E0A429F58388822222E7
:0D201100758118123336E582600302200E3F
:1C331A0020F71430F6148883A88220F507E6A88375830022E280F7E49322E022C2
:04333600758200227A
:00000001FF
