:10206D007EE87F031EBEFF011FEE4F70F7224389EE
:10207D0001758C4B758AFCD28CD2AFD2A92290F20D
:10208D0000E0FEA3E0EE20E7F52212206D90F000B7
:10209D007430F0E4A3F012206D90F0007430F0E491
:1020AD00A3F012206D90F0007430F0E4A3F0122034
:1020BD008B90F0007438F0E4A3F012208B90F000B8
:1020CD007408F0E4A3F012208B90F000740CF0E48F
:1020DD00A3F012208B90F0007406F0E4A3F0122010
:1020ED008B90F0007401F0E4A3F022E582900001E2
:1020FD00F012208B900001E090F100F0E4A3F022AB
:10210D0012208B90F0007401F0E4A3F022E5829090
:10211D000002F012208B900002E0FF7E0090F00094
:10212D0074804FF0EEA3F022E582900004F01220AF
:10213D008B900004E075F010A424A4FE740035F01B
:10214D00FF900003E02EF582E43FF583E0F5820277
:10215D00211AAFF0AE83E582900005F0EEA3F0EF0B
:10216D00A3F0900008E4F0A3F0900005E0F50AA3B9
:10217D00E0F50BA3E0F50CAA0AAB0BAC0C780079DB
:10218D00008806E9C454F0CEC4CE6ECE54F0CE6EA7
:10219D00FF900008E0F508A3E0F509EE2508FEEF35
:1021AD003509FFEE2AFEEF3BFF8C058E828F838D66
:1021BD00F0123375700122C004C003C002C001C00B
:1021CD000012208BD000D001D002D003D004C374F4
:1021DD000F950874808509F063F08095F0500C0818
:1021ED00B8000109900008E4F0A3F0C002C003C0DC
:1021FD00048803E9C454F0CBC4CB6BCB54F0CB6B48
:10220D00FCEB24A4FAEC3400FF900008E0FDA3E001
:10221D00FEED2AF582EE3FF583E0F582C006C0059E
:10222D00C004C003C002C001C00012211AD000D0EA
:10223D0001D002D003D004D005D006EB2DFBEC3E2F
:10224D00FCEB250AFBEC350BFCAF0C8B828C838FE2
:10225D00F0123375FBF582C006C005C004C003C083
:10226D0002C001C0001220F8D000D001D002D0036E
:10227D00D004D005D00690000874012DF0E43EA3E3
:10228D00F0D004D003D00202218EE59830E0FBC2DD
:10229D0098AE997F008E828F8322AF83E582900066
:1022AD000AF0EFA3F0E59830E1FB90000AE0FEA301
:1022BD00E08E99C29990000022AFF0AE83E5829036
:1022CD00000CF0EEA3F0EFA3F090000FE4F0A3F0FC
:1022DD00122297AE82AF83BE0802800DBE0A028025
:1022ED0062BE0D02805D02237890000FE0FDA3E039
:1022FD00FF90000FE0F5F0A3E045F070030223B06E
:10230D00900008C007C0051222A79000201222A736
:10231D009000081222A7D005D00790000CE024FFF2
:10232D00FAA3E034FFFBA3E0FC90000CEAF0EBA372
:10233D00F0ECA3F01DBDFF011F90000FEDF0EFA31A
:10234D00F0806090000D1222A790000A1222A79033
:10235D00000CE0FCA3E0FDA3E0FF8C828D838FF0E9
:10236D00E41225AE8C828D838FF02290000CE0FC60
:10237D00A3E0FDA3E0FF8C828D838FF0EE1225AEDE
:10238D0090000C74012CF0E43DA3F0EFA3F090004D
:10239D000FE02401F0A3E03400F07F008E828F83E4
:1023AD001222A790000FE0FEA3E0FFBE3C05BF0088
:1023BD000280030222DD7495C0E07433C0E07480A6
:0C23CD00C0E01229331581158115812212
:103395000A0D506C6561736520496E707574206106
:1033A500206D6178696D756D206F662036342064F7
:0833B50069676974730A0D00D9
:1033D700000102030405060708090A0B0C0D0E0F6E
:1033E700404142434445464748494A4B4C4D4E4F5E
:1033F700101112131415161718191A1B1C1D1E1F4E
:10340700505152535455565758595A5B5C5D5E5F3D
:042000000220113277
:03200B0002245656
:03206A0002200E43
:03200E000223D9D1
:1023D900900016E4F0900011F0900012F0900013B4
:1023E900F0900014F0900015F0900053F090005414
:1023F900743CF0E4A3F090001775F00012258612E2
:10240900209712210D9000037401F07582031221A7
:10241900357582611220F874BDC0E07433C0E012D2
:1024290025C91581158190001775F0001222C690F3
:10243900001775F00012215F12207B900016E0FF53
:10244900BF01F8900016E4F01224D480EEC0E0C079
:1024590082C083C007C0D075D000758C4B758AFCCB
:10246900900015E02401F0E0FFBF0254900011E054
:10247900FF24F6503A900012E02401F0E0FF24C452
:102489005028900013E02401F0E0FFBF3B179000B3
:1024990014E02401F0E0FF24E85005900014E4F072
:1024A900900013E4F0900012E4F0900011E4F09031
:1024B9000011E02401F0900015E4F090001604F0FA
:1024C900D0D0D007D083D082D0E032758257122184
:1024D9001A900014E02430F5821220F875823A121D
:1024E90020F8900013E0FF7E00900060740AF0E489
:1024F900A3F08F828E831227E6AE8274302EF58286
:102509001220F8900013E0FF7E00900057740AF043
:10251900E4A3F08F828E831226D2AE8274302EF518
:10252900821220F875823A1220F8900012E0FF7E9C
:1025390000900060740AF0E4A3F08F828E83122762
:10254900E6AE8274302EF5821220F8900012E0FF78
:102559007E00900057740AF0E4A3F08F828E8312F4
:1025690026D2AE8274302EF5821220F875822E1290
:0D25790020F8900011E02430F5820220F8D7
:0F33BD00456E74657220537472696E670A0D0055
:06204000E478FFF6D8FD74
:10258600AC82AD83900054E0FEA3E0FFBE00036082
:10259600121F0F900053E08C828D831225AEA3DEAE
:0825A600FADFF88C828D83221C
:10201E007940E94400601B7A019033D778A475A00B
:10202E0000E493F2A308B8000205A0D9F4DAF27521
:02203E00A0FF01
:1025AE0020F71130F6138883A88220F509F6A88348
:1025BE007583002280FEF280F5F022C00D85810D1C
:1025CE00E50D24FDF8868318868218E493A324DB98
:1025DE00600C242560051226B780F00226CFD2D5D6
:1025EE00E493A3C083C082B4731486F01886831854
:1025FE008682181233756054A31226B780F5B46321
:10260E000818E6181226B78043B46417E630E7467A
:10261E0018E6F42401F608E6F43400F6742D1226BA
:10262E00B78033B4782D868318868218E41226A8D4
:10263E00E5831226A7E5831226A8E5821226A7E5D2
:10264E00821226A830D50574301226B7D082D083D8
:10265E000225D9B475F6E6FA18E6F9187C107D272E
:10266E00122692FF7CE87D03122692C4F5837C64C9
:10267E007D001226924283E975F00A84C445F0F576
:10268E0082EF80A97B000BC3E99CF9EA9DFA50F614
:10269E001BE92CF9EA3DFAEB22C4540F700320D546
:1026AE001FC2D52490D43440D4C083C082C0F0F56C
:1026BE0082E8C0E01222A7D0E0F8D0F0D082D0831A
:1026CE0022D00D22AF83E582900059F0EFA3F09057
:1026DE000059E0FEA3E0FF30E709C3E49EFCE49F4F
:1026EE00FD80048E048F05900057E0FEA3E0FF30BE
:1026FE00E709C3E49EFAE49FFB80048E028F0390E9
:10270E00005BEAF0EBA3F08C828D8312273AAE8247
:10271E00AF83900059E0A3E030E70CC3E49EFCE4E5
:10272E009FFD8C828D83228E828F8322AF83E582E2
:10273E0090005DF0EFA3F090005FE4F090005DE09C
:10274E00FEA3E0FF7D0090005BE0FBA3E0FC2354C2
:10275E0001FA7036EB2BFBEC33FC90005BEBF0ECEC
:10276E00A3F090005BE0FBA3E0FCC3EE9BEF9C505C
:10277E0011ECC313CB13CBFC90005BEBF0ECA3F08E
:10278E0080080D90005FEDF080BC90005FE0FF9040
:10279E00005DE0FDA3E0FE90005BE0FBA3E0FCC368
:1027AE00ED9BEE9C400B90005DEDC39BF0EE9CA369
:1027BE00F090005BE0FDA3E0C313CD13CDFE9000BF
:1027CE005BEDF0EEA3F08F061FEE70C390005DE0A0
:0827DE00FEA3E08E82F58322C8
:102046007800E84400600A790175A000E4F309D835
:10205600FC78A3E84400600C7901900001E4F0A349
:04206600D8FCD9FACF
:1027E600AF83E582900062F0EFA3F0900062E0FE16
:1027F600A3E0FF30E709C3E49EFCE49FFD80048E5E
:10280600048F05900060E0FEA3E0FF33E433FB6035
:1028160009C3E49EF9E49FFA80048E018F029000BA
:1028260064E9F0EAA3F08C828D83C003122858AEC7
:1028360082AF83D003900062E0A3E033E4336B60A1
:102846000CC3E49EFCE49FFD8C828D83228E828FD6
:102856008322AF83E582900066F0EFA3F0900068D4
:10286600E4F0A3F0900064E0FEA3E0FF7D1090008A
:1028760066E0FBA3E0FC90006A235401F0EB2BFB1F
:10288600EC33FC900066EBF0ECA3F0900068E0FB04
:10289600A3E0FCEB2BFBEC33FC900068EBF0ECA325
:1028A600F090006AE06008900068E043E001F09074
:1028B6000068E0FBA3E0FCC3EB9EEC9F4013900096
:1028C60068EBC39EF0EC9FA3F0900066E043E00146
:1028D600F0DD9B900066E0FEA3E08E82F58322C0C9
:1028E6000D85810D7E008E831222A7D00D22AFF0BA
:1028F600AE83E58290006CF0EEA3F0EFA3F09000BB
:102906006CE0FDA3E0FEA3E0FF90006BE0FC90000E
:1029160080E4F0A3F0A3F0900083EDF0EEA3F0EFD7
:10292600A3F0900086ECF09028E5022A3CC00DE565
:1029360081F50D24FBFF900080E4F0A3F0A3F0E501
:102946000D24FBF8900083E6F008E6A3F008E6A362
:10295600F0900086EFF09028E5122A3CD00D22E593
:102966008290007CF0E0FF900072E0C0E0A3E0C03F
:10297600E0A3E0C0E0122980800D900070E0C0E086
:10298600A3E0C0E08F822215811581158190007A1F
:10299600E02401F0A3E03400F022E58290007DF00F
:1029A600E02430FF24C6500D74072FFF90006FE01F
:1029B60060034307208F82022965E58290007EF03E
:1029C600E0FFC4540FF582C0071229A0D0075307B1
:1029D6000F8F820229A0E58290007FF0900075E0BB
:1029E600FCA3E0FDA3E0FEA3E0FF900079E0FB7509
:1029F600182090007FE0F98B00E828F8EF235401B7
:102A060048FBEC2CFCED33FDEE33FEEF33FFC3EB5E
:102A1600994007EBC399FB430401E51814FA8A1899
:102A260070D5900075ECF0EDA3F0EEA3F0EFA3F0F7
:102A3600900079EBF022AF83E582900087F0EFA358
:102A4600F0900087E0FEA3E0FF900070EEF0EFA3A9
:102A5600F0900080E0FDA3E0FEA3E0FF900072EDA1
:102A6600F0EEA3F0EFA3F090007AE4F0A3F090006C
:102A760083E0FDA3E0FEA3E0FF8D828E838FF0123C
:102A86003375FC90008374012DF0E43EA3F0EFA3B0
:102A9600F0EC7003023331BC250280030233299027
:102AA6000089E4F090008AF090008BF090008CF0A2
:102AB60090008DF090008EF090008FF0900090F0D6
:102AC600900092F0900093F0A3F090009514F0A37C
:102AD600F0900083E0FDA3E0FEA3E0FF8D828E83ED
:102AE6008FF0123375FBA3AD82AE83900083EDF0B9
:102AF600EEA3F0EFA3F0900099EBF0BB25088B82D4
:102B0600122965022A74BB30005003022BD5EB2430
:102B1600C65003022BD5900095E0F50EA3E0F50F05
:102B260074FFB50E63B50F60C005C006C007900000
:102B360093E0FAA3E0FF9000A2EAF0EFA3F0900082
:102B46000AC005C003123355AE82AF83D003D00549
:102B56008B027D00EA2EFEED3FFFEE24D0FEEF3421
:102B6600FFFF900093EEF0EFA3F0D007D006D0055C
:102B7600900093E0F5F0A3E045F06003022AE290AE
:102B8600008A7401F0022AE2C005C006C007900060
:102B9600A2E50EF0E50FA3F090000AC006C005C03E
:102BA60003123355AA82AF83D003D005D0067E0028
:102BB600EB2AFAEE3FFFEA24D0FAEF34FFFF90004B
:102BC60095EAF0EFA3F0D007D006D005022AE290EE
:102BD6000099E0FBBB2E2FC005C006C007900095EC
:102BE600E0FAA3E0FFBAFF05BFFF028009D007D0D5
:102BF60006D005022AE2D007D006D005900095E45B
:102C0600F0A3F0022AE2BB61004014EB2485400FDA
:102C160090009974DF5BF090006F7401F08005906E
:102C2600006FE4F0900099E0FBBB20028075BB2B9F
:102C3600028067BB2D028059BB4202806FBB4302F4
:102C4600807CBB4403022ECCBB4603022EF2BB485B
:102C560003022AE2BB4903022ECCBB4A03022AE244
:102C6600BB4C028050BB4F03022EDABB5003022E30
:102C76003ABB53028077BB5403022AE2BB550302D8
:102C86002EE2BB5803022EEABB5A03022AE2022EA8
:102C9600FA9000897401F0022AE290008B7401F028
:102CA600022AE290008C7401F0022AE290008E74EF
:102CB60001F0022AE290008F7401F0022AE29000ED
:102CC6008EE0600E900086E014F9F0900099E7F02F
:102CD600800F900086E024FEFFF08F01900099E7B8
:102CE600F0900099E0F582122965022F099000867E
:102CF600E024FDFFF08F018705098706098707197C
:102D060019900075EDF0EEA3F0EFA3F08D828E839F
:102D16008FF012333D85820E85830F900095E0FA81
:102D2600A3E0FDBAFF0DBDFF0A900095E50EF0E5A4
:102D36000FA3F0900089E0704B900093E0FAA3E0B7
:102D4600FDC3E50E9AE50F9D503A900093EAC395B0
:102D56000EF0ED950FA3F0900093E0FAA3E0FD8A44
:102D6600068D071ABAFF011DEE4F6010758220C04E
:102D760005C002122965D002D00580E3900093EACF
:102D8600F0EDA3F0900095E0F511A3E0F5129000A8
:102D960075E0FAA3E0FDA3E0FF8A828D838FF0122F
:102DA6003375F510603CC3E4951174808512F063A9
:102DB600F08095F0502C151174FFB511021512858F
:102DC6001082122965900075E0FAA3E0FDA3E0FFEA
:102DD6000ABA00010D900075EAF0EDA3F0EFA3F03A
:102DE60080AC900089E07003022F09900093E0FE0A
:102DF600A3E0FFC3E50E9EE50F9F4003022F099057
:102E06000093EEC3950EF0EF950FA3F0900093E0BC
:102E1600FEA3E0FF8E028F051EBEFF011FEA4D7066
:102E260003022F01758220C007C006122965D0064D
:102E3600D00780E0900086E024FDFDF08D01871329
:102E46000987140987151919900075E513F0E5141B
:102E5600A3F0E515A3F0900077E0FDBD80004008E3
:102E66009000997443F08020BD600040089000995E
:102E76007450F08013BD400040089000997449F0EA
:102E860080069000997458F0900099E0FDF582C094
:102E96000512296575823A122965758230122965EF
:102EA600758278122965D005BD4902800EBD500293
:102EB6008009900076E0F5821229C0900075E0F551
:102EC600821229C0803D90008D7401F090009274AA
:102ED6000AF0802F9000927408F080279000927478
:102EE6000AF0801F9000927410F080179000907482
:102EF60001F0800F8B821229658008900093EEF016
:102F0600EFA3F0900090E06071900086E024FCFF53
:102F1600F08F0187030987050987060987071919AD
:102F260019900075EBF0EDA3F0EEA3F0EFA3F0908F
:102F3600007574CCF07433A3F07480A3F090007520
:102F4600E0F513A3E0F514A3E0F51574012513FAD3
:102F5600E43514FBAF15900075EAF0EBA3F0EFA390
:102F6600F08513828514838515F0123375FF70037F
:102F7600022A748F8212296580C3900092E0700342
:102F8600022A7490008EE06047900086E014F9F003
:102F960087077E007D007B00900075EFF0EEA3F0C2
:102FA600EDA3F0EBA3F090008DE0600302304C90AF
:102FB6000075E0FBA3E0A3E0A3E07D007E007F00B8
:102FC600900075EBF0EDA3F0EEA3F0EFA3F08076A2
:102FD60090008FE06028900086E024FCFFF08F01CF
:102FE60087030987050987060987071919199000B4
:102FF60075EBF0EDA3F0EEA3F0EFA3F080489000A0
:1030060086E024FEFFF08F01870609870719EF3354
:1030160095E0FDFB900075EEF0EFA3F0EDA3F0EB6D
:10302600A3F090008DE0701E900075E0FBA3E0FD1C
:10303600A3E0A3E07E007F00900075EBF0EDA3F027
:10304600EEA3F0EFA3F090008DE06041900075E0F4
:10305600FBA3E0FDA3E0FEA3E0FF30E72B900075A5
:10306600E0FBA3E0FDA3E0FEA3E0FFC3E49BFBE4DB
:103076009DFDE49EFEE49FFF900075EBF0EDA3F04E
:10308600EEA3F0EFA3F0800590008DE4F0900091A0
:103096007401F0900092E0F51175169F751700E423
:1030A600F50EF50F900079E4F08511821229DC9077
:1030B6000091E07026900079E0C4F51385168285AC
:1030C6001783E0FFE5134207851682851783EFF025
:1030D600151674FFB516021517800C900079E0FFDF
:1030E600851682851783F0050EE4B50E02050F904E
:1030F6000091E0B40100E433F0900075E0FAA3E03B
:10310600FBA3E0FEA3E0FFEA4B4E4F70979000A0B2
:10311600E516F0E517A3F0900097E50EF0E50FA38E
:10312600F0900093E0F5F0A3E045F070099000936D
:103136007401F0E4A3F090008AE0FFE0704790008D
:1031460089E07041850E16850F17900093E0FAA36B
:10315600E0FBC007AF160F8F067F00C3EE9AEF9B0A
:10316600D0075019758220C007C003C00212296516
:10317600D002D003D0071ABAFF011B80D590009366
:10318600EAF0EBA3F090008DE0602075822DC00779
:10319600122965D007900093E024FFFDA3E034FFD9
:1031A600FE900093EDF0EEA3F08056900097E0F5C8
:1031B600F0A3E045F0604A90008BE0602075822B1A
:1031C600C007122965D007900093E024FFFDA3E015
:1031D60034FFFE900093EDF0EEA3F0802490008C77
:1031E600E0601E758220C007122965D00790009303
:1031F600E024FFFDA3E034FFFE900093EDF0EEA384
:10320600F0900089E07048900097E0F516A3E0F58D
:1032160017900093E0FAA3E0FBC0078A068B071A13
:10322600BAFF011BC3E5169EE5179FD0075053EF63
:1032360060067D307E0080047D207E008D82C00782
:10324600C003C002122965D002D003D00780CA90FD
:103256000093E0FEA3E0FF900097E0F516A3E0F5EB
:1032660017C3E5169EE5179F500F900093EEC39582
:1032760016F0EF9517A3F08011900093E4F0A3F0F9
:103286008008900093EAF0EBA3F09000A0E0FEA384
:10329600E0FF900097E0F516A3E0F517AA16AD1724
:1032A600151674FFB516021517EA4D604590009184
:1032B600E0B40100E433F0900091E070140EBE001B
:1032C600010F8E828F83E0C4540FFD900079F08049
:1032D6000E8E828F83E0FD53050F900079EDF090FE
:1032E6000079E0F582C007C0061229A0D006D007F3
:1032F60080AA900089E07003022A74900093E0FE91
:10330600A3E0FF8E038F051EBEFF011FEB4D70036A
:10331600022A74758220C007C006122965D006D01D
:103326000780E08C82122965022A7490007AE0FEFA
:07333600A3E08E82F5832263
:0B33CC003C4E4F20464C4F41543E0049
:10333D00AA82AB831233756003A380F8C3E5829A2A
:10334D00F582E5839BF58322AA83AB828BF09000F7
:10335D00A2E0A4F8A9F08AF0E0A429F98BF0A3E08B
:08336D00A429F58388822222C5
:0D201100758118123391E582600302200EE4
:1033750020F71430F6148883A88220F507E6A88381
:1033850075830022E280F7E49322E0227582002211
:00000001FF
