:20206D007EE87F031EBEFF011FEE4F70F722438901758C4B758AFCD28CD2AFD2A92290F298
:20208D0000E0FEA3E0EE20E7F52212206D90F0007430F0E4A3F012206D90F0007430F0E405
:2020AD00A3F012206D90F0007430F0E4A3F012208B90F0007438F0E4A3F012208B90F000C9
:2020CD007408F0E4A3F012208B90F000740CF0E4A3F012208B90F0007406F0E4A3F012209C
:2020ED008B90F0007401F0E4A3F022E582900001F012208B900001E090F100F0E4A3F022AA
:20210D0012208B90F0007401F0E4A3F022E582900002F012208B900002E0FF7E0090F00062
:20212D0074804FF0EEA3F022E582900004F012208B900004E075F010A42461FE744535F026
:20214D00FF900003E02EF582E43FF583E493F58202211A12208B90F0007450F0E4A3F0121B
:20216D00208B74A1C0E07445C0E01235A11581158190000575F0001226BA90000575F0009F
:20218D00122DF0AE82E583FF20E7D7C3741F9E74808FF063F08095F040C89000A5E4F0902E
:2021AD0000A67408F0E4A3F090000575F000C007C00612343ED006D00790F100EEF0E4A3EB
:2021CD00F012208B90F0007451F0E4A3F012208B74BBC0E07445C0E01235A1158115819010
:2021ED00000575F0001226BA90000575F000122DF0AE82E583FF20E7D7C3741F9E74808F61
:20220D00F063F08095F040C890000575F0001226BA90000575F000123466AE82AF83C007A6
:20222D00C006122D9F90000575F000122DF0AC82AD839000A5E4F09000A67408F0E4A3F044
:20224D0090000575F000C005C00412343ED004D00590F100ECF0E4A3F012208B90F000743C
:20226D0052F0E4A3F012208BD006D007C007C00674D5C0E07445C0E01235A11581158190BB
:20228D00000575F0001226BA90000575F000122DF0AC82AD83D006D007ED20E7CFC3741F88
:2022AD009C74808DF063F08095F040C08E828F83122D9F90000575F000122DF0AE82AF8321
:2022CD009000A5E4F09000A67408F0E4A3F090000575F000C007C00612343ED006D0079087
:2022ED00F100EEF0E4A3F012208B90F0007453F0E4A3F012208B74EFC0E07445C0E01235C0
:20230D00A11581158190000575F0001226BA90000575F000122DF0AE82E583FF20E7D7C396
:20232D00741F9E74808FF063F08095F040C89000A5E4F09000A67408F0E4A3F09000057560
:20234D00F000C007C00612343ED006D00790F100EEF0E4A3F012208B90F0007454F0E4A370
:20236D00F012208B7409C0E07446C0E01235A11581158190000575F0001226BA9000057522
:20238D00F000122DF0AE82E583FF20E7D7C3741F9E74808FF063F08095F040C89000A5E4BC
:2023AD00F09000A67408F0E4A3F090000575F000C007C00612343ED006D00790F100EEF0F0
:2023CD00E4A3F012208B90F0007455F0E4A3F012208B7423C0E07446C0E01235A11581152B
:2023ED008190000575F0001226BA90000575F000122DF0AE82E583FF20E7D7C3741F9E745D
:20240D00808FF063F08095F040C89000A5E4F09000A67408F0E4A3F090000575F000C0076D
:20242D00C00612343ED006D00790F100EEF0E4A3F012208B90F0007456F0E4A3F012208B97
:20244D00743DC0E07446C0E01235A11581158190000575F0001226BA90000575F000122D8B
:20246D00F0AE82E583FF20E7D7C3741F9E74808FF063F08095F040C89000A5E4F09000A6E4
:20248D007408F0E4A3F090000575F000C007C00612343ED006D00790F100EEF0E4A3F012AC
:2024AD00208B90F0007457F0E4A3F012208B7457C0E07446C0E01235A11581158190000587
:2024CD0075F0001226BA90000575F000122DF0AE82E583FF20E7D7C3741F9E74808FF06330
:2024ED00F08095F040C89000A5E4F09000A67408F0E4A3F090000575F000C007C0061234E3
:20250D003ED006D00790F100EEF0E4A3F012208B9000037401F075820312213512208B9089
:20252D00F0007481F0E4A3F012208B90F1007401F0E4A3F02212208B90F300E0FEA3E08ED7
:20254D008222AFF0AE83E58290000DF0EEA3F0EFA3F0900010E4F0A3F090000DE0F50AA3DD
:20256D00E0F50BA3E0F50CAA0AAB0BAC0C780079008806E9C454F0CEC4CE6ECE54F0CE6E3C
:20258D00FF900010E0F508A3E0F509EE2508FEEF3509FFEE2AFEEF3BFF8C058E828F838D6D
:2025AD00F012434D700122C004C003C002C001C00012208BD000D001D002D003D004C37411
:2025CD000F950874808509F063F08095F0500C08B8000109900010E4F0A3F0C002C003C006
:2025ED00048803E9C454F0CBC4CB6BCB54F0CB6BFCEB2461FAEC3445FF900010E0FDA3E07A
:20260D00FEED2AF508EE3FF509850882850983E493F582C006C005C004C003C002C001C00D
:20262D000012211AD000D001D002850882850983E493FF7A00C002C001C000C007C002747D
:20264D0071C0E07446C0E01235A1E58124FCF581D000D001D002D003D004D005D006EB2D41
:20266D00FBEC3EFCEB250AFBEC350BFCAF0C8B828C838FF012434DFBF582C006C005C00436
:20268D00C003C002C001C0001220F8D000D001D002D003D004D005D00690001074012DF006
:2026AD00E43EA3F0D004D003D00202257EAFF0AE83E582900012F0EEA3F0EFA3F0900015C9
:2026CD00E4F0A3F012336AAE82AF83BE0802800DBE0A028062BE0D02805D02276C90001590
:2026ED00E0FDA3E0FF900015E0F5F0A3E045F070030227A4900008C007C0051233399000DA
:20270D0020123339900008123339D005D007900012E024FFFAA3E034FFFBA3E0FC900012DB
:20272D00EAF0EBA3F0ECA3F01DBDFF011F900015EDF0EFA3F0806090000D12333990000A23
:20274D00123339900012E0FCA3E0FDA3E0FF8C828D838FF0E41235868C828D838FF02290D1
:20276D000012E0FCA3E0FDA3E0FF8C828D838FF0EE12358690001274012CF0E43DA3F0EF2E
:20278D00A3F0900015E02401F0A3E03400F07F008E828F83123339900015E0FEA3E0FFBE76
:2027AD003005BF000280030226D17476C0E07446C0E07480C0E012392B15811581158122C8
:2027CD0074A2C0E07446C0E01235A115811581900017E4F0900017E0FFFD7E0090F0007458
:2027ED00804DF0EEA3F0C007C006C005122542AC82D005D006C006C005C004C005C006749C
:20280D00B5C0E07446C0E07480C0E012392BE58124FBF581D004D005D006D0078F027B0095
:20282D0074102AFAE43BFBC3ED9AEE64808BF063F08095F0503FC3ED9480EE648094805051
:20284D00348C027B00C007C006C005C004C002C00374BBC0E07446C0E07480C0E012392B60
:20286D00E58124FBF581D004D005D006D0070DBD00AA0E80A774C0C0E07446C0E01235A13B
:20288D0015811581900017E02410F0E0FFBF800050030227E174C3C0E07446C0E01235A1C0
:2028AD0015811581900017E4F0900017E0FFFD7E0090F00074404DF0EEA3F0C007C006C024
:2028CD0005122542AC82D005D006C006C005C004C005C00674B5C0E07446C0E07480C0E003
:2028ED0012392BE58124FBF581D004D005D006D0078F027B0074102AFAE43BFBC3ED9AEEFE
:20290D0064808BF063F08095F0503FC3ED9440EE6480948050348C027B00C007C006C0051B
:20292D00C004C002C00374BBC0E07446C0E07480C0E012392BE58124FBF581D004D005D09A
:20294D0006D0070DBD00AA0E80A774C0C0E07446C0E01235A115811581900017E02410F0F7
:20296D00E0FFBF400050030228B6229000187401F0E4A3F0122BE4122CCA904565E493F5C4
:20298D008212211A75822A1220F8904566E493F58212211A75822A1220F8904569E493F5A5
:2029AD008212211A75822A1220F890456AE493F58212211A75822A1220F890456DE493F57D
:2029CD008212211A75822A1220F890456EE493F58212211A75822A1220F890456FE493F557
:2029ED008212211A75822A1220F8904572E493F58212211A75822A1220F8904573E493F52F
:202A0D008212211A75822A1220F8904574E493F58212211A75822A1220F890457DE493F502
:202A2D008212211A75822A1220F890457EE493F58212211A75822A1220F874D6C0E07446F2
:202A4D00C0E01235A11581158112336AAE82AF83BE64028003022B06900007C006123339EF
:202A6D00D006900018E0FDA3E0FF8D04EC1490456193F582C007C006C00512211A12208B3F
:202A8D007582201220F812208BD005D006D007ED2461F582EF3445F583E493FC7B0090F072
:202AAD000074804CF0EBA3F0C007C006C00512208B90F100E4F0A3F012208BD005D006D02C
:202ACD0007C3ED942FEF648094804021904590E493F582C00612211A12208B7582201220BB
:202AED00F812208BD006900018E4F0A3F0900018E02401F0A3E03400F0900018E024FFFD43
:202B0D00A3E034FFFF900018EDF0EFA3F0BE61028003022BD0900007C006123339D006900A
:202B2D000018E0FDA3E0FF8D04EC0490456193F582C007C006C00512211A12208B758220DD
:202B4D001220F812208BD005D006D007ED2461F582EF3445F583E493FC7B0090F0007480D4
:202B6D004CF0EBA3F0C007C006C00512208B90F100E4F0A3F012208BD005D006D007C3E4B1
:202B8D009D74808FF063F08095F04023904561E493F582C00612211A12208B758220122020
:202BAD00F812208BD006900018742FF0E4A3F0900018E024FFFDA3E034FFFF900018EDF0E9
:202BCD00EFA3F0900018E02401F0A3E03400F0BE710122022A562212208B90F0007440F04B
:202BED00E4A3F012208B90F1007406F0E4A3F012208B90F0007441F0E4A3F012208B90F19B
:202C0D00007409F0E4A3F012208B90F0007442F0E4A3F012208B90F1007412F0E4A3F0122C
:202C2D00208B90F0007443F0E4A3F012208B90F1007414F0E4A3F012208B90F0007444F02C
:202C4D00E4A3F012208B90F1007414F0E4A3F012208B90F0007445F0E4A3F012208B90F128
:202C6D00007412F0E4A3F012208B90F0007446F0E4A3F012208B90F1007409F0E4A3F012C8
:202C8D00208B90F0007447F0E4A3F012208B90F1007406F0E4A3F012208B9000037401F006
:202CAD0075820312213512208B90F0007480F0E4A3F012208B90F100E4F0A3F02212208B89
:202CCD0090F0007470F0E4A3F012208B90F100740CF0E4A3F012208B90F0007471F0E4A35E
:202CED00F012208B90F1007412F0E4A3F012208B90F0007472F0E4A3F012208B90F1007470
:202D0D0009F0E4A3F012208B90F0007473F0E4A3F012208B90F1007405F0E4A3F012208BD0
:202D2D0090F0007474F0E4A3F012208B90F1007405F0E4A3F012208B90F0007475F0E4A3FC
:202D4D00F012208B90F1007409F0E4A3F012208B90F0007476F0E4A3F012208B90F1007414
:202D6D0012F0E4A3F012208B90F0007477F0E4A3F012208B90F100740CF0E4A3F012208B5C
:202D8D009000037401F075820312213512208B02208BAF83E58290001AF0EFA3F090001A03
:202DAD00E0FEA3E0FF4E603A9000B17402F0E4A3F08E828F83C007C0061236CA123339D091
:202DCD0006D0079000BA7402F0E4A3F08E828F831237DEE5828583F090001AF0E5F0A3F038
:202DED0080BB22AFF0AE83E58290001CF0EEA3F0EFA3F090001CE0FDA3E0FEA3E0FF900077
:202E0D0022E4F0A3F08D828E838FF012434DFCBC20028003BC09070DBD00EA0E80E79000F9
:202E2D001FEDF0EEA3F0EFA3F0BC302974012DFAE43EFB8F048A828B838CF012434DFCBC35
:202E4D0078028003BC580E90001F74022DF0E43EA3F0EFA3F090001FE0FDA3E0FEA3E0FF3E
:202E6D008D828E838FF012434DFFBF30004005EF24C650047F0080027F01EFFD3395E0FE91
:202E8D00EF705C90001FE0FBA3E0FCA3E0FF8B828C838FF012434DFFBF61004005EF249992
:202EAD0050047F0080027F01EFFC3395E0FF900024ECF0EFA3F0EC4F702590001FE0FBA38F
:202ECD00E0FCA3E0FF8B828C838FF012434DFFBF41005003022FDEEF24B95003022FDE902B
:202EED000022E0FCA3E0C454F0CCC4CC6CCC54F0CC6CFF900022ECF0EFA3F0ED4E604290B0
:202F0D00001FE0FDA3E0FEA3E0FF8D828E838FF012434DFC90001F74012DF0E43EA3F0EF83
:202F2D00A3F07F00EC24D0FCEF34FFFF900022E0FDA3E0FE900022EC2DF0EF3EA3F0022EBA
:202F4D0062900024E0F5F0A3E045F0604290001FE0FDA3E0FEA3E0FF8D828E838FF01243AC
:202F6D004DFC90001F74012DF0E43EA3F0EFA3F07F0074A92CFC74FF3FFF900022E0FDA3DC
:202F8D00E0FE900022EC2DF0EF3EA3F0022E6290001FE0FDA3E0FEA3E0FF8D828E838FF00B
:202FAD0012434DFC90001F74012DF0E43EA3F0EFA3F07F0074C92CFC74FF3FFF900022E0C7
:202FCD00FDA3E0FE900022EC2DF0EF3EA3F0022E62900022E0FEA3E08E82F58322746DC0FB
:202FED00E07443C0E07480C0E07427C0E07447C0E07480C0E012392BE58124FAF58174C02B
:20300D00C0E07446C0E07480C0E012392B1581158115817E007F009000AFEEF0EFA3F090B1
:20302D000028C007C0061236AAAC82AD83EC24A9FCED3443FD7B80C004C005C0037427C0C6
:20304D00E07447C0E0EBC0E012392BE58124FAF58174C0C0E07446C0E01235A115811581EB
:20306D00D006D0070EBE00010FC3EE940AEF6480948040A3746DC0E07443C0E07480C0E035
:20308D007427C0E07447C0E07480C0E012392BE58124FAF58174C0C0E07446C0E07480C0A7
:0B30AD00E012392B15811581158122DE
:20436D000A0D2D2D2D2D2D2D2D2D2D2D2D2D2D2D2D2D2D2D2D2D2D2D2D2D2D2D2D2D2D2DD3
:20438D002D2D2D2D2D2D2D2D2D2D2D2D2D2D2D2D2D2D2D0A0D0000000000000020456E745B
:2043AD006572207720746F20777269746520612063686172616374657220000000000000C6
:2043CD000000000020456E746572207320746F207772697465206120737472696E67000099
:2043ED0000000000000000000000000020456E746572207020746F20706C617920706163D5
:20440D006D616E200000000000000000000000000000000020456E746572206420746F206E
:20442D00706572666F726D2052414D2064756D7020000000000000000000000020456E7437
:20444D006572206720666F7220637573746F6D206368617261637465720000000000000002
:20446D000000000020456E746572207820746F2072657365742074696D65720000000000F2
:20448D0000000000000000000000000020456E746572207920746F2070617573652074691A
:2044AD006D6572000000000000000000000000000000000020456E746572207A20746F20D0
:2044CD00726573756D652074696D65720000000000000000000000000000000020456E74B6
:2044ED006572207320746F20636C6561722073637265656E0000000000000000000000007B
:20450D000000000020456E746572206D20666F72206D61696E206D656E75200000000000C2
:20452D0000000000000000000000000000000000000000000000000000000000000000006E
:20454D000000000000000000000000000000000000000000000102030405060708090A0B0C
:20456D000C0D0E0F404142434445464748494A4B4C4D4E4F101112131415161718191A1B7E
:20458D001C1D1E1F505152535455565758595A5B5C5D5E5F0A0D456E7465722076616C7533
:2045AD006520666F7220526F7720310A0D000A0D456E7465722076616C756520666F722089
:2045CD00526F7720320A0D000A0D456E7465722076616C756520666F7220526F7720330ABF
:2045ED000D000A0D456E7465722076616C756520666F7220526F7720340A0D000A0D456E5B
:20460D007465722076616C756520666F7220526F7720350A0D000A0D456E746572207661CE
:20462D006C756520666F7220526F7720360A0D000A0D456E7465722076616C756520666FB4
:20464D007220526F7720370A0D000A0D456E7465722076616C756520666F7220526F7720E4
:20466D00380A0D0025640A0D000A0D506C6561736520496E7075742061206D6178696D756B
:20468D006D206F6620343820636861726163746572730A0D000A0D444452414D20436F6E09
:2046AD0074656E74730A0D002532783A200025327820000A0D000A0D434752414D20436F26
:2046CD006E74656E74730A0D000A0D456E746572207720746F20676F2075702C207320741D
:2046ED006F20676F20646F776E2C206120746F20676F206C65667420616E64206420746F25
:1D470D0020676F20726967687420616E64207120746F20717569740A0D00257300E2
:042000000220113277
:03200B000232BBE3
:03206A0002200E43
:03200E000230B8E5
:2030B80090002BE4F0900026F0900027F0900028F0900029F090002AF09000A5F09000A6C6
:2030D800743CF0E4A3F090002D75F00012343E12209712210D122FEA12207B12336AAE825B
:2030F80090002CEEF090002BE0FFBF010890002BE4F012338C90002CE0FFBF770280030204
:20311800321E9000A5E4F09000A6740AF0E4A3F090006975F00012343E746AC0E07447C048
:20313800E01235A11581158112336AAE828E057F008D828F83C006123339D006EE24D0FF76
:2031580024FD5014748FC0E07447C0E01235A115811581122FEA8083C00774ACC0E0744750
:20317800C0E01235A11581158190006975F0001226BA90006975F000123466AD82D007ED36
:2031980024F0501574D5C0E07447C0E01235A115811581122FEA0230F3EF75F010A4242AA0
:2031B800FC744735F0FEED2CF582E43EF583E493FEFB7C007A008F017F00C006C003C00431
:2031D800C005C002C001C00774F5C0E07447C0E07480C0E012392BE58124F7F581D0068EFF
:2031F8008212211A12208B74FEC0E07447C0E01235A11581158112336A7F008F83123339EC
:203218007582301220F890002CE0FFBF6D03122FEA90002CE0FFBF700312297890002CE034
:20323800FFBF781990002BE4F0900026F0900027F0900028F0900029F090002AF090002C94
:20325800E0FFBF7902C28C90002CE0FFBF7A02D28C90002CE0FFBF630312210D90002CE01F
:20327800FFBF73217416C0E07448C0E01235A11581158190007375F0001226BA9000737578
:20329800F00012254F90002CE0FFBF64031227CD90002CE0FFBF670280030230F3122160DB
:2032B8000230F3C0E0C082C083C007C0D075D000758C4B758AFC90002AE02401F0E0FFBF7C
:2032D8000254900026E0FF24F6503A900027E02401F0E0FF24C45028900028E02401F0E0CF
:2032F800FFBF3B17900029E02401F0E0FF24E85005900029E4F0900028E4F0900027E4F014
:20331800900026E4F0900026E02401F090002AE4F090002B04F0D0D0D007D083D082D0E057
:2033380032AF83E5829000A3F0EFA3F0E59820E11290002BE0FFBF01F390002BE4F0123354
:203358008C80E99000A3E0FEA3E08E99C29990000022E59820E01290002BE0FFBF01F3902C
:20337800002BE4F012338C80E9C298AE997F008E828F832275825712211A900029E0243010
:20339800F5821220F875823A1220F8900028E0FF7E009000BA740AF0E4A3F08F828E8312A1
:2033B80037DEAE8274302EF5821220F8900028E0FF7E009000B1740AF0E4A3F08F828E83E0
:2033D8001236CAAE8274302EF5821220F875823A1220F8900027E0FF7E009000BA740AF0F9
:2033F800E4A3F08F828E831237DEAE8274302EF5821220F8900027E0FF7E009000B1740A7F
:20341800F0E4A3F08F828E831236CAAE8274302EF5821220F875822E1220F8900026E0244D
:0634380030F5820220F8CD
:20472A00000102030405060708090A0B0C0D0E0F404142434445464748494A4B4C4D4E4F7F
:20474A00101112131415161718191A1B1C1D1E1F505152535455565758595A5B5C5D5E5F5F
:20476A000A0D456E7465722074686520726F77206E756D6265722066726F6D203020746F71
:20478A0020320A0D000A0D456E746572656420526F7720697320696E636F72726563740A81
:2047AA000D000A0D456E7465722074686520636F6C756D6E206E756D6265722066726F6D41
:2047CA00203020746F2031350A0D000A0D456E746572656420436F6C756D6E2069732069EE
:2047EA006E636F72726563740A0D002564202564202564000A0D456E7465722074686520C7
:20480A006368617261637465720A0D000A0D456E7465722074686520737472696E670A0D86
:01482A00008D
:06204000E478FFF6D8FD74
:20343E00AC82AD839000A6E0FEA3E0FFBE000360121F0F9000A5E08C828D83123586A3DE98
:08345E00FADFF88C828D832255
:20201E007900E94400601B7A0090483678FC75A000E493F2A308B8000205A0D9F4DAF275EF
:02203E00A0FF01
:20346600AFF0AE83E5829000A8F0EEA3F0EFA3F09000ABE4F0A3F09000A8E0FDA3E0FEA309
:20348600E0FF8D828E838FF012434DFCBC20028003BC09120DBD00010E9000A8EDF0EEA353
:2034A600F0EFA3F080DC9000A8EDF0EEA3F0EFA3F08D828E838FF012434DFC9000ADE4BC06
:2034C6002D0104F0BC2D028003BC2B0E9000A874012DF0E43EA3F0EFA3F09000A8E0FDA3A8
:2034E600E0FEA3E0FF8D828E838FF012434DFCBC3000405DEC24C640589000ABE0FBA3E099
:20350600FC9000AFEBF0ECA3F090000AC007C006C0051236AAAB82AC83D005D006D0078DC7
:20352600828E838FF012434DFAA3AD82AE839000A8EDF0EEA3F0EFA3F08A017A00E924D0DA
:20354600F9EA34FFFA9000ABE92BF0EA3CA3F080949000A8EDF0EEA3F0EFA3F09000ADE014
:2035660060119000ABE0FEA3E0FFC3E49EFEE49FFF80089000ABE0FEA3E0FF8E828F83220D
:1B35860020F71130F6138883A88220F509F6A8837583002280FEF280F5F02244
:2035A100C00D85810DE50D24FDF8868318868218E493A324DB600C2425600512368F80F064
:2035C1000236A7D2D5E493A3C083C082B4731486F01886831886821812434D6054A312367A
:2035E1008F80F5B4630818E61812368F8043B46417E630E74618E6F42401F608E6F4340062
:20360100F6742D12368F8033B4782D868318868218E4123680E58312367FE583123680E5FE
:203621008212367FE58212368030D505743012368FD082D0830235B1B475F6E6FA18E6F909
:20364100187C107D2712366AFF7CE87D0312366AC4F5837C647D0012366A4283E975F00A72
:2036610084C445F0F582EF80A97B000BC3E99CF9EA9DFA50F61BE92CF9EA3DFAEB22C45440
:203681000F700320D51FC2D52490D43440D4C083C082C0F0F582E8C0E0123339D0E0F8D002
:0936A100F0D082D08322D00D226A
:2036AA00AA83AB828BF09000AFE0A4F8A9F08AF0E0A429F98BF0A3E0A429F5838882222226
:2036CA00AF83E5829000B3F0EFA3F09000B3E0FEA3E0FF30E709C3E49EFCE49FFD80048EFC
:2036EA00048F059000B1E0FEA3E0FF30E709C3E49EFAE49FFB80048E028F039000B5EAF0E5
:20370A00EBA3F08C828D83123732AE82AF839000B3E0A3E030E70CC3E49EFCE49FFD8C828E
:08372A008D83228E828F832221
:20373200AF83E5829000B7F0EFA3F09000B9E4F09000B7E0FEA3E0FF7D009000B5E0FBA321
:20375200E0FC235401FA7036EB2BFBEC33FC9000B5EBF0ECA3F09000B5E0FBA3E0FCC3EE48
:203772009BEF9C5011ECC313CB13CBFC9000B5EBF0ECA3F080080D9000B9EDF080BC900023
:20379200B9E0FF9000B7E0FDA3E0FE9000B5E0FBA3E0FCC3ED9BEE9C400B9000B7EDC39B89
:2037B200F0EE9CA3F09000B5E0FDA3E0C313CD13CDFE9000B5EDF0EEA3F08F061FEE70C34C
:0C37D2009000B7E0FEA3E08E82F5832299
:202046007800E84400600A790175A000E4F309D8FC78FBE84400600C7901900001E4F0A39C
:04206600D8FCD9FACF
:2037DE00AF83E5829000BCF0EFA3F09000BCE0FEA3E0FF30E709C3E49EFCE49FFD80048ED5
:2037FE00048F059000BAE0FEA3E0FF33E433FB6009C3E49EF9E49FFA80048E018F029000CC
:20381E00BEE9F0EAA3F08C828D83C003123850AE82AF83D0039000BCE0A3E033E4336B6002
:12383E000CC3E49EFCE49FFD8C828D83228E828F832227
:20385000AF83E5829000C0F0EFA3F09000C2E4F0A3F09000BEE0FEA3E0FF7D109000C0E0D9
:20387000FBA3E0FC9000C4235401F0EB2BFBEC33FC9000C0EBF0ECA3F09000C2E0FBA3E07C
:20389000FCEB2BFBEC33FC9000C2EBF0ECA3F09000C4E060089000C2E043E001F09000C210
:2038B000E0FBA3E0FCC3EB9EEC9F40139000C2EBC39EF0EC9FA3F09000C0E043E001F0DDA7
:0D38D0009B9000C0E0FEA3E08E82F58322F5
:2038DD00C00D85810D7E008E83123339D00D22AFF0AE83E5829000C6F0EEA3F0EFA3F090CF
:2038FD0000C6E0FDA3E0FEA3E0FF9000C5E0FC9000DAE4F0A3F0A3F09000DDEDF0EEA3F0A5
:20391D00EFA3F09000E0ECF09038DD023A34C00DE581F50D24FBFF9000DAE4F0A3F0A3F0F0
:20393D00E50D24FBF89000DDE6F008E6A3F008E6A3F09000E0EFF09038DD123A34D00D22A9
:20395D00E5829000D6F0E0FF9000CCE0C0E0A3E0C0E0A3E0C0E0123978800D9000CAE0C042
:20397D00E0A3E0C0E08F82221581158115819000D4E02401F0A3E03400F022E5829000D742
:20399D00F0E02430FF24C6500D74072FFF9000C9E060034307208F8202395DE5829000D879
:2039BD00F0E0FFC4540FF582C007123998D00753070F8F82023998E5829000D9F09000CF90
:2039DD00E0FCA3E0FDA3E0FEA3E0FF9000D3E0FB7518209000D9E0F98B00E828F8EF235445
:2039FD000148FBEC2CFCED33FDEE33FEEF33FFC3EB994007EBC399FB430401E51814FA8A48
:203A1D001870D59000CFECF0EDA3F0EEA3F0EFA3F09000D3EBF022AF83E5829000E1F0EF25
:203A3D00A3F09000E1E0FEA3E0FF9000CAEEF0EFA3F09000DAE0FDA3E0FEA3E0FF9000CCA5
:203A5D00EDF0EEA3F0EFA3F09000D4E4F0A3F09000DDE0FDA3E0FEA3E0FF8D828E838FF0B2
:203A7D0012434DFC9000DD74012DF0E43EA3F0EFA3F0EC7003024329BC25028003024321BC
:203A9D009000E3E4F09000E4F09000E5F09000E6F09000E7F09000E8F09000E9F09000EAE1
:203ABD00F09000ECF09000EDF0A3F09000EF14F0A3F09000DDE0FDA3E0FEA3E0FF8D828E8D
:203ADD00838FF012434DFBA3AD82AE839000DDEDF0EEA3F0EFA3F09000F3EBF0BB25088B09
:203AFD008212395D023A6CBB30005003023BCDEB24C65003023BCD9000EFE0F50EA3E0F583
:203B1D000F74FFB50E63B50F60C005C006C0079000EDE0FAA3E0FF9000AFEAF0EFA3F09066
:203B3D00000AC005C0031236AAAE82AF83D003D0058B027D00EA2EFEED3FFFEE24D0FEEFC0
:203B5D0034FFFF9000EDEEF0EFA3F0D007D006D0059000EDE0F5F0A3E045F06003023ADA44
:203B7D009000E47401F0023ADAC005C006C0079000AFE50EF0E50FA3F090000AC006C00519
:203B9D00C0031236AAAA82AF83D003D005D0067E00EB2AFAEE3FFFEA24D0FAEF34FFFF9035
:203BBD0000EFEAF0EFA3F0D007D006D005023ADA9000F3E0FBBB2E2FC005C006C0079000AD
:203BDD00EFE0FAA3E0FFBAFF05BFFF028009D007D006D005023ADAD007D006D0059000EFDD
:203BFD00E4F0A3F0023ADABB61004014EB2485400F9000F374DF5BF09000C97401F0800574
:203C1D009000C9E4F09000F3E0FBBB20028075BB2B028067BB2D028059BB4202806FBB43AC
:203C3D0002807CBB4403023EC4BB4603023EEABB4803023ADABB4903023EC4BB4A03023ACA
:203C5D00DABB4C028050BB4F03023ED2BB5003023E32BB53028077BB5403023ADABB5503B3
:203C7D00023EDABB5803023EE2BB5A03023ADA023EF29000E37401F0023ADA9000E574019D
:203C9D00F0023ADA9000E67401F0023ADA9000E87401F0023ADA9000E97401F0023ADA9099
:203CBD0000E8E0600E9000E0E014F9F09000F3E7F0800F9000E0E024FEFFF08F019000F307
:203CDD00E7F09000F3E0F58212395D023F019000E0E024FDFFF08F01870509870609870783
:203CFD0019199000CFEDF0EEA3F0EFA3F08D828E838FF012433585820E85830F9000EFE082
:203D1D00FAA3E0FDBAFF0DBDFF0A9000EFE50EF0E50FA3F09000E3E0704B9000EDE0FAA38F
:203D3D00E0FDC3E50E9AE50F9D503A9000EDEAC3950EF0ED950FA3F09000EDE0FAA3E0FD66
:203D5D008A068D071ABAFF011DEE4F6010758220C005C00212395DD002D00580E39000EDB7
:203D7D00EAF0EDA3F09000EFE0F511A3E0F5129000CFE0FAA3E0FDA3E0FF8A828D838FF007
:203D9D0012434DF510603CC3E4951174808512F063F08095F0502C151174FFB5110215129F
:203DBD0085108212395D9000CFE0FAA3E0FDA3E0FF0ABA00010D9000CFEAF0EDA3F0EFA3CF
:203DDD00F080AC9000E3E07003023F019000EDE0FEA3E0FFC3E50E9EE50F9F4003023F0159
:203DFD009000EDEEC3950EF0EF950FA3F09000EDE0FEA3E0FF8E028F051EBEFF011FEA4D8C
:203E1D007003023EF9758220C007C00612395DD006D00780E09000E0E024FDFDF08D01870D
:203E3D001309871409871519199000CFE513F0E514A3F0E515A3F09000D1E0FDBD800040BC
:203E5D00089000F37443F08020BD600040089000F37450F08013BD400040089000F37449BF
:203E7D00F080069000F37458F09000F3E0FDF582C00512395D75823A12395D7582301239E1
:203E9D005D75827812395DD005BD4902800EBD500280099000D0E0F5821239B89000CFE095
:203EBD00F5821239B8803D9000E77401F09000EC740AF0802F9000EC7408F080279000EC2E
:203EDD00740AF0801F9000EC7410F080179000EA7401F0800F8B8212395D80089000EDEE1B
:203EFD00F0EFA3F09000EAE060719000E0E024FCFFF08F01870309870509870609870719B4
:203F1D0019199000CFEBF0EDA3F0EEA3F0EFA3F09000CF742BF07448A3F07480A3F0900041
:203F3D00CFE0F513A3E0F514A3E0F51574012513FAE43514FBAF159000CFEAF0EBA3F0EF5B
:203F5D00A3F08513828514838515F012434DFF7003023A6C8F8212395D80C39000ECE0706D
:203F7D0003023A6C9000E8E060479000E0E014F9F087077E007D007B009000CFEFF0EEA35A
:203F9D00F0EDA3F0EBA3F09000E7E060030240449000CFE0FBA3E0A3E0A3E07D007E007F99
:203FBD00009000CFEBF0EDA3F0EEA3F0EFA3F080769000E9E060289000E0E024FCFFF08F62
:203FDD000187030987050987060987071919199000CFEBF0EDA3F0EEA3F0EFA3F080489017
:203FFD0000E0E024FEFFF08F01870609870719EF3395E0FDFB9000CFEEF0EFA3F0EDA3F038
:20401D00EBA3F09000E7E0701E9000CFE0FBA3E0FDA3E0A3E07E007F009000CFEBF0EDA399
:20403D00F0EEA3F0EFA3F09000E7E060419000CFE0FBA3E0FDA3E0FEA3E0FF30E72B9000E9
:20405D00CFE0FBA3E0FDA3E0FEA3E0FFC3E49BFBE49DFDE49EFEE49FFF9000CFEBF0EDA38F
:20407D00F0EEA3F0EFA3F080059000E7E4F09000EB7401F09000ECE0F5117516F97517000E
:20409D00E4F50EF50F9000D3E4F08511821239D49000EBE070269000D3E0C4F5138516828D
:2040BD00851783E0FFE5134207851682851783EFF0151674FFB516021517800C9000D3E023
:2040DD00FF851682851783F0050EE4B50E02050F9000EBE0B40100E433F09000CFE0FAA3D5
:2040FD00E0FBA3E0FEA3E0FFEA4B4E4F70979000FAE516F0E517A3F09000F1E50EF0E50F90
:20411D00A3F09000EDE0F5F0A3E045F070099000ED7401F0E4A3F09000E4E0FFE0704790A9
:20413D0000E3E07041850E16850F179000EDE0FAA3E0FBC007AF160F8F067F00C3EE9AEFDC
:20415D009BD0075019758220C007C003C00212395DD002D003D0071ABAFF011B80D590000C
:20417D00EDEAF0EBA3F09000E7E0602075822DC00712395DD0079000EDE024FFFDA3E03468
:20419D00FFFE9000EDEDF0EEA3F080569000F1E0F5F0A3E045F0604A9000E5E060207582E0
:2041BD002BC00712395DD0079000EDE024FFFDA3E034FFFE9000EDEDF0EEA3F08024900031
:2041DD00E6E0601E758220C00712395DD0079000EDE024FFFDA3E034FFFE9000EDEDF0EEA8
:2041FD00A3F09000E3E070489000F1E0F516A3E0F5179000EDE0FAA3E0FBC0078A068B074B
:20421D001ABAFF011BC3E5169EE5179FD0075053EF60067D307E0080047D207E008D82C033
:20423D0007C003C00212395DD002D003D00780CA9000EDE0FEA3E0FF9000F1E0F516A3E09B
:20425D00F517C3E5169EE5179F500F9000EDEEC39516F0EF9517A3F080119000EDE4F0A363
:20427D00F080089000EDEAF0EBA3F09000FAE0FEA3E0FF9000F1E0F516A3E0F517AA16AD82
:20429D0017151674FFB516021517EA4D60459000EBE0B40100E433F09000EBE070140EBEB5
:2042BD0000010F8E828F83E0C4540FFD9000D3F0800E8E828F83E0FD53050F9000D3EDF024
:2042DD009000D3E0F582C007C006123998D006D00780AA9000E3E07003023A6C9000EDE0F5
:2042FD00FEA3E0FF8E038F051EBEFF011FEB4D7003023A6C758220C007C00612395DD0068C
:18431D00D00780E08C8212395D023A6C9000D4E0FEA3E08E82F5832284
:0B482B003C4E4F20464C4F41543E00D5
:18433500AA82AB8312434D6003A380F8C3E5829AF582E5839BF583221E
:0D201100758118124369E582600302200EFC
:1C434D0020F71430F6148883A88220F507E6A88375830022E280F7E49322E0227F
:044369007582002237
:00000001FF
