:20206D007EE87F031EBEFF011FEE4F70F722438901758C4B758AFCD28CD2AFD2A92290F298
:20208D0000E0FEA3E0EE20E7F52212206D90F0007430F0E4A3F012206D90F0007430F0E405
:2020AD00A3F012206D90F0007430F0E4A3F012208B90F0007438F0E4A3F012208B90F000C9
:2020CD007408F0E4A3F012208B90F000740CF0E4A3F012208B90F0007406F0E4A3F012209C
:2020ED008B90F0007401F0E4A3F022E582900002F012208B900002E090F100F0E4A3F022A8
:20210D0012208B90F0007401F0E4A3F022E582900003F012208B900003E0FF7E0090F00060
:20212D0074804FF0EEA3F022E582900005F012208B900005E075F010A424C1FE740035F009
:20214D00FF900004E02EF582E43FF583E0F58202211A12208B90F0007440F0E4A3F01220A1
:20216D008B7496C0E0743EC0E01230CA1581158190000675F00012264E90000675F0001205
:20218D002761AE82AF8390007F740AF0E4A3F08E828F83C007C006123307AC82AD83D00625
:2021AD00D007EDC454F0CCC4CC6CCC54F0CC6CFD900076740AF0E4A3F08E828F83C007C0A5
:2021CD0006C005C0041231F3AA82AB83D004D005EA2CFCEB3DFD8C828D83122D7E90006A1E
:2021ED00E4F090006B7408F0E4A3F090000675F000122F67D006D00790F100EEF0E4A3F0FA
:20220D0012208B90F0007441F0E4A3F012208B74B0C0E0743EC0E01230CA158115819000BD
:20222D000675F00012264E90000675F000122F8F122D7E90000675F000122761AE82AF8321
:20224D0090006AE4F090006B7408F0E4A3F090000675F000C007C006122F67D006D0079058
:20226D00F100EEF0E4A3F012208B90F0007442F0E4A3F012208B74CAC0E0743EC0E0123082
:20228D00CA1581158190000675F00012264E90000675F000122F8F122D7E90000675F00037
:2022AD00122761AE82AF8390006AE4F090006B7408F0E4A3F090000675F000C007C00612CF
:2022CD002F67D006D00790F100EEF0E4A3F012208B90F0007443F0E4A3F012208B74E4C0A8
:2022ED00E0743EC0E01230CA1581158190000675F00012264E90000675F000122761AE8221
:20230D00AF8390006AE4F090006B7408F0E4A3F090000675F000C007C006122F67D006D0FC
:20232D000790F100EEF0E4A3F012208B90F0007444F0E4A3F012208B74FEC0E0743EC0E036
:20234D001230CA1581158190000675F00012264E90000675F000122761AE82AF8390006AC6
:20236D00E4F090006B7408F0E4A3F090000675F000C007C006122F67D006D00790F100EE52
:20238D00F0E4A3F012208B90F0007445F0E4A3F012208B7418C0E0743FC0E01230CA15818E
:2023AD00158190000675F00012264E90000675F000122761AE82AF8390006AE4F090006B39
:2023CD007408F0E4A3F090000675F000C007C006122F67D006D00790F100EEF0E4A3F01248
:2023ED00208B90F0007446F0E4A3F012208B7432C0E0743FC0E01230CA1581158190000660
:20240D0075F00012264E90000675F000122761AE82AF8390006AE4F090006B7408F0E4A311
:20242D00F090000675F000C007C006122F67D006D00790F100EEF0E4A3F012208B90F000AF
:20244D007447F0E4A3F012208B744CC0E0743FC0E01230CA1581158190000675F000122672
:20246D004E90000675F000122761AE82AF8390006AE4F090006B7408F0E4A3F09000067553
:20248D00F000C007C006122F67D006D00790F100EEF0E4A3F012208B9000047401F07582DA
:2024AD000312213512208B90F0007480F0E4A3F012208B90F100E4F0A3F02212208B90F305
:2024CD0000E0FEA3E0900001EEF07F008E828F8312262F900001E0F58222AFF0AE83E582D6
:2024ED0090000EF0EEA3F0EFA3F0900011E4F0A3F090000EE0F50AA3E0F50BA3E0F50CAA08
:20250D000AAB0BAC0C780079008806E9C454F0CEC4CE6ECE54F0CE6EFF900011E0F508A38A
:20252D00E0F509EE2508FEEF3509FFEE2AFEEF3BFF8C058E828F838DF0123E76700122C0E3
:20254D0004C003C002C001C00012208BD000D001D002D003D004C3740F950874808509F038
:20256D0063F08095F0500C08B8000109900011E4F0A3F0C002C003C0048803E9C454F0CB38
:20258D00C4CB6BCB54F0CB6BFCEB24C1FAEC3400FF900011E0FDA3E0FEED2AF582EE3FF55B
:2025AD0083E0F582C006C005C004C003C002C001C00012211AD000D001D002D003D004D0A8
:2025CD0005D006EB2DFBEC3EFCEB250AFBEC350BFCAF0C8B828C838FF0123E76FBF582C04F
:2025ED0006C005C004C003C002C001C0001220F8D000D001D002D003D004D005D0069000BA
:20260D001174012DF0E43EA3F0D004D003D002022516E59830E0FBC298AE997F008E828F58
:20262D008322AF83E582900013F0EFA3F0E59830E1FB900013E0FEA3E08E99C2999000009B
:20264D0022AFF0AE83E582900015F0EEA3F0EFA3F0900018E4F0A3F012261FAE82AF83BEF6
:20266D000802800DBE0A028062BE0D02805D022700900018E0FDA3E0FF900018E0F5F0A320
:20268D00E045F07003022738900008C007C00512262F90002012262F90000812262FD005CE
:2026AD00D007900015E024FFFAA3E034FFFBA3E0FC900015EAF0EBA3F0ECA3F01DBDFF010E
:2026CD001F900018EDF0EFA3F0806090000D12262F90000A12262F900015E0FCA3E0FDA33E
:2026ED00E0FF8C828D838FF0E41230AF8C828D838FF022900015E0FCA3E0FDA3E0FF8C822C
:20270D008D838FF0EE1230AF90001574012CF0E43DA3F0EFA3F0900018E02401F0A3E0347E
:20272D0000F07F008E828F8312262F900018E0FEA3E0FFBE3005BF000280030226657466EE
:20274D00C0E0743FC0E07480C0E012345415811581158122AFF0AE83E58290001AF0EEA305
:20276D00F0EFA3F090001AE0FDA3E0FEA3E0FF900020E4F0A3F08D828E838FF0123E76FCD8
:20278D00BC20028003BC09070DBD00EA0E80E790001DEDF0EEA3F0EFA3F0BC302974012D92
:2027AD00FAE43EFB8F048A828B838CF0123E76FCBC78028003BC580E90001D74022DF0E40B
:2027CD003EA3F0EFA3F090001DE0FDA3E0FEA3E0FF8D828E838FF0123E76FFBF3000400574
:2027ED00EF24C650047F0080027F01EFFD3395E0FEEF705C90001DE0FBA3E0FCA3E0FF8BBD
:20280D00828C838FF0123E76FFBF61004005EF249950047F0080027F01EFFC3395E0FF90CE
:20282D000022ECF0EFA3F0EC4F702590001DE0FBA3E0FCA3E0FF8B828C838FF0123E76FF52
:20284D00BF4100500302294FEF24B9500302294F900020E0FCA3E0C454F0CCC4CC6CCC5406
:20286D00F0CC6CFF900020ECF0EFA3F0ED4E604290001DE0FDA3E0FEA3E0FF8D828E838FFD
:20288D00F0123E76FC90001D74012DF0E43EA3F0EFA3F07F00EC24D0FCEF34FFFF900020D7
:2028AD00E0FDA3E0FE900020EC2DF0EF3EA3F00227D3900022E0F5F0A3E045F060429000D7
:2028CD001DE0FDA3E0FEA3E0FF8D828E838FF0123E76FC90001D74012DF0E43EA3F0EFA307
:2028ED00F07F0074A92CFC74FF3FFF900020E0FDA3E0FE900020EC2DF0EF3EA3F00227D3E3
:20290D0090001DE0FDA3E0FEA3E0FF8D828E838FF0123E76FC90001D74012DF0E43EA3F0C8
:20292D00EFA3F07F0074C92CFC74FF3FFF900020E0FDA3E0FE900020EC2DF0EF3EA3F002EA
:20294D0027D3900020E0FEA3E08E82F583229000247401F0E4A3F0122BC3122CA99000C5E9
:20296D00E0F58212211A75822A1220F89000C6E0F58212211A75822A1220F89000C9E0F5E8
:20298D008212211A75822A1220F89000CAE0F58212211A75822A1220F89000CDE0F5821201
:2029AD00211A75822A1220F89000CEE0F58212211A75822A1220F89000CFE0F58212211A34
:2029CD0075822A1220F89000D2E0F58212211A75822A1220F89000D3E0F58212211A758250
:2029ED002A1220F89000D4E0F58212211A75822A1220F89000DDE0F58212211A75822A12DF
:202A0D0020F89000DEE0F58212211A75822A1220F8748EC0E0743FC0E01230CA1581158107
:202A2D0012261FAE82AF83BE64028003022AE1900007C00612262FD006900024E0FDA3E06E
:202A4D00FF8D04EC1424C1F582E43400F583E0F582C007C006C00512211A12208B75822023
:202A6D001220F812208BD005D006D007ED24C1F582EF3400F583E0FC7B0090F00074804CE5
:202A8D00F0EBA3F0C007C006C00512208B90F100E4F0A3F012208BD005D006D007C3ED9441
:202AAD002FEF6480948040209000F0E0F582C00612211A12208B7582201220F812208BD01E
:202ACD0006900024E4F0A3F0900024E02401F0A3E03400F0900024E024FFFDA3E034FFFF0F
:202AED00900024EDF0EFA3F0BE61028003022BAF900007C00612262FD006900024E0FDA368
:202B0D00E0FF8D04EC0424C1F582E43400F583E0F582C007C006C00512211A12208B7582B2
:202B2D00201220F812208BD005D006D007ED24C1F582EF3400F583E0FC7B0090F000748050
:202B4D004CF0EBA3F0C007C006C00512208B90F100E4F0A3F012208BD005D006D007C3E4D1
:202B6D009D74808FF063F08095F040229000C1E0F582C00612211A12208B7582201220F8C5
:202B8D0012208BD006900024742FF0E4A3F0900024E024FFFDA3E034FFFF900024EDF0EFEE
:202BAD00A3F0900024E02401F0A3E03400F0BE710122022A2D2212208B90F0007440F0E493
:202BCD00A3F012208B90F1007406F0E4A3F012208B90F0007441F0E4A3F012208B90F1009F
:202BED007409F0E4A3F012208B90F0007442F0E4A3F012208B90F1007412F0E4A3F012202D
:202C0D008B90F0007443F0E4A3F012208B90F1007414F0E4A3F012208B90F0007444F0E488
:202C2D00A3F012208B90F1007414F0E4A3F012208B90F0007445F0E4A3F012208B90F1002C
:202C4D007412F0E4A3F012208B90F0007446F0E4A3F012208B90F1007409F0E4A3F01220C8
:202C6D008B90F0007447F0E4A3F012208B90F1007406F0E4A3F012208B9000047401F075D0
:202C8D00820312213512208B90F0007480F0E4A3F012208B90F100E4F0A3F02212208B908E
:202CAD00F0007470F0E4A3F012208B90F100740CF0E4A3F012208B90F0007471F0E4A3F01E
:202CCD0012208B90F1007412F0E4A3F012208B90F0007472F0E4A3F012208B90F100740977
:202CED00F0E4A3F012208B90F0007473F0E4A3F012208B90F1007405F0E4A3F012208B906A
:202D0D00F0007474F0E4A3F012208B90F1007405F0E4A3F012208B90F0007475F0E4A3F0BC
:202D2D0012208B90F1007409F0E4A3F012208B90F0007476F0E4A3F012208B90F100741212
:202D4D00F0E4A3F012208B90F0007477F0E4A3F012208B90F100740CF0E4A3F012208B90FE
:202D6D0000047401F075820312213512208B02208BAF83E582900026F0EFA3F0900026E0BA
:202D8D00FEA3E0FF4E603A9000767402F0E4A3F08E828F83C007C0061231F312262FD006B9
:202DAD00D00790007F7402F0E4A3F08E828F83123307E5828583F0900026F0E5F0A3F080E8
:022DCD00BB2227
:203E96000A0D456E7465722076616C756520666F7220526F7720310A0D000A0D456E7465F0
:203EB600722076616C756520666F7220526F7720320A0D000A0D456E7465722076616C7528
:203ED6006520666F7220526F7720330A0D000A0D456E7465722076616C756520666F722065
:203EF600526F7720340A0D000A0D456E7465722076616C756520666F7220526F7720350A99
:203F16000D000A0D456E7465722076616C756520666F7220526F7720360A0D000A0D456E36
:203F36007465722076616C756520666F7220526F7720370A0D000A0D456E746572207661AA
:203F56006C756520666F7220526F7720380A0D000A0D506C6561736520496E7075742061B5
:203F7600206D6178696D756D206F66203634206469676974730A0D000A0D456E746572209E
:203F96007720746F20676F2075702C207320746F20676F20646F776E2C206120746F2067CF
:203FB6006F206C65667420616E64206420746F20676F20726967687420616E64207120742B
:093FD6006F20717569740A0D0079
:203FEA00000102030405060708090A0B0C0D0E0F404142434445464748494A4B4C4D4E4FC7
:20400A00101112131415161718191A1B1C1D1E1F505152535455565758595A5B5C5D5E5FA6
:042000000220113277
:03200B00022E376B
:03206A0002200E43
:03200E00022DCFD1
:202DCF0090002DE4F0900028F0900029F090002AF090002BF090002CF090006AF090006B1C
:202DEF00743CF0E4A3F090002E75F000122F6712209712210D12208B75820412211A7582DD
:202E0F00611220F812208B75820412211A12208B1224C812207B90002DE0FFBF01F89000C7
:202E2F002DE4F0122EB580EEC0E0C082C083C007C0D075D000758C4B758AFC90002CE02457
:202E4F0001F0E0FFBF0254900028E0FF24F6503A900029E02401F0E0FF24C4502890002A9C
:202E6F00E02401F0E0FFBF3B1790002BE02401F0E0FF24E8500590002BE4F090002AE4F051
:202E8F00900029E4F0900028E4F0900028E02401F090002CE4F090002D04F0D0D0D007D0D5
:202EAF0083D082D0E03275825712211A90002BE02430F5821220F875823A1220F890002A0C
:202ECF00E0FF7E0090007F740AF0E4A3F08F828E83123307AE8274302EF5821220F89000F1
:202EEF002AE0FF7E00900076740AF0E4A3F08F828E831231F3AE8274302EF5821220F875E1
:202F0F00823A1220F8900029E0FF7E0090007F740AF0E4A3F08F828E83123307AE82743070
:202F2F002EF5821220F8900029E0FF7E00900076740AF0E4A3F08F828E831231F3AE8274B6
:182F4F00302EF5821220F875822E1220F8900028E02430F5820220F89F
:06204000E478FFF6D8FD74
:202F6700AC82AD8390006BE0FEA3E0FFBE000360121F0F90006AE08C828D831230AFA3DEC6
:082F8700FADFF88C828D832231
:20201E007940E94400601B7A01903FEA78C175A000E493F2A308B8000205A0D9F4DAF2753E
:02203E00A0FF01
:202F8F00AFF0AE83E58290006DF0EEA3F0EFA3F0900070E4F0A3F090006DE0FDA3E0FEA396
:202FAF00E0FF8D828E838FF0123E76FCBC20028003BC09120DBD00010E90006DEDF0EEA346
:202FCF00F0EFA3F080DC90006DEDF0EEA3F0EFA3F08D828E838FF0123E76FC900072E4BC34
:202FEF002D0104F0BC2D028003BC2B0E90006D74012DF0E43EA3F0EFA3F090006DE0FDA3FA
:20300F00E0FEA3E0FF8D828E838FF0123E76FCBC3000405DEC24C64058900070E0FBA3E08B
:20302F00FC900074EBF0ECA3F090000AC007C006C0051231D3AB82AC83D005D006D0078DBA
:20304F00828E838FF0123E76FAA3AD82AE8390006DEDF0EEA3F0EFA3F08A017A00E924D0CD
:20306F00F9EA34FFFA900070E92BF0EA3CA3F0809490006DEDF0EEA3F0EFA3F0900072E0A1
:20308F006011900070E0FEA3E0FFC3E49EFEE49FFF8008900070E0FEA3E0FF8E828F83225F
:1B30AF0020F71130F6138883A88220F509F6A8837583002280FEF280F5F02220
:2030CA00C00D85810DE50D24FDF8868318868218E493A324DB600C242560051231B880F01C
:2030EA000231D0D2D5E493A3C083C082B4731486F018868318868218123E766054A3123113
:20310A00B880F5B4630818E6181231B88043B46417E630E74618E6F42401F608E6F43400F0
:20312A00F6742D1231B88033B4782D868318868218E41231A9E5831231A8E5831231A9E54A
:20314A00821231A8E5821231A930D50574301231B8D082D0830230DAB475F6E6FA18E6F955
:20316A00187C107D27123193FF7CE87D03123193C4F5837C647D001231934283E975F00AE2
:20318A0084C445F0F582EF80A97B000BC3E99CF9EA9DFA50F61BE92CF9EA3DFAEB22C4541C
:2031AA000F700320D51FC2D52490D43440D4C083C082C0F0F582E8C0E012262FD0E0F8D0F5
:0931CA00F0D082D08322D00D2246
:2031D300AA83AB828BF0900074E0A4F8A9F08AF0E0A429F98BF0A3E0A429F583888222223D
:2031F300AF83E582900078F0EFA3F0900078E0FEA3E0FF30E709C3E49EFCE49FFD80048E4E
:20321300048F05900076E0FEA3E0FF30E709C3E49EFAE49FFB80048E028F0390007AEAF036
:20323300EBA3F08C828D8312325BAE82AF83900078E0A3E030E70CC3E49EFCE49FFD8C8281
:083253008D83228E828F8322FD
:20325B00AF83E58290007CF0EFA3F090007EE4F090007CE0FEA3E0FF7D0090007AE0FBA3E9
:20327B00E0FC235401FA7036EB2BFBEC33FC90007AEBF0ECA3F090007AE0FBA3E0FCC3EE9A
:20329B009BEF9C5011ECC313CB13CBFC90007AEBF0ECA3F080080D90007EEDF080BC900075
:2032BB007EE0FF90007CE0FDA3E0FE90007AE0FBA3E0FCC3ED9BEE9C400B90007CEDC39B51
:2032DB00F0EE9CA3F090007AE0FDA3E0C313CD13CDFE90007AEDF0EEA3F08F061FEE70C39E
:0C32FB0090007CE0FEA3E08E82F58322B0
:202046007800E84400600A790175A000E4F309D8FC78C0E84400600C7901900001E4F0A3D7
:04206600D8FCD9FACF
:20330700AF83E582900081F0EFA3F0900081E0FEA3E0FF30E709C3E49EFCE49FFD80048E26
:20332700048F0590007FE0FEA3E0FF33E433FB6009C3E49EF9E49FFA80048E018F029000E2
:2033470083E9F0EAA3F08C828D83C003123379AE82AF83D003900081E0A3E033E4336B6030
:123367000CC3E49EFCE49FFD8C828D83228E828F832203
:20337900AF83E582900085F0EFA3F0900087E4F0A3F0900083E0FEA3E0FF7D10900085E0A1
:20339900FBA3E0FC900089235401F0EB2BFBEC33FC900085EBF0ECA3F0900087E0FBA3E009
:2033B900FCEB2BFBEC33FC900087EBF0ECA3F0900089E06008900087E043E001F0900087D8
:2033D900E0FBA3E0FCC3EB9EEC9F4013900087EBC39EF0EC9FA3F0900085E043E001F0DDF9
:0D33F9009B900085E0FEA3E08E82F583220C
:20340600C00D85810D7E008E8312262FD00D22AFF0AE83E58290008BF0EEA3F0EFA3F090FC
:20342600008BE0FDA3E0FEA3E0FF90008AE0FC90009FE4F0A3F0A3F09000A2EDF0EEA3F06C
:20344600EFA3F09000A5ECF090340602355DC00DE581F50D24FBFF90009FE4F0A3F0A3F0F9
:20346600E50D24FBF89000A2E6F008E6A3F008E6A3F09000A5EFF090340612355DD00D22B2
:20348600E58290009BF0E0FF900091E0C0E0A3E0C0E0A3E0C0E01234A1800D90008FE0C0AB
:2034A600E0A3E0C0E08F8222158115811581900099E02401F0A3E03400F022E58290009C94
:2034C600F0E02430FF24C6500D74072FFF90008EE060034307208F82023486E58290009DA7
:2034E600F0E0FFC4540FF582C0071234C1D00753070F8F820234C1E58290009EF09000949A
:20350600E0FCA3E0FDA3E0FEA3E0FF900098E0FB75182090009EE0F98B00E828F8EF235496
:203526000148FBEC2CFCED33FDEE33FEEF33FFC3EB994007EBC399FB430401E51814FA8A23
:203546001870D5900094ECF0EDA3F0EEA3F0EFA3F0900098EBF022AF83E5829000A6F0EFB2
:20356600A3F09000A6E0FEA3E0FF90008FEEF0EFA3F090009FE0FDA3E0FEA3E0FF9000916D
:20358600EDF0EEA3F0EFA3F0900099E4F0A3F09000A2E0FDA3E0FEA3E0FF8D828E838FF004
:2035A600123E76FC9000A274012DF0E43EA3F0EFA3F0EC7003023E52BC25028003023E4A67
:2035C6009000A8E4F09000A9F09000AAF09000ABF09000ACF09000ADF09000AEF09000AF95
:2035E600F09000B1F09000B2F0A3F09000B414F0A3F09000A2E0FDA3E0FEA3E0FF8D828E55
:20360600838FF0123E76FBA3AD82AE839000A2EDF0EEA3F0EFA3F09000B8EBF0BB25088B36
:2036260082123486023595BB300050030236F6EB24C650030236F69000B4E0F50EA3E0F509
:203646000F74FFB50E63B50F60C005C006C0079000B2E0FAA3E0FF900074EAF0EFA3F090B8
:20366600000AC005C0031231D3AE82AF83D003D0058B027D00EA2EFEED3FFFEE24D0FEEF78
:2036860034FFFF9000B2EEF0EFA3F0D007D006D0059000B2E0F5F0A3E045F0600302360371
:2036A6009000A97401F0023603C005C006C007900074E50EF0E50FA3F090000AC006C00546
:2036C600C0031231D3AA82AF83D003D005D0067E00EB2AFAEE3FFFEA24D0FAEF34FFFF90ED
:2036E60000B4EAF0EFA3F0D007D006D0050236039000B8E0FBBB2E2FC005C006C0079000DA
:20370600B4E0FAA3E0FFBAFF05BFFF028009D007D006D005023603D007D006D0059000B409
:20372600E4F0A3F0023603BB61004014EB2485400F9000B874DF5BF090008E7401F08005A0
:2037460090008EE4F09000B8E0FBBB20028075BB2B028067BB2D028059BB4202806FBB43FE
:2037660002807CBB44030239EDBB4603023A13BB4803023603BB49030239EDBB4A03023618
:2037860003BB4C028050BB4F030239FBBB500302395BBB53028077BB5403023603BB5503F9
:2037A600023A03BB5803023A0BBB5A03023603023A1B9000A87401F00236039000AA740136
:2037C600F00236039000AB7401F00236039000AD7401F00236039000AE7401F00236039092
:2037E60000ADE0600E9000A5E014F9F09000B8E7F0800F9000A5E024FEFFF08F019000B80A
:20380600E7F09000B8E0F582123486023A2A9000A5E024FDFFF08F0187050987060987078C
:203826001919900094EDF0EEA3F0EFA3F08D828E838FF0123E5E85820E85830F9000B4E0AF
:20384600FAA3E0FDBAFF0DBDFF0A9000B4E50EF0E50FA3F09000A8E0704B9000B2E0FAA31C
:20386600E0FDC3E50E9AE50F9D503A9000B2EAC3950EF0ED950FA3F09000B2E0FAA3E0FDB8
:203886008A068D071ABAFF011DEE4F6010758220C005C002123486D002D00580E39000B2AA
:2038A600EAF0EDA3F09000B4E0F511A3E0F512900094E0FAA3E0FDA3E0FF8A828D838FF059
:2038C600123E76F510603CC3E4951174808512F063F08095F0502C151174FFB51102151257
:2038E600851082123486900094E0FAA3E0FDA3E0FF0ABA00010D900094EAF0EDA3F0EFA3FD
:20390600F080AC9000A8E07003023A2A9000B2E0FEA3E0FFC3E50E9EE50F9F4003023A2A62
:203926009000B2EEC3950EF0EF950FA3F09000B2E0FEA3E0FF8E028F051EBEFF011FEA4DDD
:203946007003023A22758220C007C006123486D006D00780E09000A5E024FDFDF08D0187DB
:20396600130987140987151919900094E513F0E514A3F0E515A3F0900096E0FDBD8000400E
:20398600089000B87443F08020BD600040089000B87450F08013BD400040089000B874494C
:2039A600F080069000B87458F09000B8E0FDF582C00512348675823A1234867582301234F0
:2039C60086758278123486D005BD4902800EBD50028009900095E0F5821234E1900094E076
:2039E600F5821234E1803D9000AC7401F09000B1740AF0802F9000B17408F080279000B1D2
:203A0600740AF0801F9000B17410F080179000AF7401F0800F8B8212348680089000B2EE83
:203A2600F0EFA3F09000AFE060719000A5E024FCFFF08F0187030987050987060987071905
:203A46001919900094EBF0EDA3F0EEA3F0EFA3F090009474DFF0743FA3F07480A3F09000E8
:203A660094E0F513A3E0F514A3E0F51574012513FAE43514FBAF15900094EAF0EBA3F0EFAD
:203A8600A3F08513828514838515F0123E76FF70030235958F8212348680C39000B1E07018
:203AA600030235959000ADE060479000A5E014F9F087077E007D007B00900094EFF0EEA3C3
:203AC600F0EDA3F0EBA3F09000ACE06003023B6D900094E0FBA3E0A3E0A3E07D007E007FC7
:203AE60000900094EBF0EDA3F0EEA3F0EFA3F080769000AEE060289000A5E024FCFFF08FEF
:203B0600018703098705098706098707191919900094EBF0EDA3F0EEA3F0EFA3F08048902D
:203B260000A5E024FEFFF08F01870609870719EF3395E0FDFB900094EEF0EFA3F0EDA3F089
:203B4600EBA3F09000ACE0701E900094E0FBA3E0FDA3E0A3E07E007F00900094EBF0EDA326
:203B6600F0EEA3F0EFA3F09000ACE06041900094E0FBA3E0FDA3E0FEA3E0FF30E72B90003B
:203B860094E0FBA3E0FDA3E0FEA3E0FFC3E49BFBE49DFDE49EFEE49FFF900094EBF0EDA3E1
:203BA600F0EEA3F0EFA3F080059000ACE4F09000B07401F09000B1E0F5117516BE751700D6
:203BC600E4F50EF50F900098E4F08511821234FD9000B0E07026900098E0C4F513851682F6
:203BE600851783E0FFE5134207851682851783EFF0151674FFB516021517800C900098E03A
:203C0600FF851682851783F0050EE4B50E02050F9000B0E0B40100E433F0900094E0FAA326
:203C2600E0FBA3E0FEA3E0FFEA4B4E4F70979000BFE516F0E517A3F09000B6E50EF0E50FE1
:203C4600A3F09000B2E0F5F0A3E045F070099000B27401F0E4A3F09000A9E0FFE070479036
:203C660000A8E07041850E16850F179000B2E0FAA3E0FBC007AF160F8F067F00C3EE9AEF2E
:203C86009BD0075019758220C007C003C002123486D002D003D0071ABAFF011B80D59000C4
:203CA600B2EAF0EBA3F09000ACE0602075822DC007123486D0079000B2E024FFFDA3E034D1
:203CC600FFFE9000B2EDF0EEA3F080569000B6E0F5F0A3E045F0604A9000AAE0602075826D
:203CE6002BC007123486D0079000B2E024FFFDA3E034FFFE9000B2EDF0EEA3F0802490005F
:203D0600ABE0601E758220C007123486D0079000B2E024FFFDA3E034FFFE9000B2EDF0EE10
:203D2600A3F09000A8E070489000B6E0F516A3E0F5179000B2E0FAA3E0FBC0078A068B07D7
:203D46001ABAFF011BC3E5169EE5179FD0075053EF60067D307E0080047D207E008D82C00F
:203D660007C003C002123486D002D003D00780CA9000B2E0FEA3E0FF9000B6E0F516A3E0C9
:203D8600F517C3E5169EE5179F500F9000B2EEC39516F0EF9517A3F080119000B2E4F0A3B5
:203DA600F080089000B2EAF0EBA3F09000BFE0FEA3E0FF9000B6E0F516A3E0F517AA16AD0F
:203DC60017151674FFB516021517EA4D60459000B0E0B40100E433F09000B0E070140EBE07
:203DE60000010F8E828F83E0C4540FFD900098F0800E8E828F83E0FD53050F900098EDF076
:203E0600900098E0F582C007C0061234C1D006D00780AA9000A8E070030235959000B2E039
:203E2600FEA3E0FF8E038F051EBEFF011FEB4D7003023595758220C007C006123486D0061F
:183E4600D00780E08C82123486023595900099E0FEA3E08E82F5832253
:0B3FDF003C4E4F20464C4F41543E002A
:183E5E00AA82AB83123E766003A380F8C3E5829AF582E5839BF58322D6
:0D201100758118123E92E582600302200ED8
:1C3E760020F71430F6148883A88220F507E6A88375830022E280F7E49322E0225B
:043E92007582002213
:00000001FF
